{
	"contracts/crowdFunding.sol": {
		"CrowdFunding": {
			"abi": [
				{
					"inputs": [
						{
							"internalType": "string",
							"name": "_name",
							"type": "string"
						},
						{
							"internalType": "string",
							"name": "_description",
							"type": "string"
						},
						{
							"internalType": "string",
							"name": "_image",
							"type": "string"
						},
						{
							"internalType": "uint256",
							"name": "_target",
							"type": "uint256"
						},
						{
							"internalType": "address",
							"name": "_owner",
							"type": "address"
						}
					],
					"name": "createCampaign",
					"outputs": [
						{
							"internalType": "uint256",
							"name": "",
							"type": "uint256"
						}
					],
					"stateMutability": "nonpayable",
					"type": "function"
				},
				{
					"inputs": [
						{
							"internalType": "uint256",
							"name": "_idx",
							"type": "uint256"
						}
					],
					"name": "fund",
					"outputs": [],
					"stateMutability": "payable",
					"type": "function"
				},
				{
					"inputs": [],
					"name": "getAllCampaign",
					"outputs": [
						{
							"components": [
								{
									"internalType": "string",
									"name": "name",
									"type": "string"
								},
								{
									"internalType": "string",
									"name": "description",
									"type": "string"
								},
								{
									"internalType": "string",
									"name": "image",
									"type": "string"
								},
								{
									"internalType": "uint256",
									"name": "target",
									"type": "uint256"
								},
								{
									"internalType": "uint256",
									"name": "totalRaised",
									"type": "uint256"
								},
								{
									"internalType": "uint256",
									"name": "currentBalance",
									"type": "uint256"
								},
								{
									"internalType": "address",
									"name": "owner",
									"type": "address"
								},
								{
									"internalType": "address[]",
									"name": "donators",
									"type": "address[]"
								},
								{
									"internalType": "uint256[]",
									"name": "donation",
									"type": "uint256[]"
								}
							],
							"internalType": "struct CrowdFunding.Campaign[]",
							"name": "",
							"type": "tuple[]"
						}
					],
					"stateMutability": "view",
					"type": "function"
				},
				{
					"inputs": [
						{
							"internalType": "uint256",
							"name": "_idx",
							"type": "uint256"
						}
					],
					"name": "getAllDonators",
					"outputs": [
						{
							"internalType": "address[]",
							"name": "",
							"type": "address[]"
						},
						{
							"internalType": "uint256[]",
							"name": "",
							"type": "uint256[]"
						}
					],
					"stateMutability": "view",
					"type": "function"
				},
				{
					"inputs": [
						{
							"internalType": "uint256",
							"name": "",
							"type": "uint256"
						}
					],
					"name": "intToCampaign",
					"outputs": [
						{
							"internalType": "string",
							"name": "name",
							"type": "string"
						},
						{
							"internalType": "string",
							"name": "description",
							"type": "string"
						},
						{
							"internalType": "string",
							"name": "image",
							"type": "string"
						},
						{
							"internalType": "uint256",
							"name": "target",
							"type": "uint256"
						},
						{
							"internalType": "uint256",
							"name": "totalRaised",
							"type": "uint256"
						},
						{
							"internalType": "uint256",
							"name": "currentBalance",
							"type": "uint256"
						},
						{
							"internalType": "address",
							"name": "owner",
							"type": "address"
						}
					],
					"stateMutability": "view",
					"type": "function"
				},
				{
					"inputs": [],
					"name": "numberOfCampaign",
					"outputs": [
						{
							"internalType": "uint256",
							"name": "",
							"type": "uint256"
						}
					],
					"stateMutability": "view",
					"type": "function"
				},
				{
					"inputs": [
						{
							"internalType": "uint256",
							"name": "_idx",
							"type": "uint256"
						}
					],
					"name": "withdraw",
					"outputs": [],
					"stateMutability": "nonpayable",
					"type": "function"
				}
			],
			"devdoc": {
				"kind": "dev",
				"methods": {},
				"version": 1
			},
			"evm": {
				"assembly": "    /* \"contracts/crowdFunding.sol\":61:2195  contract CrowdFunding {... */\n  mstore(0x40, 0x80)\n    /* \"contracts/crowdFunding.sol\":401:402  0 */\n  0x00\n    /* \"contracts/crowdFunding.sol\":367:402  uint256 public numberOfCampaign = 0 */\n  dup1\n  sstore\n    /* \"contracts/crowdFunding.sol\":61:2195  contract CrowdFunding {... */\n  callvalue\n  dup1\n  iszero\n  tag_1\n  jumpi\n  0x00\n  dup1\n  revert\ntag_1:\n  pop\n  dataSize(sub_0)\n  dup1\n  dataOffset(sub_0)\n  0x00\n  codecopy\n  0x00\n  return\nstop\n\nsub_0: assembly {\n        /* \"contracts/crowdFunding.sol\":61:2195  contract CrowdFunding {... */\n      mstore(0x40, 0x80)\n      jumpi(tag_1, lt(calldatasize, 0x04))\n      shr(0xe0, calldataload(0x00))\n      dup1\n      0xab4a0b32\n      gt\n      tag_9\n      jumpi\n      dup1\n      0xab4a0b32\n      eq\n      tag_5\n      jumpi\n      dup1\n      0xca1d209d\n      eq\n      tag_6\n      jumpi\n      dup1\n      0xd8443124\n      eq\n      tag_7\n      jumpi\n      dup1\n      0xe27883fb\n      eq\n      tag_8\n      jumpi\n      jump(tag_1)\n    tag_9:\n      dup1\n      0x2e1a7d4d\n      eq\n      tag_2\n      jumpi\n      dup1\n      0x35640410\n      eq\n      tag_3\n      jumpi\n      dup1\n      0x4ca079f2\n      eq\n      tag_4\n      jumpi\n    tag_1:\n      0x00\n      dup1\n      revert\n        /* \"contracts/crowdFunding.sol\":1289:1548  function withdraw(uint256 _idx) public onlyCampaignOwner(_idx){... */\n    tag_2:\n      callvalue\n      dup1\n      iszero\n      tag_10\n      jumpi\n      0x00\n      dup1\n      revert\n    tag_10:\n      pop\n      tag_11\n      0x04\n      dup1\n      calldatasize\n      sub\n      dup2\n      add\n      swap1\n      tag_12\n      swap2\n      swap1\n      tag_13\n      jump\t// in\n    tag_12:\n      tag_14\n      jump\t// in\n    tag_11:\n      stop\n        /* \"contracts/crowdFunding.sol\":465:964  function createCampaign(string memory _name, string memory _description, string memory _image, uint256 _target, address _owner) public returns (uint256){... */\n    tag_3:\n      callvalue\n      dup1\n      iszero\n      tag_15\n      jumpi\n      0x00\n      dup1\n      revert\n    tag_15:\n      pop\n      tag_16\n      0x04\n      dup1\n      calldatasize\n      sub\n      dup2\n      add\n      swap1\n      tag_17\n      swap2\n      swap1\n      tag_18\n      jump\t// in\n    tag_17:\n      tag_19\n      jump\t// in\n    tag_16:\n      mload(0x40)\n      tag_20\n      swap2\n      swap1\n      tag_21\n      jump\t// in\n    tag_20:\n      mload(0x40)\n      dup1\n      swap2\n      sub\n      swap1\n      return\n        /* \"contracts/crowdFunding.sol\":1720:2004  function getAllCampaign() public view returns(Campaign[] memory){... */\n    tag_4:\n      callvalue\n      dup1\n      iszero\n      tag_22\n      jumpi\n      0x00\n      dup1\n      revert\n    tag_22:\n      pop\n      tag_23\n      tag_24\n      jump\t// in\n    tag_23:\n      mload(0x40)\n      tag_25\n      swap2\n      swap1\n      tag_26\n      jump\t// in\n    tag_25:\n      mload(0x40)\n      dup1\n      swap2\n      sub\n      swap1\n      return\n        /* \"contracts/crowdFunding.sol\":367:402  uint256 public numberOfCampaign = 0 */\n    tag_5:\n      callvalue\n      dup1\n      iszero\n      tag_27\n      jumpi\n      0x00\n      dup1\n      revert\n    tag_27:\n      pop\n      tag_28\n      tag_29\n      jump\t// in\n    tag_28:\n      mload(0x40)\n      tag_30\n      swap2\n      swap1\n      tag_21\n      jump\t// in\n    tag_30:\n      mload(0x40)\n      dup1\n      swap2\n      sub\n      swap1\n      return\n        /* \"contracts/crowdFunding.sol\":972:1281  function fund(uint256 _idx) public payable {... */\n    tag_6:\n      tag_31\n      0x04\n      dup1\n      calldatasize\n      sub\n      dup2\n      add\n      swap1\n      tag_32\n      swap2\n      swap1\n      tag_13\n      jump\t// in\n    tag_32:\n      tag_33\n      jump\t// in\n    tag_31:\n      stop\n        /* \"contracts/crowdFunding.sol\":409:456  mapping(uint256=>Campaign) public intToCampaign */\n    tag_7:\n      callvalue\n      dup1\n      iszero\n      tag_34\n      jumpi\n      0x00\n      dup1\n      revert\n    tag_34:\n      pop\n      tag_35\n      0x04\n      dup1\n      calldatasize\n      sub\n      dup2\n      add\n      swap1\n      tag_36\n      swap2\n      swap1\n      tag_13\n      jump\t// in\n    tag_36:\n      tag_37\n      jump\t// in\n    tag_35:\n      mload(0x40)\n      tag_38\n      swap8\n      swap7\n      swap6\n      swap5\n      swap4\n      swap3\n      swap2\n      swap1\n      tag_39\n      jump\t// in\n    tag_38:\n      mload(0x40)\n      dup1\n      swap2\n      sub\n      swap1\n      return\n        /* \"contracts/crowdFunding.sol\":2012:2190  function getAllDonators(uint256 _idx) public view returns(address[] memory, uint256[] memory){... */\n    tag_8:\n      callvalue\n      dup1\n      iszero\n      tag_40\n      jumpi\n      0x00\n      dup1\n      revert\n    tag_40:\n      pop\n      tag_41\n      0x04\n      dup1\n      calldatasize\n      sub\n      dup2\n      add\n      swap1\n      tag_42\n      swap2\n      swap1\n      tag_13\n      jump\t// in\n    tag_42:\n      tag_43\n      jump\t// in\n    tag_41:\n      mload(0x40)\n      tag_44\n      swap3\n      swap2\n      swap1\n      tag_45\n      jump\t// in\n    tag_44:\n      mload(0x40)\n      dup1\n      swap2\n      sub\n      swap1\n      return\n        /* \"contracts/crowdFunding.sol\":1289:1548  function withdraw(uint256 _idx) public onlyCampaignOwner(_idx){... */\n    tag_14:\n        /* \"contracts/crowdFunding.sol\":1346:1350  _idx */\n      dup1\n        /* \"contracts/crowdFunding.sol\":1629:1642  intToCampaign */\n      0x01\n        /* \"contracts/crowdFunding.sol\":1629:1648  intToCampaign[_idx] */\n      0x00\n        /* \"contracts/crowdFunding.sol\":1643:1647  _idx */\n      dup3\n        /* \"contracts/crowdFunding.sol\":1629:1648  intToCampaign[_idx] */\n      dup2\n      mstore\n      0x20\n      add\n      swap1\n      dup2\n      mstore\n      0x20\n      add\n      0x00\n      keccak256\n        /* \"contracts/crowdFunding.sol\":1629:1654  intToCampaign[_idx].owner */\n      0x06\n      add\n      0x00\n      swap1\n      sload\n      swap1\n      0x0100\n      exp\n      swap1\n      div\n      0xffffffffffffffffffffffffffffffffffffffff\n      and\n        /* \"contracts/crowdFunding.sol\":1615:1654  msg.sender == intToCampaign[_idx].owner */\n      0xffffffffffffffffffffffffffffffffffffffff\n      and\n        /* \"contracts/crowdFunding.sol\":1615:1625  msg.sender */\n      caller\n        /* \"contracts/crowdFunding.sol\":1615:1654  msg.sender == intToCampaign[_idx].owner */\n      0xffffffffffffffffffffffffffffffffffffffff\n      and\n      eq\n        /* \"contracts/crowdFunding.sol\":1607:1687  require(msg.sender == intToCampaign[_idx].owner,\"Only owner can withdraw money\") */\n      tag_47\n      jumpi\n      mload(0x40)\n      0x08c379a000000000000000000000000000000000000000000000000000000000\n      dup2\n      mstore\n      0x04\n      add\n      tag_48\n      swap1\n      tag_49\n      jump\t// in\n    tag_48:\n      mload(0x40)\n      dup1\n      swap2\n      sub\n      swap1\n      revert\n    tag_47:\n        /* \"contracts/crowdFunding.sol\":1363:1376  bool callSent */\n      0x00\n        /* \"contracts/crowdFunding.sol\":1389:1399  msg.sender */\n      caller\n        /* \"contracts/crowdFunding.sol\":1381:1405  payable(msg.sender).call */\n      0xffffffffffffffffffffffffffffffffffffffff\n      and\n        /* \"contracts/crowdFunding.sol\":1412:1433  address(this).balance */\n      selfbalance\n        /* \"contracts/crowdFunding.sol\":1381:1438  payable(msg.sender).call{value:address(this).balance}(\"\") */\n      mload(0x40)\n      tag_51\n      swap1\n      tag_52\n      jump\t// in\n    tag_51:\n      0x00\n      mload(0x40)\n      dup1\n      dup4\n      sub\n      dup2\n      dup6\n      dup8\n      gas\n      call\n      swap3\n      pop\n      pop\n      pop\n      returndatasize\n      dup1\n      0x00\n      dup2\n      eq\n      tag_55\n      jumpi\n      mload(0x40)\n      swap2\n      pop\n      and(add(returndatasize, 0x3f), not(0x1f))\n      dup3\n      add\n      0x40\n      mstore\n      returndatasize\n      dup3\n      mstore\n      returndatasize\n      0x00\n      0x20\n      dup5\n      add\n      returndatacopy\n      jump(tag_54)\n    tag_55:\n      0x60\n      swap2\n      pop\n    tag_54:\n      pop\n        /* \"contracts/crowdFunding.sol\":1362:1438  (bool callSent,) = payable(msg.sender).call{value:address(this).balance}(\"\") */\n      pop\n      swap1\n      pop\n        /* \"contracts/crowdFunding.sol\":1457:1465  callSent */\n      dup1\n        /* \"contracts/crowdFunding.sol\":1449:1489  require(callSent,\"Something went wrong\") */\n      tag_56\n      jumpi\n      mload(0x40)\n      0x08c379a000000000000000000000000000000000000000000000000000000000\n      dup2\n      mstore\n      0x04\n      add\n      tag_57\n      swap1\n      tag_58\n      jump\t// in\n    tag_57:\n      mload(0x40)\n      dup1\n      swap2\n      sub\n      swap1\n      revert\n    tag_56:\n        /* \"contracts/crowdFunding.sol\":1539:1540  0 */\n      0x00\n        /* \"contracts/crowdFunding.sol\":1502:1515  intToCampaign */\n      0x01\n        /* \"contracts/crowdFunding.sol\":1502:1521  intToCampaign[_idx] */\n      0x00\n        /* \"contracts/crowdFunding.sol\":1516:1520  _idx */\n      dup6\n        /* \"contracts/crowdFunding.sol\":1502:1521  intToCampaign[_idx] */\n      dup2\n      mstore\n      0x20\n      add\n      swap1\n      dup2\n      mstore\n      0x20\n      add\n      0x00\n      keccak256\n        /* \"contracts/crowdFunding.sol\":1502:1536  intToCampaign[_idx].currentBalance */\n      0x05\n      add\n        /* \"contracts/crowdFunding.sol\":1502:1540  intToCampaign[_idx].currentBalance = 0 */\n      dup2\n      swap1\n      sstore\n      pop\n        /* \"contracts/crowdFunding.sol\":1351:1548  {... */\n      pop\n        /* \"contracts/crowdFunding.sol\":1289:1548  function withdraw(uint256 _idx) public onlyCampaignOwner(_idx){... */\n      pop\n      pop\n      jump\t// out\n        /* \"contracts/crowdFunding.sol\":465:964  function createCampaign(string memory _name, string memory _description, string memory _image, uint256 _target, address _owner) public returns (uint256){... */\n    tag_19:\n        /* \"contracts/crowdFunding.sol\":609:616  uint256 */\n      0x00\n        /* \"contracts/crowdFunding.sol\":628:656  Campaign storage newCampaign */\n      dup1\n        /* \"contracts/crowdFunding.sol\":659:672  intToCampaign */\n      0x01\n        /* \"contracts/crowdFunding.sol\":659:690  intToCampaign[numberOfCampaign] */\n      0x00\n        /* \"contracts/crowdFunding.sol\":673:689  numberOfCampaign */\n      dup1\n      sload\n        /* \"contracts/crowdFunding.sol\":659:690  intToCampaign[numberOfCampaign] */\n      dup2\n      mstore\n      0x20\n      add\n      swap1\n      dup2\n      mstore\n      0x20\n      add\n      0x00\n      keccak256\n        /* \"contracts/crowdFunding.sol\":628:690  Campaign storage newCampaign = intToCampaign[numberOfCampaign] */\n      swap1\n      pop\n        /* \"contracts/crowdFunding.sol\":721:727  _owner */\n      dup3\n        /* \"contracts/crowdFunding.sol\":701:712  newCampaign */\n      dup2\n        /* \"contracts/crowdFunding.sol\":701:718  newCampaign.owner */\n      0x06\n      add\n      0x00\n        /* \"contracts/crowdFunding.sol\":701:727  newCampaign.owner = _owner */\n      0x0100\n      exp\n      dup2\n      sload\n      dup2\n      0xffffffffffffffffffffffffffffffffffffffff\n      mul\n      not\n      and\n      swap1\n      dup4\n      0xffffffffffffffffffffffffffffffffffffffff\n      and\n      mul\n      or\n      swap1\n      sstore\n      pop\n        /* \"contracts/crowdFunding.sol\":757:762  _name */\n      dup7\n        /* \"contracts/crowdFunding.sol\":738:749  newCampaign */\n      dup2\n        /* \"contracts/crowdFunding.sol\":738:754  newCampaign.name */\n      0x00\n      add\n        /* \"contracts/crowdFunding.sol\":738:762  newCampaign.name = _name */\n      swap1\n      dup2\n      tag_60\n      swap2\n      swap1\n      tag_61\n      jump\t// in\n    tag_60:\n      pop\n        /* \"contracts/crowdFunding.sol\":799:811  _description */\n      dup6\n        /* \"contracts/crowdFunding.sol\":773:784  newCampaign */\n      dup2\n        /* \"contracts/crowdFunding.sol\":773:796  newCampaign.description */\n      0x01\n      add\n        /* \"contracts/crowdFunding.sol\":773:811  newCampaign.description = _description */\n      swap1\n      dup2\n      tag_62\n      swap2\n      swap1\n      tag_61\n      jump\t// in\n    tag_62:\n      pop\n        /* \"contracts/crowdFunding.sol\":842:848  _image */\n      dup5\n        /* \"contracts/crowdFunding.sol\":822:833  newCampaign */\n      dup2\n        /* \"contracts/crowdFunding.sol\":822:839  newCampaign.image */\n      0x02\n      add\n        /* \"contracts/crowdFunding.sol\":822:848  newCampaign.image = _image */\n      swap1\n      dup2\n      tag_63\n      swap2\n      swap1\n      tag_61\n      jump\t// in\n    tag_63:\n      pop\n        /* \"contracts/crowdFunding.sol\":880:887  _target */\n      dup4\n        /* \"contracts/crowdFunding.sol\":859:870  newCampaign */\n      dup2\n        /* \"contracts/crowdFunding.sol\":859:877  newCampaign.target */\n      0x03\n      add\n        /* \"contracts/crowdFunding.sol\":859:887  newCampaign.target = _target */\n      dup2\n      swap1\n      sstore\n      pop\n        /* \"contracts/crowdFunding.sol\":900:916  numberOfCampaign */\n      0x00\n      dup1\n        /* \"contracts/crowdFunding.sol\":900:918  numberOfCampaign++ */\n      dup2\n      sload\n      dup1\n      swap3\n      swap2\n      swap1\n      tag_64\n      swap1\n      tag_65\n      jump\t// in\n    tag_64:\n      swap2\n      swap1\n      pop\n      sstore\n      pop\n        /* \"contracts/crowdFunding.sol\":955:956  1 */\n      0x01\n        /* \"contracts/crowdFunding.sol\":936:952  numberOfCampaign */\n      sload(0x00)\n        /* \"contracts/crowdFunding.sol\":936:956  numberOfCampaign - 1 */\n      tag_66\n      swap2\n      swap1\n      tag_67\n      jump\t// in\n    tag_66:\n        /* \"contracts/crowdFunding.sol\":929:956  return numberOfCampaign - 1 */\n      swap2\n      pop\n      pop\n        /* \"contracts/crowdFunding.sol\":465:964  function createCampaign(string memory _name, string memory _description, string memory _image, uint256 _target, address _owner) public returns (uint256){... */\n      swap6\n      swap5\n      pop\n      pop\n      pop\n      pop\n      pop\n      jump\t// out\n        /* \"contracts/crowdFunding.sol\":1720:2004  function getAllCampaign() public view returns(Campaign[] memory){... */\n    tag_24:\n        /* \"contracts/crowdFunding.sol\":1766:1783  Campaign[] memory */\n      0x60\n        /* \"contracts/crowdFunding.sol\":1795:1824  Campaign[] memory allCampaign */\n      0x00\n        /* \"contracts/crowdFunding.sol\":1842:1858  numberOfCampaign */\n      dup1\n      sload\n        /* \"contracts/crowdFunding.sol\":1827:1859  new Campaign[](numberOfCampaign) */\n      0xffffffffffffffff\n      dup2\n      gt\n      iszero\n      tag_69\n      jumpi\n      tag_70\n      tag_71\n      jump\t// in\n    tag_70:\n    tag_69:\n      mload(0x40)\n      swap1\n      dup1\n      dup3\n      mstore\n      dup1\n      0x20\n      mul\n      0x20\n      add\n      dup3\n      add\n      0x40\n      mstore\n      dup1\n      iszero\n      tag_72\n      jumpi\n      dup2\n      0x20\n      add\n    tag_73:\n      tag_74\n      tag_75\n      jump\t// in\n    tag_74:\n      dup2\n      mstore\n      0x20\n      add\n      swap1\n      0x01\n      swap1\n      sub\n      swap1\n      dup2\n      tag_73\n      jumpi\n      swap1\n      pop\n    tag_72:\n      pop\n        /* \"contracts/crowdFunding.sol\":1795:1859  Campaign[] memory allCampaign = new Campaign[](numberOfCampaign) */\n      swap1\n      pop\n        /* \"contracts/crowdFunding.sol\":1874:1880  uint i */\n      0x00\n        /* \"contracts/crowdFunding.sol\":1870:1968  for(uint i = 0;i<numberOfCampaign;i++){... */\n    tag_76:\n        /* \"contracts/crowdFunding.sol\":1887:1903  numberOfCampaign */\n      sload(0x00)\n        /* \"contracts/crowdFunding.sol\":1885:1886  i */\n      dup2\n        /* \"contracts/crowdFunding.sol\":1885:1903  i<numberOfCampaign */\n      lt\n        /* \"contracts/crowdFunding.sol\":1870:1968  for(uint i = 0;i<numberOfCampaign;i++){... */\n      iszero\n      tag_77\n      jumpi\n        /* \"contracts/crowdFunding.sol\":1940:1953  intToCampaign */\n      0x01\n        /* \"contracts/crowdFunding.sol\":1940:1956  intToCampaign[i] */\n      0x00\n        /* \"contracts/crowdFunding.sol\":1954:1955  i */\n      dup3\n        /* \"contracts/crowdFunding.sol\":1940:1956  intToCampaign[i] */\n      dup2\n      mstore\n      0x20\n      add\n      swap1\n      dup2\n      mstore\n      0x20\n      add\n      0x00\n      keccak256\n        /* \"contracts/crowdFunding.sol\":1923:1956  allCampaign[i] = intToCampaign[i] */\n      mload(0x40)\n      dup1\n      0x0120\n      add\n      0x40\n      mstore\n      swap1\n      dup2\n      0x00\n      dup3\n      add\n      dup1\n      sload\n      tag_79\n      swap1\n      tag_80\n      jump\t// in\n    tag_79:\n      dup1\n      0x1f\n      add\n      0x20\n      dup1\n      swap2\n      div\n      mul\n      0x20\n      add\n      mload(0x40)\n      swap1\n      dup2\n      add\n      0x40\n      mstore\n      dup1\n      swap3\n      swap2\n      swap1\n      dup2\n      dup2\n      mstore\n      0x20\n      add\n      dup3\n      dup1\n      sload\n      tag_81\n      swap1\n      tag_80\n      jump\t// in\n    tag_81:\n      dup1\n      iszero\n      tag_82\n      jumpi\n      dup1\n      0x1f\n      lt\n      tag_83\n      jumpi\n      0x0100\n      dup1\n      dup4\n      sload\n      div\n      mul\n      dup4\n      mstore\n      swap2\n      0x20\n      add\n      swap2\n      jump(tag_82)\n    tag_83:\n      dup3\n      add\n      swap2\n      swap1\n      0x00\n      mstore\n      keccak256(0x00, 0x20)\n      swap1\n    tag_84:\n      dup2\n      sload\n      dup2\n      mstore\n      swap1\n      0x01\n      add\n      swap1\n      0x20\n      add\n      dup1\n      dup4\n      gt\n      tag_84\n      jumpi\n      dup3\n      swap1\n      sub\n      0x1f\n      and\n      dup3\n      add\n      swap2\n    tag_82:\n      pop\n      pop\n      pop\n      pop\n      pop\n      dup2\n      mstore\n      0x20\n      add\n      0x01\n      dup3\n      add\n      dup1\n      sload\n      tag_85\n      swap1\n      tag_80\n      jump\t// in\n    tag_85:\n      dup1\n      0x1f\n      add\n      0x20\n      dup1\n      swap2\n      div\n      mul\n      0x20\n      add\n      mload(0x40)\n      swap1\n      dup2\n      add\n      0x40\n      mstore\n      dup1\n      swap3\n      swap2\n      swap1\n      dup2\n      dup2\n      mstore\n      0x20\n      add\n      dup3\n      dup1\n      sload\n      tag_86\n      swap1\n      tag_80\n      jump\t// in\n    tag_86:\n      dup1\n      iszero\n      tag_87\n      jumpi\n      dup1\n      0x1f\n      lt\n      tag_88\n      jumpi\n      0x0100\n      dup1\n      dup4\n      sload\n      div\n      mul\n      dup4\n      mstore\n      swap2\n      0x20\n      add\n      swap2\n      jump(tag_87)\n    tag_88:\n      dup3\n      add\n      swap2\n      swap1\n      0x00\n      mstore\n      keccak256(0x00, 0x20)\n      swap1\n    tag_89:\n      dup2\n      sload\n      dup2\n      mstore\n      swap1\n      0x01\n      add\n      swap1\n      0x20\n      add\n      dup1\n      dup4\n      gt\n      tag_89\n      jumpi\n      dup3\n      swap1\n      sub\n      0x1f\n      and\n      dup3\n      add\n      swap2\n    tag_87:\n      pop\n      pop\n      pop\n      pop\n      pop\n      dup2\n      mstore\n      0x20\n      add\n      0x02\n      dup3\n      add\n      dup1\n      sload\n      tag_90\n      swap1\n      tag_80\n      jump\t// in\n    tag_90:\n      dup1\n      0x1f\n      add\n      0x20\n      dup1\n      swap2\n      div\n      mul\n      0x20\n      add\n      mload(0x40)\n      swap1\n      dup2\n      add\n      0x40\n      mstore\n      dup1\n      swap3\n      swap2\n      swap1\n      dup2\n      dup2\n      mstore\n      0x20\n      add\n      dup3\n      dup1\n      sload\n      tag_91\n      swap1\n      tag_80\n      jump\t// in\n    tag_91:\n      dup1\n      iszero\n      tag_92\n      jumpi\n      dup1\n      0x1f\n      lt\n      tag_93\n      jumpi\n      0x0100\n      dup1\n      dup4\n      sload\n      div\n      mul\n      dup4\n      mstore\n      swap2\n      0x20\n      add\n      swap2\n      jump(tag_92)\n    tag_93:\n      dup3\n      add\n      swap2\n      swap1\n      0x00\n      mstore\n      keccak256(0x00, 0x20)\n      swap1\n    tag_94:\n      dup2\n      sload\n      dup2\n      mstore\n      swap1\n      0x01\n      add\n      swap1\n      0x20\n      add\n      dup1\n      dup4\n      gt\n      tag_94\n      jumpi\n      dup3\n      swap1\n      sub\n      0x1f\n      and\n      dup3\n      add\n      swap2\n    tag_92:\n      pop\n      pop\n      pop\n      pop\n      pop\n      dup2\n      mstore\n      0x20\n      add\n      0x03\n      dup3\n      add\n      sload\n      dup2\n      mstore\n      0x20\n      add\n      0x04\n      dup3\n      add\n      sload\n      dup2\n      mstore\n      0x20\n      add\n      0x05\n      dup3\n      add\n      sload\n      dup2\n      mstore\n      0x20\n      add\n      0x06\n      dup3\n      add\n      0x00\n      swap1\n      sload\n      swap1\n      0x0100\n      exp\n      swap1\n      div\n      0xffffffffffffffffffffffffffffffffffffffff\n      and\n      0xffffffffffffffffffffffffffffffffffffffff\n      and\n      0xffffffffffffffffffffffffffffffffffffffff\n      and\n      dup2\n      mstore\n      0x20\n      add\n      0x07\n      dup3\n      add\n      dup1\n      sload\n      dup1\n      0x20\n      mul\n      0x20\n      add\n      mload(0x40)\n      swap1\n      dup2\n      add\n      0x40\n      mstore\n      dup1\n      swap3\n      swap2\n      swap1\n      dup2\n      dup2\n      mstore\n      0x20\n      add\n      dup3\n      dup1\n      sload\n      dup1\n      iszero\n      tag_95\n      jumpi\n      0x20\n      mul\n      dup3\n      add\n      swap2\n      swap1\n      0x00\n      mstore\n      keccak256(0x00, 0x20)\n      swap1\n    tag_96:\n      dup2\n      0x00\n      swap1\n      sload\n      swap1\n      0x0100\n      exp\n      swap1\n      div\n      0xffffffffffffffffffffffffffffffffffffffff\n      and\n      0xffffffffffffffffffffffffffffffffffffffff\n      and\n      dup2\n      mstore\n      0x20\n      add\n      swap1\n      0x01\n      add\n      swap1\n      dup1\n      dup4\n      gt\n      tag_96\n      jumpi\n    tag_95:\n      pop\n      pop\n      pop\n      pop\n      pop\n      dup2\n      mstore\n      0x20\n      add\n      0x08\n      dup3\n      add\n      dup1\n      sload\n      dup1\n      0x20\n      mul\n      0x20\n      add\n      mload(0x40)\n      swap1\n      dup2\n      add\n      0x40\n      mstore\n      dup1\n      swap3\n      swap2\n      swap1\n      dup2\n      dup2\n      mstore\n      0x20\n      add\n      dup3\n      dup1\n      sload\n      dup1\n      iszero\n      tag_97\n      jumpi\n      0x20\n      mul\n      dup3\n      add\n      swap2\n      swap1\n      0x00\n      mstore\n      keccak256(0x00, 0x20)\n      swap1\n    tag_98:\n      dup2\n      sload\n      dup2\n      mstore\n      0x20\n      add\n      swap1\n      0x01\n      add\n      swap1\n      dup1\n      dup4\n      gt\n      tag_98\n      jumpi\n    tag_97:\n      pop\n      pop\n      pop\n      pop\n      pop\n      dup2\n      mstore\n      pop\n      pop\n        /* \"contracts/crowdFunding.sol\":1923:1934  allCampaign */\n      dup3\n        /* \"contracts/crowdFunding.sol\":1935:1936  i */\n      dup3\n        /* \"contracts/crowdFunding.sol\":1923:1937  allCampaign[i] */\n      dup2\n      mload\n      dup2\n      lt\n      tag_99\n      jumpi\n      tag_100\n      tag_101\n      jump\t// in\n    tag_100:\n    tag_99:\n      0x20\n      mul\n      0x20\n      add\n      add\n        /* \"contracts/crowdFunding.sol\":1923:1956  allCampaign[i] = intToCampaign[i] */\n      dup2\n      swap1\n      mstore\n      pop\n        /* \"contracts/crowdFunding.sol\":1904:1907  i++ */\n      dup1\n      dup1\n      0x01\n      add\n      swap2\n      pop\n      pop\n        /* \"contracts/crowdFunding.sol\":1870:1968  for(uint i = 0;i<numberOfCampaign;i++){... */\n      jump(tag_76)\n    tag_77:\n      pop\n        /* \"contracts/crowdFunding.sol\":1985:1996  allCampaign */\n      dup1\n        /* \"contracts/crowdFunding.sol\":1978:1996  return allCampaign */\n      swap2\n      pop\n      pop\n        /* \"contracts/crowdFunding.sol\":1720:2004  function getAllCampaign() public view returns(Campaign[] memory){... */\n      swap1\n      jump\t// out\n        /* \"contracts/crowdFunding.sol\":367:402  uint256 public numberOfCampaign = 0 */\n    tag_29:\n      sload(0x00)\n      dup2\n      jump\t// out\n        /* \"contracts/crowdFunding.sol\":972:1281  function fund(uint256 _idx) public payable {... */\n    tag_33:\n        /* \"contracts/crowdFunding.sol\":1036:1061  Campaign storage campaign */\n      0x00\n        /* \"contracts/crowdFunding.sol\":1064:1077  intToCampaign */\n      0x01\n        /* \"contracts/crowdFunding.sol\":1064:1083  intToCampaign[_idx] */\n      0x00\n        /* \"contracts/crowdFunding.sol\":1078:1082  _idx */\n      dup4\n        /* \"contracts/crowdFunding.sol\":1064:1083  intToCampaign[_idx] */\n      dup2\n      mstore\n      0x20\n      add\n      swap1\n      dup2\n      mstore\n      0x20\n      add\n      0x00\n      keccak256\n        /* \"contracts/crowdFunding.sol\":1036:1083  Campaign storage campaign = intToCampaign[_idx] */\n      swap1\n      pop\n        /* \"contracts/crowdFunding.sol\":1104:1112  campaign */\n      dup1\n        /* \"contracts/crowdFunding.sol\":1104:1121  campaign.donators */\n      0x07\n      add\n        /* \"contracts/crowdFunding.sol\":1127:1137  msg.sender */\n      caller\n        /* \"contracts/crowdFunding.sol\":1104:1138  campaign.donators.push(msg.sender) */\n      swap1\n      dup1\n      0x01\n      dup2\n      sload\n      add\n      dup1\n      dup3\n      sstore\n      dup1\n      swap2\n      pop\n      pop\n      0x01\n      swap1\n      sub\n      swap1\n      0x00\n      mstore\n      keccak256(0x00, 0x20)\n      add\n      0x00\n      swap1\n      swap2\n      swap1\n      swap2\n      swap1\n      swap2\n      0x0100\n      exp\n      dup2\n      sload\n      dup2\n      0xffffffffffffffffffffffffffffffffffffffff\n      mul\n      not\n      and\n      swap1\n      dup4\n      0xffffffffffffffffffffffffffffffffffffffff\n      and\n      mul\n      or\n      swap1\n      sstore\n      pop\n        /* \"contracts/crowdFunding.sol\":1149:1157  campaign */\n      dup1\n        /* \"contracts/crowdFunding.sol\":1149:1166  campaign.donation */\n      0x08\n      add\n        /* \"contracts/crowdFunding.sol\":1172:1181  msg.value */\n      callvalue\n        /* \"contracts/crowdFunding.sol\":1149:1182  campaign.donation.push(msg.value) */\n      swap1\n      dup1\n      0x01\n      dup2\n      sload\n      add\n      dup1\n      dup3\n      sstore\n      dup1\n      swap2\n      pop\n      pop\n      0x01\n      swap1\n      sub\n      swap1\n      0x00\n      mstore\n      keccak256(0x00, 0x20)\n      add\n      0x00\n      swap1\n      swap2\n      swap1\n      swap2\n      swap1\n      swap2\n      pop\n      sstore\n        /* \"contracts/crowdFunding.sol\":1217:1226  msg.value */\n      callvalue\n        /* \"contracts/crowdFunding.sol\":1193:1201  campaign */\n      dup2\n        /* \"contracts/crowdFunding.sol\":1193:1213  campaign.totalRaised */\n      0x04\n      add\n      0x00\n        /* \"contracts/crowdFunding.sol\":1193:1226  campaign.totalRaised += msg.value */\n      dup3\n      dup3\n      sload\n      tag_105\n      swap2\n      swap1\n      tag_106\n      jump\t// in\n    tag_105:\n      swap3\n      pop\n      pop\n      dup2\n      swap1\n      sstore\n      pop\n        /* \"contracts/crowdFunding.sol\":1264:1273  msg.value */\n      callvalue\n        /* \"contracts/crowdFunding.sol\":1237:1245  campaign */\n      dup2\n        /* \"contracts/crowdFunding.sol\":1237:1260  campaign.currentBalance */\n      0x05\n      add\n      0x00\n        /* \"contracts/crowdFunding.sol\":1237:1273  campaign.currentBalance += msg.value */\n      dup3\n      dup3\n      sload\n      tag_107\n      swap2\n      swap1\n      tag_106\n      jump\t// in\n    tag_107:\n      swap3\n      pop\n      pop\n      dup2\n      swap1\n      sstore\n      pop\n        /* \"contracts/crowdFunding.sol\":1015:1281  {... */\n      pop\n        /* \"contracts/crowdFunding.sol\":972:1281  function fund(uint256 _idx) public payable {... */\n      pop\n      jump\t// out\n        /* \"contracts/crowdFunding.sol\":409:456  mapping(uint256=>Campaign) public intToCampaign */\n    tag_37:\n      mstore(0x20, 0x01)\n      dup1\n      0x00\n      mstore\n      keccak256(0x00, 0x40)\n      0x00\n      swap2\n      pop\n      swap1\n      pop\n      dup1\n      0x00\n      add\n      dup1\n      sload\n      tag_108\n      swap1\n      tag_80\n      jump\t// in\n    tag_108:\n      dup1\n      0x1f\n      add\n      0x20\n      dup1\n      swap2\n      div\n      mul\n      0x20\n      add\n      mload(0x40)\n      swap1\n      dup2\n      add\n      0x40\n      mstore\n      dup1\n      swap3\n      swap2\n      swap1\n      dup2\n      dup2\n      mstore\n      0x20\n      add\n      dup3\n      dup1\n      sload\n      tag_109\n      swap1\n      tag_80\n      jump\t// in\n    tag_109:\n      dup1\n      iszero\n      tag_110\n      jumpi\n      dup1\n      0x1f\n      lt\n      tag_111\n      jumpi\n      0x0100\n      dup1\n      dup4\n      sload\n      div\n      mul\n      dup4\n      mstore\n      swap2\n      0x20\n      add\n      swap2\n      jump(tag_110)\n    tag_111:\n      dup3\n      add\n      swap2\n      swap1\n      0x00\n      mstore\n      keccak256(0x00, 0x20)\n      swap1\n    tag_112:\n      dup2\n      sload\n      dup2\n      mstore\n      swap1\n      0x01\n      add\n      swap1\n      0x20\n      add\n      dup1\n      dup4\n      gt\n      tag_112\n      jumpi\n      dup3\n      swap1\n      sub\n      0x1f\n      and\n      dup3\n      add\n      swap2\n    tag_110:\n      pop\n      pop\n      pop\n      pop\n      pop\n      swap1\n      dup1\n      0x01\n      add\n      dup1\n      sload\n      tag_113\n      swap1\n      tag_80\n      jump\t// in\n    tag_113:\n      dup1\n      0x1f\n      add\n      0x20\n      dup1\n      swap2\n      div\n      mul\n      0x20\n      add\n      mload(0x40)\n      swap1\n      dup2\n      add\n      0x40\n      mstore\n      dup1\n      swap3\n      swap2\n      swap1\n      dup2\n      dup2\n      mstore\n      0x20\n      add\n      dup3\n      dup1\n      sload\n      tag_114\n      swap1\n      tag_80\n      jump\t// in\n    tag_114:\n      dup1\n      iszero\n      tag_115\n      jumpi\n      dup1\n      0x1f\n      lt\n      tag_116\n      jumpi\n      0x0100\n      dup1\n      dup4\n      sload\n      div\n      mul\n      dup4\n      mstore\n      swap2\n      0x20\n      add\n      swap2\n      jump(tag_115)\n    tag_116:\n      dup3\n      add\n      swap2\n      swap1\n      0x00\n      mstore\n      keccak256(0x00, 0x20)\n      swap1\n    tag_117:\n      dup2\n      sload\n      dup2\n      mstore\n      swap1\n      0x01\n      add\n      swap1\n      0x20\n      add\n      dup1\n      dup4\n      gt\n      tag_117\n      jumpi\n      dup3\n      swap1\n      sub\n      0x1f\n      and\n      dup3\n      add\n      swap2\n    tag_115:\n      pop\n      pop\n      pop\n      pop\n      pop\n      swap1\n      dup1\n      0x02\n      add\n      dup1\n      sload\n      tag_118\n      swap1\n      tag_80\n      jump\t// in\n    tag_118:\n      dup1\n      0x1f\n      add\n      0x20\n      dup1\n      swap2\n      div\n      mul\n      0x20\n      add\n      mload(0x40)\n      swap1\n      dup2\n      add\n      0x40\n      mstore\n      dup1\n      swap3\n      swap2\n      swap1\n      dup2\n      dup2\n      mstore\n      0x20\n      add\n      dup3\n      dup1\n      sload\n      tag_119\n      swap1\n      tag_80\n      jump\t// in\n    tag_119:\n      dup1\n      iszero\n      tag_120\n      jumpi\n      dup1\n      0x1f\n      lt\n      tag_121\n      jumpi\n      0x0100\n      dup1\n      dup4\n      sload\n      div\n      mul\n      dup4\n      mstore\n      swap2\n      0x20\n      add\n      swap2\n      jump(tag_120)\n    tag_121:\n      dup3\n      add\n      swap2\n      swap1\n      0x00\n      mstore\n      keccak256(0x00, 0x20)\n      swap1\n    tag_122:\n      dup2\n      sload\n      dup2\n      mstore\n      swap1\n      0x01\n      add\n      swap1\n      0x20\n      add\n      dup1\n      dup4\n      gt\n      tag_122\n      jumpi\n      dup3\n      swap1\n      sub\n      0x1f\n      and\n      dup3\n      add\n      swap2\n    tag_120:\n      pop\n      pop\n      pop\n      pop\n      pop\n      swap1\n      dup1\n      0x03\n      add\n      sload\n      swap1\n      dup1\n      0x04\n      add\n      sload\n      swap1\n      dup1\n      0x05\n      add\n      sload\n      swap1\n      dup1\n      0x06\n      add\n      0x00\n      swap1\n      sload\n      swap1\n      0x0100\n      exp\n      swap1\n      div\n      0xffffffffffffffffffffffffffffffffffffffff\n      and\n      swap1\n      pop\n      dup8\n      jump\t// out\n        /* \"contracts/crowdFunding.sol\":2012:2190  function getAllDonators(uint256 _idx) public view returns(address[] memory, uint256[] memory){... */\n    tag_43:\n        /* \"contracts/crowdFunding.sol\":2070:2086  address[] memory */\n      0x60\n        /* \"contracts/crowdFunding.sol\":2088:2104  uint256[] memory */\n      dup1\n        /* \"contracts/crowdFunding.sol\":2124:2137  intToCampaign */\n      0x01\n        /* \"contracts/crowdFunding.sol\":2124:2143  intToCampaign[_idx] */\n      0x00\n        /* \"contracts/crowdFunding.sol\":2138:2142  _idx */\n      dup5\n        /* \"contracts/crowdFunding.sol\":2124:2143  intToCampaign[_idx] */\n      dup2\n      mstore\n      0x20\n      add\n      swap1\n      dup2\n      mstore\n      0x20\n      add\n      0x00\n      keccak256\n        /* \"contracts/crowdFunding.sol\":2124:2152  intToCampaign[_idx].donators */\n      0x07\n      add\n        /* \"contracts/crowdFunding.sol\":2153:2166  intToCampaign */\n      0x01\n        /* \"contracts/crowdFunding.sol\":2153:2172  intToCampaign[_idx] */\n      0x00\n        /* \"contracts/crowdFunding.sol\":2167:2171  _idx */\n      dup6\n        /* \"contracts/crowdFunding.sol\":2153:2172  intToCampaign[_idx] */\n      dup2\n      mstore\n      0x20\n      add\n      swap1\n      dup2\n      mstore\n      0x20\n      add\n      0x00\n      keccak256\n        /* \"contracts/crowdFunding.sol\":2153:2181  intToCampaign[_idx].donation */\n      0x08\n      add\n        /* \"contracts/crowdFunding.sol\":2116:2182  return (intToCampaign[_idx].donators,intToCampaign[_idx].donation) */\n      dup2\n      dup1\n      sload\n      dup1\n      0x20\n      mul\n      0x20\n      add\n      mload(0x40)\n      swap1\n      dup2\n      add\n      0x40\n      mstore\n      dup1\n      swap3\n      swap2\n      swap1\n      dup2\n      dup2\n      mstore\n      0x20\n      add\n      dup3\n      dup1\n      sload\n      dup1\n      iszero\n      tag_124\n      jumpi\n      0x20\n      mul\n      dup3\n      add\n      swap2\n      swap1\n      0x00\n      mstore\n      keccak256(0x00, 0x20)\n      swap1\n    tag_125:\n      dup2\n      0x00\n      swap1\n      sload\n      swap1\n      0x0100\n      exp\n      swap1\n      div\n      0xffffffffffffffffffffffffffffffffffffffff\n      and\n      0xffffffffffffffffffffffffffffffffffffffff\n      and\n      dup2\n      mstore\n      0x20\n      add\n      swap1\n      0x01\n      add\n      swap1\n      dup1\n      dup4\n      gt\n      tag_125\n      jumpi\n    tag_124:\n      pop\n      pop\n      pop\n      pop\n      pop\n      swap2\n      pop\n      dup1\n      dup1\n      sload\n      dup1\n      0x20\n      mul\n      0x20\n      add\n      mload(0x40)\n      swap1\n      dup2\n      add\n      0x40\n      mstore\n      dup1\n      swap3\n      swap2\n      swap1\n      dup2\n      dup2\n      mstore\n      0x20\n      add\n      dup3\n      dup1\n      sload\n      dup1\n      iszero\n      tag_126\n      jumpi\n      0x20\n      mul\n      dup3\n      add\n      swap2\n      swap1\n      0x00\n      mstore\n      keccak256(0x00, 0x20)\n      swap1\n    tag_127:\n      dup2\n      sload\n      dup2\n      mstore\n      0x20\n      add\n      swap1\n      0x01\n      add\n      swap1\n      dup1\n      dup4\n      gt\n      tag_127\n      jumpi\n    tag_126:\n      pop\n      pop\n      pop\n      pop\n      pop\n      swap1\n      pop\n      swap2\n      pop\n      swap2\n      pop\n        /* \"contracts/crowdFunding.sol\":2012:2190  function getAllDonators(uint256 _idx) public view returns(address[] memory, uint256[] memory){... */\n      swap2\n      pop\n      swap2\n      jump\t// out\n    tag_75:\n      mload(0x40)\n      dup1\n      0x0120\n      add\n      0x40\n      mstore\n      dup1\n      0x60\n      dup2\n      mstore\n      0x20\n      add\n      0x60\n      dup2\n      mstore\n      0x20\n      add\n      0x60\n      dup2\n      mstore\n      0x20\n      add\n      0x00\n      dup2\n      mstore\n      0x20\n      add\n      0x00\n      dup2\n      mstore\n      0x20\n      add\n      0x00\n      dup2\n      mstore\n      0x20\n      add\n      and(0xffffffffffffffffffffffffffffffffffffffff, 0x00)\n      dup2\n      mstore\n      0x20\n      add\n      0x60\n      dup2\n      mstore\n      0x20\n      add\n      0x60\n      dup2\n      mstore\n      pop\n      swap1\n      jump\t// out\n        /* \"#utility.yul\":7:82   */\n    tag_128:\n        /* \"#utility.yul\":40:46   */\n      0x00\n        /* \"#utility.yul\":73:75   */\n      0x40\n        /* \"#utility.yul\":67:76   */\n      mload\n        /* \"#utility.yul\":57:76   */\n      swap1\n      pop\n        /* \"#utility.yul\":7:82   */\n      swap1\n      jump\t// out\n        /* \"#utility.yul\":88:205   */\n    tag_129:\n        /* \"#utility.yul\":197:198   */\n      0x00\n        /* \"#utility.yul\":194:195   */\n      dup1\n        /* \"#utility.yul\":187:199   */\n      revert\n        /* \"#utility.yul\":211:328   */\n    tag_130:\n        /* \"#utility.yul\":320:321   */\n      0x00\n        /* \"#utility.yul\":317:318   */\n      dup1\n        /* \"#utility.yul\":310:322   */\n      revert\n        /* \"#utility.yul\":334:411   */\n    tag_131:\n        /* \"#utility.yul\":371:378   */\n      0x00\n        /* \"#utility.yul\":400:405   */\n      dup2\n        /* \"#utility.yul\":389:405   */\n      swap1\n      pop\n        /* \"#utility.yul\":334:411   */\n      swap2\n      swap1\n      pop\n      jump\t// out\n        /* \"#utility.yul\":417:539   */\n    tag_132:\n        /* \"#utility.yul\":490:514   */\n      tag_210\n        /* \"#utility.yul\":508:513   */\n      dup2\n        /* \"#utility.yul\":490:514   */\n      tag_131\n      jump\t// in\n    tag_210:\n        /* \"#utility.yul\":483:488   */\n      dup2\n        /* \"#utility.yul\":480:515   */\n      eq\n        /* \"#utility.yul\":470:533   */\n      tag_211\n      jumpi\n        /* \"#utility.yul\":529:530   */\n      0x00\n        /* \"#utility.yul\":526:527   */\n      dup1\n        /* \"#utility.yul\":519:531   */\n      revert\n        /* \"#utility.yul\":470:533   */\n    tag_211:\n        /* \"#utility.yul\":417:539   */\n      pop\n      jump\t// out\n        /* \"#utility.yul\":545:684   */\n    tag_133:\n        /* \"#utility.yul\":591:596   */\n      0x00\n        /* \"#utility.yul\":629:635   */\n      dup2\n        /* \"#utility.yul\":616:636   */\n      calldataload\n        /* \"#utility.yul\":607:636   */\n      swap1\n      pop\n        /* \"#utility.yul\":645:678   */\n      tag_213\n        /* \"#utility.yul\":672:677   */\n      dup2\n        /* \"#utility.yul\":645:678   */\n      tag_132\n      jump\t// in\n    tag_213:\n        /* \"#utility.yul\":545:684   */\n      swap3\n      swap2\n      pop\n      pop\n      jump\t// out\n        /* \"#utility.yul\":690:1019   */\n    tag_13:\n        /* \"#utility.yul\":749:755   */\n      0x00\n        /* \"#utility.yul\":798:800   */\n      0x20\n        /* \"#utility.yul\":786:795   */\n      dup3\n        /* \"#utility.yul\":777:784   */\n      dup5\n        /* \"#utility.yul\":773:796   */\n      sub\n        /* \"#utility.yul\":769:801   */\n      slt\n        /* \"#utility.yul\":766:885   */\n      iszero\n      tag_215\n      jumpi\n        /* \"#utility.yul\":804:883   */\n      tag_216\n      tag_129\n      jump\t// in\n    tag_216:\n        /* \"#utility.yul\":766:885   */\n    tag_215:\n        /* \"#utility.yul\":924:925   */\n      0x00\n        /* \"#utility.yul\":949:1002   */\n      tag_217\n        /* \"#utility.yul\":994:1001   */\n      dup5\n        /* \"#utility.yul\":985:991   */\n      dup3\n        /* \"#utility.yul\":974:983   */\n      dup6\n        /* \"#utility.yul\":970:992   */\n      add\n        /* \"#utility.yul\":949:1002   */\n      tag_133\n      jump\t// in\n    tag_217:\n        /* \"#utility.yul\":939:1002   */\n      swap2\n      pop\n        /* \"#utility.yul\":895:1012   */\n      pop\n        /* \"#utility.yul\":690:1019   */\n      swap3\n      swap2\n      pop\n      pop\n      jump\t// out\n        /* \"#utility.yul\":1025:1142   */\n    tag_134:\n        /* \"#utility.yul\":1134:1135   */\n      0x00\n        /* \"#utility.yul\":1131:1132   */\n      dup1\n        /* \"#utility.yul\":1124:1136   */\n      revert\n        /* \"#utility.yul\":1148:1265   */\n    tag_135:\n        /* \"#utility.yul\":1257:1258   */\n      0x00\n        /* \"#utility.yul\":1254:1255   */\n      dup1\n        /* \"#utility.yul\":1247:1259   */\n      revert\n        /* \"#utility.yul\":1271:1373   */\n    tag_136:\n        /* \"#utility.yul\":1312:1318   */\n      0x00\n        /* \"#utility.yul\":1363:1365   */\n      0x1f\n        /* \"#utility.yul\":1359:1366   */\n      not\n        /* \"#utility.yul\":1354:1356   */\n      0x1f\n        /* \"#utility.yul\":1347:1352   */\n      dup4\n        /* \"#utility.yul\":1343:1357   */\n      add\n        /* \"#utility.yul\":1339:1367   */\n      and\n        /* \"#utility.yul\":1329:1367   */\n      swap1\n      pop\n        /* \"#utility.yul\":1271:1373   */\n      swap2\n      swap1\n      pop\n      jump\t// out\n        /* \"#utility.yul\":1379:1559   */\n    tag_71:\n        /* \"#utility.yul\":1427:1504   */\n      0x4e487b7100000000000000000000000000000000000000000000000000000000\n        /* \"#utility.yul\":1424:1425   */\n      0x00\n        /* \"#utility.yul\":1417:1505   */\n      mstore\n        /* \"#utility.yul\":1524:1528   */\n      0x41\n        /* \"#utility.yul\":1521:1522   */\n      0x04\n        /* \"#utility.yul\":1514:1529   */\n      mstore\n        /* \"#utility.yul\":1548:1552   */\n      0x24\n        /* \"#utility.yul\":1545:1546   */\n      0x00\n        /* \"#utility.yul\":1538:1553   */\n      revert\n        /* \"#utility.yul\":1565:1846   */\n    tag_137:\n        /* \"#utility.yul\":1648:1675   */\n      tag_223\n        /* \"#utility.yul\":1670:1674   */\n      dup3\n        /* \"#utility.yul\":1648:1675   */\n      tag_136\n      jump\t// in\n    tag_223:\n        /* \"#utility.yul\":1640:1646   */\n      dup2\n        /* \"#utility.yul\":1636:1676   */\n      add\n        /* \"#utility.yul\":1778:1784   */\n      dup2\n        /* \"#utility.yul\":1766:1776   */\n      dup2\n        /* \"#utility.yul\":1763:1785   */\n      lt\n        /* \"#utility.yul\":1742:1760   */\n      0xffffffffffffffff\n        /* \"#utility.yul\":1730:1740   */\n      dup3\n        /* \"#utility.yul\":1727:1761   */\n      gt\n        /* \"#utility.yul\":1724:1786   */\n      or\n        /* \"#utility.yul\":1721:1809   */\n      iszero\n      tag_224\n      jumpi\n        /* \"#utility.yul\":1789:1807   */\n      tag_225\n      tag_71\n      jump\t// in\n    tag_225:\n        /* \"#utility.yul\":1721:1809   */\n    tag_224:\n        /* \"#utility.yul\":1829:1839   */\n      dup1\n        /* \"#utility.yul\":1825:1827   */\n      0x40\n        /* \"#utility.yul\":1818:1840   */\n      mstore\n        /* \"#utility.yul\":1608:1846   */\n      pop\n        /* \"#utility.yul\":1565:1846   */\n      pop\n      pop\n      jump\t// out\n        /* \"#utility.yul\":1852:1981   */\n    tag_138:\n        /* \"#utility.yul\":1886:1892   */\n      0x00\n        /* \"#utility.yul\":1913:1933   */\n      tag_227\n      tag_128\n      jump\t// in\n    tag_227:\n        /* \"#utility.yul\":1903:1933   */\n      swap1\n      pop\n        /* \"#utility.yul\":1942:1975   */\n      tag_228\n        /* \"#utility.yul\":1970:1974   */\n      dup3\n        /* \"#utility.yul\":1962:1968   */\n      dup3\n        /* \"#utility.yul\":1942:1975   */\n      tag_137\n      jump\t// in\n    tag_228:\n        /* \"#utility.yul\":1852:1981   */\n      swap2\n      swap1\n      pop\n      jump\t// out\n        /* \"#utility.yul\":1987:2295   */\n    tag_139:\n        /* \"#utility.yul\":2049:2053   */\n      0x00\n        /* \"#utility.yul\":2139:2157   */\n      0xffffffffffffffff\n        /* \"#utility.yul\":2131:2137   */\n      dup3\n        /* \"#utility.yul\":2128:2158   */\n      gt\n        /* \"#utility.yul\":2125:2181   */\n      iszero\n      tag_230\n      jumpi\n        /* \"#utility.yul\":2161:2179   */\n      tag_231\n      tag_71\n      jump\t// in\n    tag_231:\n        /* \"#utility.yul\":2125:2181   */\n    tag_230:\n        /* \"#utility.yul\":2199:2228   */\n      tag_232\n        /* \"#utility.yul\":2221:2227   */\n      dup3\n        /* \"#utility.yul\":2199:2228   */\n      tag_136\n      jump\t// in\n    tag_232:\n        /* \"#utility.yul\":2191:2228   */\n      swap1\n      pop\n        /* \"#utility.yul\":2283:2287   */\n      0x20\n        /* \"#utility.yul\":2277:2281   */\n      dup2\n        /* \"#utility.yul\":2273:2288   */\n      add\n        /* \"#utility.yul\":2265:2288   */\n      swap1\n      pop\n        /* \"#utility.yul\":1987:2295   */\n      swap2\n      swap1\n      pop\n      jump\t// out\n        /* \"#utility.yul\":2301:2449   */\n    tag_140:\n        /* \"#utility.yul\":2399:2405   */\n      dup3\n        /* \"#utility.yul\":2394:2397   */\n      dup2\n        /* \"#utility.yul\":2389:2392   */\n      dup4\n        /* \"#utility.yul\":2376:2406   */\n      calldatacopy\n        /* \"#utility.yul\":2440:2441   */\n      0x00\n        /* \"#utility.yul\":2431:2437   */\n      dup4\n        /* \"#utility.yul\":2426:2429   */\n      dup4\n        /* \"#utility.yul\":2422:2438   */\n      add\n        /* \"#utility.yul\":2415:2442   */\n      mstore\n        /* \"#utility.yul\":2301:2449   */\n      pop\n      pop\n      pop\n      jump\t// out\n        /* \"#utility.yul\":2455:2880   */\n    tag_141:\n        /* \"#utility.yul\":2533:2538   */\n      0x00\n        /* \"#utility.yul\":2558:2624   */\n      tag_235\n        /* \"#utility.yul\":2574:2623   */\n      tag_236\n        /* \"#utility.yul\":2616:2622   */\n      dup5\n        /* \"#utility.yul\":2574:2623   */\n      tag_139\n      jump\t// in\n    tag_236:\n        /* \"#utility.yul\":2558:2624   */\n      tag_138\n      jump\t// in\n    tag_235:\n        /* \"#utility.yul\":2549:2624   */\n      swap1\n      pop\n        /* \"#utility.yul\":2647:2653   */\n      dup3\n        /* \"#utility.yul\":2640:2645   */\n      dup2\n        /* \"#utility.yul\":2633:2654   */\n      mstore\n        /* \"#utility.yul\":2685:2689   */\n      0x20\n        /* \"#utility.yul\":2678:2683   */\n      dup2\n        /* \"#utility.yul\":2674:2690   */\n      add\n        /* \"#utility.yul\":2723:2726   */\n      dup5\n        /* \"#utility.yul\":2714:2720   */\n      dup5\n        /* \"#utility.yul\":2709:2712   */\n      dup5\n        /* \"#utility.yul\":2705:2721   */\n      add\n        /* \"#utility.yul\":2702:2727   */\n      gt\n        /* \"#utility.yul\":2699:2811   */\n      iszero\n      tag_237\n      jumpi\n        /* \"#utility.yul\":2730:2809   */\n      tag_238\n      tag_135\n      jump\t// in\n    tag_238:\n        /* \"#utility.yul\":2699:2811   */\n    tag_237:\n        /* \"#utility.yul\":2820:2874   */\n      tag_239\n        /* \"#utility.yul\":2867:2873   */\n      dup5\n        /* \"#utility.yul\":2862:2865   */\n      dup3\n        /* \"#utility.yul\":2857:2860   */\n      dup6\n        /* \"#utility.yul\":2820:2874   */\n      tag_140\n      jump\t// in\n    tag_239:\n        /* \"#utility.yul\":2539:2880   */\n      pop\n        /* \"#utility.yul\":2455:2880   */\n      swap4\n      swap3\n      pop\n      pop\n      pop\n      jump\t// out\n        /* \"#utility.yul\":2900:3240   */\n    tag_142:\n        /* \"#utility.yul\":2956:2961   */\n      0x00\n        /* \"#utility.yul\":3005:3008   */\n      dup3\n        /* \"#utility.yul\":2998:3002   */\n      0x1f\n        /* \"#utility.yul\":2990:2996   */\n      dup4\n        /* \"#utility.yul\":2986:3003   */\n      add\n        /* \"#utility.yul\":2982:3009   */\n      slt\n        /* \"#utility.yul\":2972:3094   */\n      tag_241\n      jumpi\n        /* \"#utility.yul\":3013:3092   */\n      tag_242\n      tag_134\n      jump\t// in\n    tag_242:\n        /* \"#utility.yul\":2972:3094   */\n    tag_241:\n        /* \"#utility.yul\":3130:3136   */\n      dup2\n        /* \"#utility.yul\":3117:3137   */\n      calldataload\n        /* \"#utility.yul\":3155:3234   */\n      tag_243\n        /* \"#utility.yul\":3230:3233   */\n      dup5\n        /* \"#utility.yul\":3222:3228   */\n      dup3\n        /* \"#utility.yul\":3215:3219   */\n      0x20\n        /* \"#utility.yul\":3207:3213   */\n      dup7\n        /* \"#utility.yul\":3203:3220   */\n      add\n        /* \"#utility.yul\":3155:3234   */\n      tag_141\n      jump\t// in\n    tag_243:\n        /* \"#utility.yul\":3146:3234   */\n      swap2\n      pop\n        /* \"#utility.yul\":2962:3240   */\n      pop\n        /* \"#utility.yul\":2900:3240   */\n      swap3\n      swap2\n      pop\n      pop\n      jump\t// out\n        /* \"#utility.yul\":3246:3372   */\n    tag_143:\n        /* \"#utility.yul\":3283:3290   */\n      0x00\n        /* \"#utility.yul\":3323:3365   */\n      0xffffffffffffffffffffffffffffffffffffffff\n        /* \"#utility.yul\":3316:3321   */\n      dup3\n        /* \"#utility.yul\":3312:3366   */\n      and\n        /* \"#utility.yul\":3301:3366   */\n      swap1\n      pop\n        /* \"#utility.yul\":3246:3372   */\n      swap2\n      swap1\n      pop\n      jump\t// out\n        /* \"#utility.yul\":3378:3474   */\n    tag_144:\n        /* \"#utility.yul\":3415:3422   */\n      0x00\n        /* \"#utility.yul\":3444:3468   */\n      tag_246\n        /* \"#utility.yul\":3462:3467   */\n      dup3\n        /* \"#utility.yul\":3444:3468   */\n      tag_143\n      jump\t// in\n    tag_246:\n        /* \"#utility.yul\":3433:3468   */\n      swap1\n      pop\n        /* \"#utility.yul\":3378:3474   */\n      swap2\n      swap1\n      pop\n      jump\t// out\n        /* \"#utility.yul\":3480:3602   */\n    tag_145:\n        /* \"#utility.yul\":3553:3577   */\n      tag_248\n        /* \"#utility.yul\":3571:3576   */\n      dup2\n        /* \"#utility.yul\":3553:3577   */\n      tag_144\n      jump\t// in\n    tag_248:\n        /* \"#utility.yul\":3546:3551   */\n      dup2\n        /* \"#utility.yul\":3543:3578   */\n      eq\n        /* \"#utility.yul\":3533:3596   */\n      tag_249\n      jumpi\n        /* \"#utility.yul\":3592:3593   */\n      0x00\n        /* \"#utility.yul\":3589:3590   */\n      dup1\n        /* \"#utility.yul\":3582:3594   */\n      revert\n        /* \"#utility.yul\":3533:3596   */\n    tag_249:\n        /* \"#utility.yul\":3480:3602   */\n      pop\n      jump\t// out\n        /* \"#utility.yul\":3608:3747   */\n    tag_146:\n        /* \"#utility.yul\":3654:3659   */\n      0x00\n        /* \"#utility.yul\":3692:3698   */\n      dup2\n        /* \"#utility.yul\":3679:3699   */\n      calldataload\n        /* \"#utility.yul\":3670:3699   */\n      swap1\n      pop\n        /* \"#utility.yul\":3708:3741   */\n      tag_251\n        /* \"#utility.yul\":3735:3740   */\n      dup2\n        /* \"#utility.yul\":3708:3741   */\n      tag_145\n      jump\t// in\n    tag_251:\n        /* \"#utility.yul\":3608:3747   */\n      swap3\n      swap2\n      pop\n      pop\n      jump\t// out\n        /* \"#utility.yul\":3753:5204   */\n    tag_18:\n        /* \"#utility.yul\":3878:3884   */\n      0x00\n        /* \"#utility.yul\":3886:3892   */\n      dup1\n        /* \"#utility.yul\":3894:3900   */\n      0x00\n        /* \"#utility.yul\":3902:3908   */\n      dup1\n        /* \"#utility.yul\":3910:3916   */\n      0x00\n        /* \"#utility.yul\":3959:3962   */\n      0xa0\n        /* \"#utility.yul\":3947:3956   */\n      dup7\n        /* \"#utility.yul\":3938:3945   */\n      dup9\n        /* \"#utility.yul\":3934:3957   */\n      sub\n        /* \"#utility.yul\":3930:3963   */\n      slt\n        /* \"#utility.yul\":3927:4047   */\n      iszero\n      tag_253\n      jumpi\n        /* \"#utility.yul\":3966:4045   */\n      tag_254\n      tag_129\n      jump\t// in\n    tag_254:\n        /* \"#utility.yul\":3927:4047   */\n    tag_253:\n        /* \"#utility.yul\":4114:4115   */\n      0x00\n        /* \"#utility.yul\":4103:4112   */\n      dup7\n        /* \"#utility.yul\":4099:4116   */\n      add\n        /* \"#utility.yul\":4086:4117   */\n      calldataload\n        /* \"#utility.yul\":4144:4162   */\n      0xffffffffffffffff\n        /* \"#utility.yul\":4136:4142   */\n      dup2\n        /* \"#utility.yul\":4133:4163   */\n      gt\n        /* \"#utility.yul\":4130:4247   */\n      iszero\n      tag_255\n      jumpi\n        /* \"#utility.yul\":4166:4245   */\n      tag_256\n      tag_130\n      jump\t// in\n    tag_256:\n        /* \"#utility.yul\":4130:4247   */\n    tag_255:\n        /* \"#utility.yul\":4271:4334   */\n      tag_257\n        /* \"#utility.yul\":4326:4333   */\n      dup9\n        /* \"#utility.yul\":4317:4323   */\n      dup3\n        /* \"#utility.yul\":4306:4315   */\n      dup10\n        /* \"#utility.yul\":4302:4324   */\n      add\n        /* \"#utility.yul\":4271:4334   */\n      tag_142\n      jump\t// in\n    tag_257:\n        /* \"#utility.yul\":4261:4334   */\n      swap6\n      pop\n        /* \"#utility.yul\":4057:4344   */\n      pop\n        /* \"#utility.yul\":4411:4413   */\n      0x20\n        /* \"#utility.yul\":4400:4409   */\n      dup7\n        /* \"#utility.yul\":4396:4414   */\n      add\n        /* \"#utility.yul\":4383:4415   */\n      calldataload\n        /* \"#utility.yul\":4442:4460   */\n      0xffffffffffffffff\n        /* \"#utility.yul\":4434:4440   */\n      dup2\n        /* \"#utility.yul\":4431:4461   */\n      gt\n        /* \"#utility.yul\":4428:4545   */\n      iszero\n      tag_258\n      jumpi\n        /* \"#utility.yul\":4464:4543   */\n      tag_259\n      tag_130\n      jump\t// in\n    tag_259:\n        /* \"#utility.yul\":4428:4545   */\n    tag_258:\n        /* \"#utility.yul\":4569:4632   */\n      tag_260\n        /* \"#utility.yul\":4624:4631   */\n      dup9\n        /* \"#utility.yul\":4615:4621   */\n      dup3\n        /* \"#utility.yul\":4604:4613   */\n      dup10\n        /* \"#utility.yul\":4600:4622   */\n      add\n        /* \"#utility.yul\":4569:4632   */\n      tag_142\n      jump\t// in\n    tag_260:\n        /* \"#utility.yul\":4559:4632   */\n      swap5\n      pop\n        /* \"#utility.yul\":4354:4642   */\n      pop\n        /* \"#utility.yul\":4709:4711   */\n      0x40\n        /* \"#utility.yul\":4698:4707   */\n      dup7\n        /* \"#utility.yul\":4694:4712   */\n      add\n        /* \"#utility.yul\":4681:4713   */\n      calldataload\n        /* \"#utility.yul\":4740:4758   */\n      0xffffffffffffffff\n        /* \"#utility.yul\":4732:4738   */\n      dup2\n        /* \"#utility.yul\":4729:4759   */\n      gt\n        /* \"#utility.yul\":4726:4843   */\n      iszero\n      tag_261\n      jumpi\n        /* \"#utility.yul\":4762:4841   */\n      tag_262\n      tag_130\n      jump\t// in\n    tag_262:\n        /* \"#utility.yul\":4726:4843   */\n    tag_261:\n        /* \"#utility.yul\":4867:4930   */\n      tag_263\n        /* \"#utility.yul\":4922:4929   */\n      dup9\n        /* \"#utility.yul\":4913:4919   */\n      dup3\n        /* \"#utility.yul\":4902:4911   */\n      dup10\n        /* \"#utility.yul\":4898:4920   */\n      add\n        /* \"#utility.yul\":4867:4930   */\n      tag_142\n      jump\t// in\n    tag_263:\n        /* \"#utility.yul\":4857:4930   */\n      swap4\n      pop\n        /* \"#utility.yul\":4652:4940   */\n      pop\n        /* \"#utility.yul\":4979:4981   */\n      0x60\n        /* \"#utility.yul\":5005:5058   */\n      tag_264\n        /* \"#utility.yul\":5050:5057   */\n      dup9\n        /* \"#utility.yul\":5041:5047   */\n      dup3\n        /* \"#utility.yul\":5030:5039   */\n      dup10\n        /* \"#utility.yul\":5026:5048   */\n      add\n        /* \"#utility.yul\":5005:5058   */\n      tag_133\n      jump\t// in\n    tag_264:\n        /* \"#utility.yul\":4995:5058   */\n      swap3\n      pop\n        /* \"#utility.yul\":4950:5068   */\n      pop\n        /* \"#utility.yul\":5107:5110   */\n      0x80\n        /* \"#utility.yul\":5134:5187   */\n      tag_265\n        /* \"#utility.yul\":5179:5186   */\n      dup9\n        /* \"#utility.yul\":5170:5176   */\n      dup3\n        /* \"#utility.yul\":5159:5168   */\n      dup10\n        /* \"#utility.yul\":5155:5177   */\n      add\n        /* \"#utility.yul\":5134:5187   */\n      tag_146\n      jump\t// in\n    tag_265:\n        /* \"#utility.yul\":5124:5187   */\n      swap2\n      pop\n        /* \"#utility.yul\":5078:5197   */\n      pop\n        /* \"#utility.yul\":3753:5204   */\n      swap3\n      swap6\n      pop\n      swap3\n      swap6\n      swap1\n      swap4\n      pop\n      jump\t// out\n        /* \"#utility.yul\":5210:5328   */\n    tag_147:\n        /* \"#utility.yul\":5297:5321   */\n      tag_267\n        /* \"#utility.yul\":5315:5320   */\n      dup2\n        /* \"#utility.yul\":5297:5321   */\n      tag_131\n      jump\t// in\n    tag_267:\n        /* \"#utility.yul\":5292:5295   */\n      dup3\n        /* \"#utility.yul\":5285:5322   */\n      mstore\n        /* \"#utility.yul\":5210:5328   */\n      pop\n      pop\n      jump\t// out\n        /* \"#utility.yul\":5334:5556   */\n    tag_21:\n        /* \"#utility.yul\":5427:5431   */\n      0x00\n        /* \"#utility.yul\":5465:5467   */\n      0x20\n        /* \"#utility.yul\":5454:5463   */\n      dup3\n        /* \"#utility.yul\":5450:5468   */\n      add\n        /* \"#utility.yul\":5442:5468   */\n      swap1\n      pop\n        /* \"#utility.yul\":5478:5549   */\n      tag_269\n        /* \"#utility.yul\":5546:5547   */\n      0x00\n        /* \"#utility.yul\":5535:5544   */\n      dup4\n        /* \"#utility.yul\":5531:5548   */\n      add\n        /* \"#utility.yul\":5522:5528   */\n      dup5\n        /* \"#utility.yul\":5478:5549   */\n      tag_147\n      jump\t// in\n    tag_269:\n        /* \"#utility.yul\":5334:5556   */\n      swap3\n      swap2\n      pop\n      pop\n      jump\t// out\n        /* \"#utility.yul\":5562:5700   */\n    tag_148:\n        /* \"#utility.yul\":5653:5659   */\n      0x00\n        /* \"#utility.yul\":5687:5692   */\n      dup2\n        /* \"#utility.yul\":5681:5693   */\n      mload\n        /* \"#utility.yul\":5671:5693   */\n      swap1\n      pop\n        /* \"#utility.yul\":5562:5700   */\n      swap2\n      swap1\n      pop\n      jump\t// out\n        /* \"#utility.yul\":5706:5914   */\n    tag_149:\n        /* \"#utility.yul\":5829:5840   */\n      0x00\n        /* \"#utility.yul\":5863:5869   */\n      dup3\n        /* \"#utility.yul\":5858:5861   */\n      dup3\n        /* \"#utility.yul\":5851:5870   */\n      mstore\n        /* \"#utility.yul\":5903:5907   */\n      0x20\n        /* \"#utility.yul\":5898:5901   */\n      dup3\n        /* \"#utility.yul\":5894:5908   */\n      add\n        /* \"#utility.yul\":5879:5908   */\n      swap1\n      pop\n        /* \"#utility.yul\":5706:5914   */\n      swap3\n      swap2\n      pop\n      pop\n      jump\t// out\n        /* \"#utility.yul\":5920:6076   */\n    tag_150:\n        /* \"#utility.yul\":6011:6015   */\n      0x00\n        /* \"#utility.yul\":6034:6037   */\n      dup2\n        /* \"#utility.yul\":6026:6037   */\n      swap1\n      pop\n        /* \"#utility.yul\":6064:6068   */\n      0x20\n        /* \"#utility.yul\":6059:6062   */\n      dup3\n        /* \"#utility.yul\":6055:6069   */\n      add\n        /* \"#utility.yul\":6047:6069   */\n      swap1\n      pop\n        /* \"#utility.yul\":5920:6076   */\n      swap2\n      swap1\n      pop\n      jump\t// out\n        /* \"#utility.yul\":6082:6181   */\n    tag_151:\n        /* \"#utility.yul\":6134:6140   */\n      0x00\n        /* \"#utility.yul\":6168:6173   */\n      dup2\n        /* \"#utility.yul\":6162:6174   */\n      mload\n        /* \"#utility.yul\":6152:6174   */\n      swap1\n      pop\n        /* \"#utility.yul\":6082:6181   */\n      swap2\n      swap1\n      pop\n      jump\t// out\n        /* \"#utility.yul\":6187:6346   */\n    tag_152:\n        /* \"#utility.yul\":6261:6272   */\n      0x00\n        /* \"#utility.yul\":6295:6301   */\n      dup3\n        /* \"#utility.yul\":6290:6293   */\n      dup3\n        /* \"#utility.yul\":6283:6302   */\n      mstore\n        /* \"#utility.yul\":6335:6339   */\n      0x20\n        /* \"#utility.yul\":6330:6333   */\n      dup3\n        /* \"#utility.yul\":6326:6340   */\n      add\n        /* \"#utility.yul\":6311:6340   */\n      swap1\n      pop\n        /* \"#utility.yul\":6187:6346   */\n      swap3\n      swap2\n      pop\n      pop\n      jump\t// out\n        /* \"#utility.yul\":6352:6491   */\n    tag_153:\n        /* \"#utility.yul\":6441:6447   */\n      dup3\n        /* \"#utility.yul\":6436:6439   */\n      dup2\n        /* \"#utility.yul\":6431:6434   */\n      dup4\n        /* \"#utility.yul\":6425:6448   */\n      mcopy\n        /* \"#utility.yul\":6482:6483   */\n      0x00\n        /* \"#utility.yul\":6473:6479   */\n      dup4\n        /* \"#utility.yul\":6468:6471   */\n      dup4\n        /* \"#utility.yul\":6464:6480   */\n      add\n        /* \"#utility.yul\":6457:6484   */\n      mstore\n        /* \"#utility.yul\":6352:6491   */\n      pop\n      pop\n      pop\n      jump\t// out\n        /* \"#utility.yul\":6497:6854   */\n    tag_154:\n        /* \"#utility.yul\":6575:6578   */\n      0x00\n        /* \"#utility.yul\":6603:6642   */\n      tag_277\n        /* \"#utility.yul\":6636:6641   */\n      dup3\n        /* \"#utility.yul\":6603:6642   */\n      tag_151\n      jump\t// in\n    tag_277:\n        /* \"#utility.yul\":6658:6719   */\n      tag_278\n        /* \"#utility.yul\":6712:6718   */\n      dup2\n        /* \"#utility.yul\":6707:6710   */\n      dup6\n        /* \"#utility.yul\":6658:6719   */\n      tag_152\n      jump\t// in\n    tag_278:\n        /* \"#utility.yul\":6651:6719   */\n      swap4\n      pop\n        /* \"#utility.yul\":6728:6793   */\n      tag_279\n        /* \"#utility.yul\":6786:6792   */\n      dup2\n        /* \"#utility.yul\":6781:6784   */\n      dup6\n        /* \"#utility.yul\":6774:6778   */\n      0x20\n        /* \"#utility.yul\":6767:6772   */\n      dup7\n        /* \"#utility.yul\":6763:6779   */\n      add\n        /* \"#utility.yul\":6728:6793   */\n      tag_153\n      jump\t// in\n    tag_279:\n        /* \"#utility.yul\":6818:6847   */\n      tag_280\n        /* \"#utility.yul\":6840:6846   */\n      dup2\n        /* \"#utility.yul\":6818:6847   */\n      tag_136\n      jump\t// in\n    tag_280:\n        /* \"#utility.yul\":6813:6816   */\n      dup5\n        /* \"#utility.yul\":6809:6848   */\n      add\n        /* \"#utility.yul\":6802:6848   */\n      swap2\n      pop\n        /* \"#utility.yul\":6579:6854   */\n      pop\n        /* \"#utility.yul\":6497:6854   */\n      swap3\n      swap2\n      pop\n      pop\n      jump\t// out\n        /* \"#utility.yul\":6860:6968   */\n    tag_155:\n        /* \"#utility.yul\":6937:6961   */\n      tag_282\n        /* \"#utility.yul\":6955:6960   */\n      dup2\n        /* \"#utility.yul\":6937:6961   */\n      tag_131\n      jump\t// in\n    tag_282:\n        /* \"#utility.yul\":6932:6935   */\n      dup3\n        /* \"#utility.yul\":6925:6962   */\n      mstore\n        /* \"#utility.yul\":6860:6968   */\n      pop\n      pop\n      jump\t// out\n        /* \"#utility.yul\":6974:7082   */\n    tag_156:\n        /* \"#utility.yul\":7051:7075   */\n      tag_284\n        /* \"#utility.yul\":7069:7074   */\n      dup2\n        /* \"#utility.yul\":7051:7075   */\n      tag_144\n      jump\t// in\n    tag_284:\n        /* \"#utility.yul\":7046:7049   */\n      dup3\n        /* \"#utility.yul\":7039:7076   */\n      mstore\n        /* \"#utility.yul\":6974:7082   */\n      pop\n      pop\n      jump\t// out\n        /* \"#utility.yul\":7088:7202   */\n    tag_157:\n        /* \"#utility.yul\":7155:7161   */\n      0x00\n        /* \"#utility.yul\":7189:7194   */\n      dup2\n        /* \"#utility.yul\":7183:7195   */\n      mload\n        /* \"#utility.yul\":7173:7195   */\n      swap1\n      pop\n        /* \"#utility.yul\":7088:7202   */\n      swap2\n      swap1\n      pop\n      jump\t// out\n        /* \"#utility.yul\":7208:7382   */\n    tag_158:\n        /* \"#utility.yul\":7297:7308   */\n      0x00\n        /* \"#utility.yul\":7331:7337   */\n      dup3\n        /* \"#utility.yul\":7326:7329   */\n      dup3\n        /* \"#utility.yul\":7319:7338   */\n      mstore\n        /* \"#utility.yul\":7371:7375   */\n      0x20\n        /* \"#utility.yul\":7366:7369   */\n      dup3\n        /* \"#utility.yul\":7362:7376   */\n      add\n        /* \"#utility.yul\":7347:7376   */\n      swap1\n      pop\n        /* \"#utility.yul\":7208:7382   */\n      swap3\n      swap2\n      pop\n      pop\n      jump\t// out\n        /* \"#utility.yul\":7388:7520   */\n    tag_159:\n        /* \"#utility.yul\":7455:7459   */\n      0x00\n        /* \"#utility.yul\":7478:7481   */\n      dup2\n        /* \"#utility.yul\":7470:7481   */\n      swap1\n      pop\n        /* \"#utility.yul\":7508:7512   */\n      0x20\n        /* \"#utility.yul\":7503:7506   */\n      dup3\n        /* \"#utility.yul\":7499:7513   */\n      add\n        /* \"#utility.yul\":7491:7513   */\n      swap1\n      pop\n        /* \"#utility.yul\":7388:7520   */\n      swap2\n      swap1\n      pop\n      jump\t// out\n        /* \"#utility.yul\":7526:7705   */\n    tag_160:\n        /* \"#utility.yul\":7595:7605   */\n      0x00\n        /* \"#utility.yul\":7616:7662   */\n      tag_289\n        /* \"#utility.yul\":7658:7661   */\n      dup4\n        /* \"#utility.yul\":7650:7656   */\n      dup4\n        /* \"#utility.yul\":7616:7662   */\n      tag_156\n      jump\t// in\n    tag_289:\n        /* \"#utility.yul\":7694:7698   */\n      0x20\n        /* \"#utility.yul\":7689:7692   */\n      dup4\n        /* \"#utility.yul\":7685:7699   */\n      add\n        /* \"#utility.yul\":7671:7699   */\n      swap1\n      pop\n        /* \"#utility.yul\":7526:7705   */\n      swap3\n      swap2\n      pop\n      pop\n      jump\t// out\n        /* \"#utility.yul\":7711:7824   */\n    tag_161:\n        /* \"#utility.yul\":7781:7785   */\n      0x00\n        /* \"#utility.yul\":7813:7817   */\n      0x20\n        /* \"#utility.yul\":7808:7811   */\n      dup3\n        /* \"#utility.yul\":7804:7818   */\n      add\n        /* \"#utility.yul\":7796:7818   */\n      swap1\n      pop\n        /* \"#utility.yul\":7711:7824   */\n      swap2\n      swap1\n      pop\n      jump\t// out\n        /* \"#utility.yul\":7860:8572   */\n    tag_162:\n        /* \"#utility.yul\":7969:7972   */\n      0x00\n        /* \"#utility.yul\":7998:8052   */\n      tag_292\n        /* \"#utility.yul\":8046:8051   */\n      dup3\n        /* \"#utility.yul\":7998:8052   */\n      tag_157\n      jump\t// in\n    tag_292:\n        /* \"#utility.yul\":8068:8144   */\n      tag_293\n        /* \"#utility.yul\":8137:8143   */\n      dup2\n        /* \"#utility.yul\":8132:8135   */\n      dup6\n        /* \"#utility.yul\":8068:8144   */\n      tag_158\n      jump\t// in\n    tag_293:\n        /* \"#utility.yul\":8061:8144   */\n      swap4\n      pop\n        /* \"#utility.yul\":8168:8224   */\n      tag_294\n        /* \"#utility.yul\":8218:8223   */\n      dup4\n        /* \"#utility.yul\":8168:8224   */\n      tag_159\n      jump\t// in\n    tag_294:\n        /* \"#utility.yul\":8247:8254   */\n      dup1\n        /* \"#utility.yul\":8278:8279   */\n      0x00\n        /* \"#utility.yul\":8263:8547   */\n    tag_295:\n        /* \"#utility.yul\":8288:8294   */\n      dup4\n        /* \"#utility.yul\":8285:8286   */\n      dup2\n        /* \"#utility.yul\":8282:8295   */\n      lt\n        /* \"#utility.yul\":8263:8547   */\n      iszero\n      tag_297\n      jumpi\n        /* \"#utility.yul\":8364:8370   */\n      dup2\n        /* \"#utility.yul\":8358:8371   */\n      mload\n        /* \"#utility.yul\":8391:8454   */\n      tag_298\n        /* \"#utility.yul\":8450:8453   */\n      dup9\n        /* \"#utility.yul\":8435:8448   */\n      dup3\n        /* \"#utility.yul\":8391:8454   */\n      tag_160\n      jump\t// in\n    tag_298:\n        /* \"#utility.yul\":8384:8454   */\n      swap8\n      pop\n        /* \"#utility.yul\":8477:8537   */\n      tag_299\n        /* \"#utility.yul\":8530:8536   */\n      dup4\n        /* \"#utility.yul\":8477:8537   */\n      tag_161\n      jump\t// in\n    tag_299:\n        /* \"#utility.yul\":8467:8537   */\n      swap3\n      pop\n        /* \"#utility.yul\":8323:8547   */\n      pop\n        /* \"#utility.yul\":8310:8311   */\n      0x01\n        /* \"#utility.yul\":8307:8308   */\n      dup2\n        /* \"#utility.yul\":8303:8312   */\n      add\n        /* \"#utility.yul\":8298:8312   */\n      swap1\n      pop\n        /* \"#utility.yul\":8263:8547   */\n      jump(tag_295)\n    tag_297:\n        /* \"#utility.yul\":8267:8281   */\n      pop\n        /* \"#utility.yul\":8563:8566   */\n      dup6\n        /* \"#utility.yul\":8556:8566   */\n      swap4\n      pop\n        /* \"#utility.yul\":7974:8572   */\n      pop\n      pop\n      pop\n        /* \"#utility.yul\":7860:8572   */\n      swap3\n      swap2\n      pop\n      pop\n      jump\t// out\n        /* \"#utility.yul\":8578:8692   */\n    tag_163:\n        /* \"#utility.yul\":8645:8651   */\n      0x00\n        /* \"#utility.yul\":8679:8684   */\n      dup2\n        /* \"#utility.yul\":8673:8685   */\n      mload\n        /* \"#utility.yul\":8663:8685   */\n      swap1\n      pop\n        /* \"#utility.yul\":8578:8692   */\n      swap2\n      swap1\n      pop\n      jump\t// out\n        /* \"#utility.yul\":8698:8872   */\n    tag_164:\n        /* \"#utility.yul\":8787:8798   */\n      0x00\n        /* \"#utility.yul\":8821:8827   */\n      dup3\n        /* \"#utility.yul\":8816:8819   */\n      dup3\n        /* \"#utility.yul\":8809:8828   */\n      mstore\n        /* \"#utility.yul\":8861:8865   */\n      0x20\n        /* \"#utility.yul\":8856:8859   */\n      dup3\n        /* \"#utility.yul\":8852:8866   */\n      add\n        /* \"#utility.yul\":8837:8866   */\n      swap1\n      pop\n        /* \"#utility.yul\":8698:8872   */\n      swap3\n      swap2\n      pop\n      pop\n      jump\t// out\n        /* \"#utility.yul\":8878:9010   */\n    tag_165:\n        /* \"#utility.yul\":8945:8949   */\n      0x00\n        /* \"#utility.yul\":8968:8971   */\n      dup2\n        /* \"#utility.yul\":8960:8971   */\n      swap1\n      pop\n        /* \"#utility.yul\":8998:9002   */\n      0x20\n        /* \"#utility.yul\":8993:8996   */\n      dup3\n        /* \"#utility.yul\":8989:9003   */\n      add\n        /* \"#utility.yul\":8981:9003   */\n      swap1\n      pop\n        /* \"#utility.yul\":8878:9010   */\n      swap2\n      swap1\n      pop\n      jump\t// out\n        /* \"#utility.yul\":9016:9195   */\n    tag_166:\n        /* \"#utility.yul\":9085:9095   */\n      0x00\n        /* \"#utility.yul\":9106:9152   */\n      tag_304\n        /* \"#utility.yul\":9148:9151   */\n      dup4\n        /* \"#utility.yul\":9140:9146   */\n      dup4\n        /* \"#utility.yul\":9106:9152   */\n      tag_155\n      jump\t// in\n    tag_304:\n        /* \"#utility.yul\":9184:9188   */\n      0x20\n        /* \"#utility.yul\":9179:9182   */\n      dup4\n        /* \"#utility.yul\":9175:9189   */\n      add\n        /* \"#utility.yul\":9161:9189   */\n      swap1\n      pop\n        /* \"#utility.yul\":9016:9195   */\n      swap3\n      swap2\n      pop\n      pop\n      jump\t// out\n        /* \"#utility.yul\":9201:9314   */\n    tag_167:\n        /* \"#utility.yul\":9271:9275   */\n      0x00\n        /* \"#utility.yul\":9303:9307   */\n      0x20\n        /* \"#utility.yul\":9298:9301   */\n      dup3\n        /* \"#utility.yul\":9294:9308   */\n      add\n        /* \"#utility.yul\":9286:9308   */\n      swap1\n      pop\n        /* \"#utility.yul\":9201:9314   */\n      swap2\n      swap1\n      pop\n      jump\t// out\n        /* \"#utility.yul\":9350:10062   */\n    tag_168:\n        /* \"#utility.yul\":9459:9462   */\n      0x00\n        /* \"#utility.yul\":9488:9542   */\n      tag_307\n        /* \"#utility.yul\":9536:9541   */\n      dup3\n        /* \"#utility.yul\":9488:9542   */\n      tag_163\n      jump\t// in\n    tag_307:\n        /* \"#utility.yul\":9558:9634   */\n      tag_308\n        /* \"#utility.yul\":9627:9633   */\n      dup2\n        /* \"#utility.yul\":9622:9625   */\n      dup6\n        /* \"#utility.yul\":9558:9634   */\n      tag_164\n      jump\t// in\n    tag_308:\n        /* \"#utility.yul\":9551:9634   */\n      swap4\n      pop\n        /* \"#utility.yul\":9658:9714   */\n      tag_309\n        /* \"#utility.yul\":9708:9713   */\n      dup4\n        /* \"#utility.yul\":9658:9714   */\n      tag_165\n      jump\t// in\n    tag_309:\n        /* \"#utility.yul\":9737:9744   */\n      dup1\n        /* \"#utility.yul\":9768:9769   */\n      0x00\n        /* \"#utility.yul\":9753:10037   */\n    tag_310:\n        /* \"#utility.yul\":9778:9784   */\n      dup4\n        /* \"#utility.yul\":9775:9776   */\n      dup2\n        /* \"#utility.yul\":9772:9785   */\n      lt\n        /* \"#utility.yul\":9753:10037   */\n      iszero\n      tag_312\n      jumpi\n        /* \"#utility.yul\":9854:9860   */\n      dup2\n        /* \"#utility.yul\":9848:9861   */\n      mload\n        /* \"#utility.yul\":9881:9944   */\n      tag_313\n        /* \"#utility.yul\":9940:9943   */\n      dup9\n        /* \"#utility.yul\":9925:9938   */\n      dup3\n        /* \"#utility.yul\":9881:9944   */\n      tag_166\n      jump\t// in\n    tag_313:\n        /* \"#utility.yul\":9874:9944   */\n      swap8\n      pop\n        /* \"#utility.yul\":9967:10027   */\n      tag_314\n        /* \"#utility.yul\":10020:10026   */\n      dup4\n        /* \"#utility.yul\":9967:10027   */\n      tag_167\n      jump\t// in\n    tag_314:\n        /* \"#utility.yul\":9957:10027   */\n      swap3\n      pop\n        /* \"#utility.yul\":9813:10037   */\n      pop\n        /* \"#utility.yul\":9800:9801   */\n      0x01\n        /* \"#utility.yul\":9797:9798   */\n      dup2\n        /* \"#utility.yul\":9793:9802   */\n      add\n        /* \"#utility.yul\":9788:9802   */\n      swap1\n      pop\n        /* \"#utility.yul\":9753:10037   */\n      jump(tag_310)\n    tag_312:\n        /* \"#utility.yul\":9757:9771   */\n      pop\n        /* \"#utility.yul\":10053:10056   */\n      dup6\n        /* \"#utility.yul\":10046:10056   */\n      swap4\n      pop\n        /* \"#utility.yul\":9464:10062   */\n      pop\n      pop\n      pop\n        /* \"#utility.yul\":9350:10062   */\n      swap3\n      swap2\n      pop\n      pop\n      jump\t// out\n        /* \"#utility.yul\":10136:12334   */\n    tag_169:\n        /* \"#utility.yul\":10243:10246   */\n      0x00\n        /* \"#utility.yul\":10279:10285   */\n      0x0120\n        /* \"#utility.yul\":10274:10277   */\n      dup4\n        /* \"#utility.yul\":10270:10286   */\n      add\n        /* \"#utility.yul\":10368:10372   */\n      0x00\n        /* \"#utility.yul\":10361:10366   */\n      dup4\n        /* \"#utility.yul\":10357:10373   */\n      add\n        /* \"#utility.yul\":10351:10374   */\n      mload\n        /* \"#utility.yul\":10421:10424   */\n      dup5\n        /* \"#utility.yul\":10415:10419   */\n      dup3\n        /* \"#utility.yul\":10411:10425   */\n      sub\n        /* \"#utility.yul\":10404:10408   */\n      0x00\n        /* \"#utility.yul\":10399:10402   */\n      dup7\n        /* \"#utility.yul\":10395:10409   */\n      add\n        /* \"#utility.yul\":10388:10426   */\n      mstore\n        /* \"#utility.yul\":10447:10520   */\n      tag_316\n        /* \"#utility.yul\":10515:10519   */\n      dup3\n        /* \"#utility.yul\":10501:10513   */\n      dup3\n        /* \"#utility.yul\":10447:10520   */\n      tag_154\n      jump\t// in\n    tag_316:\n        /* \"#utility.yul\":10439:10520   */\n      swap2\n      pop\n        /* \"#utility.yul\":10296:10531   */\n      pop\n        /* \"#utility.yul\":10620:10624   */\n      0x20\n        /* \"#utility.yul\":10613:10618   */\n      dup4\n        /* \"#utility.yul\":10609:10625   */\n      add\n        /* \"#utility.yul\":10603:10626   */\n      mload\n        /* \"#utility.yul\":10673:10676   */\n      dup5\n        /* \"#utility.yul\":10667:10671   */\n      dup3\n        /* \"#utility.yul\":10663:10677   */\n      sub\n        /* \"#utility.yul\":10656:10660   */\n      0x20\n        /* \"#utility.yul\":10651:10654   */\n      dup7\n        /* \"#utility.yul\":10647:10661   */\n      add\n        /* \"#utility.yul\":10640:10678   */\n      mstore\n        /* \"#utility.yul\":10699:10772   */\n      tag_317\n        /* \"#utility.yul\":10767:10771   */\n      dup3\n        /* \"#utility.yul\":10753:10765   */\n      dup3\n        /* \"#utility.yul\":10699:10772   */\n      tag_154\n      jump\t// in\n    tag_317:\n        /* \"#utility.yul\":10691:10772   */\n      swap2\n      pop\n        /* \"#utility.yul\":10541:10783   */\n      pop\n        /* \"#utility.yul\":10866:10870   */\n      0x40\n        /* \"#utility.yul\":10859:10864   */\n      dup4\n        /* \"#utility.yul\":10855:10871   */\n      add\n        /* \"#utility.yul\":10849:10872   */\n      mload\n        /* \"#utility.yul\":10919:10922   */\n      dup5\n        /* \"#utility.yul\":10913:10917   */\n      dup3\n        /* \"#utility.yul\":10909:10923   */\n      sub\n        /* \"#utility.yul\":10902:10906   */\n      0x40\n        /* \"#utility.yul\":10897:10900   */\n      dup7\n        /* \"#utility.yul\":10893:10907   */\n      add\n        /* \"#utility.yul\":10886:10924   */\n      mstore\n        /* \"#utility.yul\":10945:11018   */\n      tag_318\n        /* \"#utility.yul\":11013:11017   */\n      dup3\n        /* \"#utility.yul\":10999:11011   */\n      dup3\n        /* \"#utility.yul\":10945:11018   */\n      tag_154\n      jump\t// in\n    tag_318:\n        /* \"#utility.yul\":10937:11018   */\n      swap2\n      pop\n        /* \"#utility.yul\":10793:11029   */\n      pop\n        /* \"#utility.yul\":11113:11117   */\n      0x60\n        /* \"#utility.yul\":11106:11111   */\n      dup4\n        /* \"#utility.yul\":11102:11118   */\n      add\n        /* \"#utility.yul\":11096:11119   */\n      mload\n        /* \"#utility.yul\":11132:11195   */\n      tag_319\n        /* \"#utility.yul\":11189:11193   */\n      0x60\n        /* \"#utility.yul\":11184:11187   */\n      dup7\n        /* \"#utility.yul\":11180:11194   */\n      add\n        /* \"#utility.yul\":11166:11178   */\n      dup3\n        /* \"#utility.yul\":11132:11195   */\n      tag_155\n      jump\t// in\n    tag_319:\n        /* \"#utility.yul\":11039:11205   */\n      pop\n        /* \"#utility.yul\":11294:11298   */\n      0x80\n        /* \"#utility.yul\":11287:11292   */\n      dup4\n        /* \"#utility.yul\":11283:11299   */\n      add\n        /* \"#utility.yul\":11277:11300   */\n      mload\n        /* \"#utility.yul\":11313:11376   */\n      tag_320\n        /* \"#utility.yul\":11370:11374   */\n      0x80\n        /* \"#utility.yul\":11365:11368   */\n      dup7\n        /* \"#utility.yul\":11361:11375   */\n      add\n        /* \"#utility.yul\":11347:11359   */\n      dup3\n        /* \"#utility.yul\":11313:11376   */\n      tag_155\n      jump\t// in\n    tag_320:\n        /* \"#utility.yul\":11215:11386   */\n      pop\n        /* \"#utility.yul\":11478:11482   */\n      0xa0\n        /* \"#utility.yul\":11471:11476   */\n      dup4\n        /* \"#utility.yul\":11467:11483   */\n      add\n        /* \"#utility.yul\":11461:11484   */\n      mload\n        /* \"#utility.yul\":11497:11560   */\n      tag_321\n        /* \"#utility.yul\":11554:11558   */\n      0xa0\n        /* \"#utility.yul\":11549:11552   */\n      dup7\n        /* \"#utility.yul\":11545:11559   */\n      add\n        /* \"#utility.yul\":11531:11543   */\n      dup3\n        /* \"#utility.yul\":11497:11560   */\n      tag_155\n      jump\t// in\n    tag_321:\n        /* \"#utility.yul\":11396:11570   */\n      pop\n        /* \"#utility.yul\":11653:11657   */\n      0xc0\n        /* \"#utility.yul\":11646:11651   */\n      dup4\n        /* \"#utility.yul\":11642:11658   */\n      add\n        /* \"#utility.yul\":11636:11659   */\n      mload\n        /* \"#utility.yul\":11672:11735   */\n      tag_322\n        /* \"#utility.yul\":11729:11733   */\n      0xc0\n        /* \"#utility.yul\":11724:11727   */\n      dup7\n        /* \"#utility.yul\":11720:11734   */\n      add\n        /* \"#utility.yul\":11706:11718   */\n      dup3\n        /* \"#utility.yul\":11672:11735   */\n      tag_156\n      jump\t// in\n    tag_322:\n        /* \"#utility.yul\":11580:11745   */\n      pop\n        /* \"#utility.yul\":11831:11835   */\n      0xe0\n        /* \"#utility.yul\":11824:11829   */\n      dup4\n        /* \"#utility.yul\":11820:11836   */\n      add\n        /* \"#utility.yul\":11814:11837   */\n      mload\n        /* \"#utility.yul\":11884:11887   */\n      dup5\n        /* \"#utility.yul\":11878:11882   */\n      dup3\n        /* \"#utility.yul\":11874:11888   */\n      sub\n        /* \"#utility.yul\":11867:11871   */\n      0xe0\n        /* \"#utility.yul\":11862:11865   */\n      dup7\n        /* \"#utility.yul\":11858:11872   */\n      add\n        /* \"#utility.yul\":11851:11889   */\n      mstore\n        /* \"#utility.yul\":11910:12013   */\n      tag_323\n        /* \"#utility.yul\":12008:12012   */\n      dup3\n        /* \"#utility.yul\":11994:12006   */\n      dup3\n        /* \"#utility.yul\":11910:12013   */\n      tag_162\n      jump\t// in\n    tag_323:\n        /* \"#utility.yul\":11902:12013   */\n      swap2\n      pop\n        /* \"#utility.yul\":11755:12024   */\n      pop\n        /* \"#utility.yul\":12110:12116   */\n      0x0100\n        /* \"#utility.yul\":12103:12108   */\n      dup4\n        /* \"#utility.yul\":12099:12117   */\n      add\n        /* \"#utility.yul\":12093:12118   */\n      mload\n        /* \"#utility.yul\":12167:12170   */\n      dup5\n        /* \"#utility.yul\":12161:12165   */\n      dup3\n        /* \"#utility.yul\":12157:12171   */\n      sub\n        /* \"#utility.yul\":12148:12154   */\n      0x0100\n        /* \"#utility.yul\":12143:12146   */\n      dup7\n        /* \"#utility.yul\":12139:12155   */\n      add\n        /* \"#utility.yul\":12132:12172   */\n      mstore\n        /* \"#utility.yul\":12193:12296   */\n      tag_324\n        /* \"#utility.yul\":12291:12295   */\n      dup3\n        /* \"#utility.yul\":12277:12289   */\n      dup3\n        /* \"#utility.yul\":12193:12296   */\n      tag_168\n      jump\t// in\n    tag_324:\n        /* \"#utility.yul\":12185:12296   */\n      swap2\n      pop\n        /* \"#utility.yul\":12034:12307   */\n      pop\n        /* \"#utility.yul\":12324:12328   */\n      dup1\n        /* \"#utility.yul\":12317:12328   */\n      swap2\n      pop\n        /* \"#utility.yul\":10248:12334   */\n      pop\n        /* \"#utility.yul\":10136:12334   */\n      swap3\n      swap2\n      pop\n      pop\n      jump\t// out\n        /* \"#utility.yul\":12340:12592   */\n    tag_170:\n        /* \"#utility.yul\":12457:12467   */\n      0x00\n        /* \"#utility.yul\":12492:12586   */\n      tag_326\n        /* \"#utility.yul\":12582:12585   */\n      dup4\n        /* \"#utility.yul\":12574:12580   */\n      dup4\n        /* \"#utility.yul\":12492:12586   */\n      tag_169\n      jump\t// in\n    tag_326:\n        /* \"#utility.yul\":12478:12586   */\n      swap1\n      pop\n        /* \"#utility.yul\":12340:12592   */\n      swap3\n      swap2\n      pop\n      pop\n      jump\t// out\n        /* \"#utility.yul\":12598:12735   */\n    tag_171:\n        /* \"#utility.yul\":12692:12696   */\n      0x00\n        /* \"#utility.yul\":12724:12728   */\n      0x20\n        /* \"#utility.yul\":12719:12722   */\n      dup3\n        /* \"#utility.yul\":12715:12729   */\n      add\n        /* \"#utility.yul\":12707:12729   */\n      swap1\n      pop\n        /* \"#utility.yul\":12598:12735   */\n      swap2\n      swap1\n      pop\n      jump\t// out\n        /* \"#utility.yul\":12813:13916   */\n    tag_172:\n        /* \"#utility.yul\":12980:12983   */\n      0x00\n        /* \"#utility.yul\":13009:13087   */\n      tag_329\n        /* \"#utility.yul\":13081:13086   */\n      dup3\n        /* \"#utility.yul\":13009:13087   */\n      tag_148\n      jump\t// in\n    tag_329:\n        /* \"#utility.yul\":13103:13213   */\n      tag_330\n        /* \"#utility.yul\":13206:13212   */\n      dup2\n        /* \"#utility.yul\":13201:13204   */\n      dup6\n        /* \"#utility.yul\":13103:13213   */\n      tag_149\n      jump\t// in\n    tag_330:\n        /* \"#utility.yul\":13096:13213   */\n      swap4\n      pop\n        /* \"#utility.yul\":13239:13242   */\n      dup4\n        /* \"#utility.yul\":13284:13288   */\n      0x20\n        /* \"#utility.yul\":13276:13282   */\n      dup3\n        /* \"#utility.yul\":13272:13289   */\n      mul\n        /* \"#utility.yul\":13267:13270   */\n      dup6\n        /* \"#utility.yul\":13263:13290   */\n      add\n        /* \"#utility.yul\":13314:13394   */\n      tag_331\n        /* \"#utility.yul\":13388:13393   */\n      dup6\n        /* \"#utility.yul\":13314:13394   */\n      tag_150\n      jump\t// in\n    tag_331:\n        /* \"#utility.yul\":13417:13424   */\n      dup1\n        /* \"#utility.yul\":13448:13449   */\n      0x00\n        /* \"#utility.yul\":13433:13871   */\n    tag_332:\n        /* \"#utility.yul\":13458:13464   */\n      dup6\n        /* \"#utility.yul\":13455:13456   */\n      dup2\n        /* \"#utility.yul\":13452:13465   */\n      lt\n        /* \"#utility.yul\":13433:13871   */\n      iszero\n      tag_334\n      jumpi\n        /* \"#utility.yul\":13529:13538   */\n      dup5\n        /* \"#utility.yul\":13523:13527   */\n      dup5\n        /* \"#utility.yul\":13519:13539   */\n      sub\n        /* \"#utility.yul\":13514:13517   */\n      dup10\n        /* \"#utility.yul\":13507:13540   */\n      mstore\n        /* \"#utility.yul\":13580:13586   */\n      dup2\n        /* \"#utility.yul\":13574:13587   */\n      mload\n        /* \"#utility.yul\":13608:13720   */\n      tag_335\n        /* \"#utility.yul\":13715:13719   */\n      dup6\n        /* \"#utility.yul\":13700:13713   */\n      dup3\n        /* \"#utility.yul\":13608:13720   */\n      tag_170\n      jump\t// in\n    tag_335:\n        /* \"#utility.yul\":13600:13720   */\n      swap5\n      pop\n        /* \"#utility.yul\":13743:13827   */\n      tag_336\n        /* \"#utility.yul\":13820:13826   */\n      dup4\n        /* \"#utility.yul\":13743:13827   */\n      tag_171\n      jump\t// in\n    tag_336:\n        /* \"#utility.yul\":13733:13827   */\n      swap3\n      pop\n        /* \"#utility.yul\":13856:13860   */\n      0x20\n        /* \"#utility.yul\":13851:13854   */\n      dup11\n        /* \"#utility.yul\":13847:13861   */\n      add\n        /* \"#utility.yul\":13840:13861   */\n      swap10\n      pop\n        /* \"#utility.yul\":13493:13871   */\n      pop\n        /* \"#utility.yul\":13480:13481   */\n      0x01\n        /* \"#utility.yul\":13477:13478   */\n      dup2\n        /* \"#utility.yul\":13473:13482   */\n      add\n        /* \"#utility.yul\":13468:13482   */\n      swap1\n      pop\n        /* \"#utility.yul\":13433:13871   */\n      jump(tag_332)\n    tag_334:\n        /* \"#utility.yul\":13437:13451   */\n      pop\n        /* \"#utility.yul\":13887:13891   */\n      dup3\n        /* \"#utility.yul\":13880:13891   */\n      swap8\n      pop\n        /* \"#utility.yul\":13907:13910   */\n      dup8\n        /* \"#utility.yul\":13900:13910   */\n      swap6\n      pop\n        /* \"#utility.yul\":12985:13916   */\n      pop\n      pop\n      pop\n      pop\n      pop\n        /* \"#utility.yul\":12813:13916   */\n      swap3\n      swap2\n      pop\n      pop\n      jump\t// out\n        /* \"#utility.yul\":13922:14391   */\n    tag_26:\n        /* \"#utility.yul\":14113:14117   */\n      0x00\n        /* \"#utility.yul\":14151:14153   */\n      0x20\n        /* \"#utility.yul\":14140:14149   */\n      dup3\n        /* \"#utility.yul\":14136:14154   */\n      add\n        /* \"#utility.yul\":14128:14154   */\n      swap1\n      pop\n        /* \"#utility.yul\":14200:14209   */\n      dup2\n        /* \"#utility.yul\":14194:14198   */\n      dup2\n        /* \"#utility.yul\":14190:14210   */\n      sub\n        /* \"#utility.yul\":14186:14187   */\n      0x00\n        /* \"#utility.yul\":14175:14184   */\n      dup4\n        /* \"#utility.yul\":14171:14188   */\n      add\n        /* \"#utility.yul\":14164:14211   */\n      mstore\n        /* \"#utility.yul\":14228:14384   */\n      tag_338\n        /* \"#utility.yul\":14379:14383   */\n      dup2\n        /* \"#utility.yul\":14370:14376   */\n      dup5\n        /* \"#utility.yul\":14228:14384   */\n      tag_172\n      jump\t// in\n    tag_338:\n        /* \"#utility.yul\":14220:14384   */\n      swap1\n      pop\n        /* \"#utility.yul\":13922:14391   */\n      swap3\n      swap2\n      pop\n      pop\n      jump\t// out\n        /* \"#utility.yul\":14397:14566   */\n    tag_173:\n        /* \"#utility.yul\":14481:14492   */\n      0x00\n        /* \"#utility.yul\":14515:14521   */\n      dup3\n        /* \"#utility.yul\":14510:14513   */\n      dup3\n        /* \"#utility.yul\":14503:14522   */\n      mstore\n        /* \"#utility.yul\":14555:14559   */\n      0x20\n        /* \"#utility.yul\":14550:14553   */\n      dup3\n        /* \"#utility.yul\":14546:14560   */\n      add\n        /* \"#utility.yul\":14531:14560   */\n      swap1\n      pop\n        /* \"#utility.yul\":14397:14566   */\n      swap3\n      swap2\n      pop\n      pop\n      jump\t// out\n        /* \"#utility.yul\":14572:14949   */\n    tag_174:\n        /* \"#utility.yul\":14660:14663   */\n      0x00\n        /* \"#utility.yul\":14688:14727   */\n      tag_341\n        /* \"#utility.yul\":14721:14726   */\n      dup3\n        /* \"#utility.yul\":14688:14727   */\n      tag_151\n      jump\t// in\n    tag_341:\n        /* \"#utility.yul\":14743:14814   */\n      tag_342\n        /* \"#utility.yul\":14807:14813   */\n      dup2\n        /* \"#utility.yul\":14802:14805   */\n      dup6\n        /* \"#utility.yul\":14743:14814   */\n      tag_173\n      jump\t// in\n    tag_342:\n        /* \"#utility.yul\":14736:14814   */\n      swap4\n      pop\n        /* \"#utility.yul\":14823:14888   */\n      tag_343\n        /* \"#utility.yul\":14881:14887   */\n      dup2\n        /* \"#utility.yul\":14876:14879   */\n      dup6\n        /* \"#utility.yul\":14869:14873   */\n      0x20\n        /* \"#utility.yul\":14862:14867   */\n      dup7\n        /* \"#utility.yul\":14858:14874   */\n      add\n        /* \"#utility.yul\":14823:14888   */\n      tag_153\n      jump\t// in\n    tag_343:\n        /* \"#utility.yul\":14913:14942   */\n      tag_344\n        /* \"#utility.yul\":14935:14941   */\n      dup2\n        /* \"#utility.yul\":14913:14942   */\n      tag_136\n      jump\t// in\n    tag_344:\n        /* \"#utility.yul\":14908:14911   */\n      dup5\n        /* \"#utility.yul\":14904:14943   */\n      add\n        /* \"#utility.yul\":14897:14943   */\n      swap2\n      pop\n        /* \"#utility.yul\":14664:14949   */\n      pop\n        /* \"#utility.yul\":14572:14949   */\n      swap3\n      swap2\n      pop\n      pop\n      jump\t// out\n        /* \"#utility.yul\":14955:15073   */\n    tag_175:\n        /* \"#utility.yul\":15042:15066   */\n      tag_346\n        /* \"#utility.yul\":15060:15065   */\n      dup2\n        /* \"#utility.yul\":15042:15066   */\n      tag_144\n      jump\t// in\n    tag_346:\n        /* \"#utility.yul\":15037:15040   */\n      dup3\n        /* \"#utility.yul\":15030:15067   */\n      mstore\n        /* \"#utility.yul\":14955:15073   */\n      pop\n      pop\n      jump\t// out\n        /* \"#utility.yul\":15079:16238   */\n    tag_39:\n        /* \"#utility.yul\":15400:15404   */\n      0x00\n        /* \"#utility.yul\":15438:15441   */\n      0xe0\n        /* \"#utility.yul\":15427:15436   */\n      dup3\n        /* \"#utility.yul\":15423:15442   */\n      add\n        /* \"#utility.yul\":15415:15442   */\n      swap1\n      pop\n        /* \"#utility.yul\":15488:15497   */\n      dup2\n        /* \"#utility.yul\":15482:15486   */\n      dup2\n        /* \"#utility.yul\":15478:15498   */\n      sub\n        /* \"#utility.yul\":15474:15475   */\n      0x00\n        /* \"#utility.yul\":15463:15472   */\n      dup4\n        /* \"#utility.yul\":15459:15476   */\n      add\n        /* \"#utility.yul\":15452:15499   */\n      mstore\n        /* \"#utility.yul\":15516:15594   */\n      tag_348\n        /* \"#utility.yul\":15589:15593   */\n      dup2\n        /* \"#utility.yul\":15580:15586   */\n      dup11\n        /* \"#utility.yul\":15516:15594   */\n      tag_174\n      jump\t// in\n    tag_348:\n        /* \"#utility.yul\":15508:15594   */\n      swap1\n      pop\n        /* \"#utility.yul\":15641:15650   */\n      dup2\n        /* \"#utility.yul\":15635:15639   */\n      dup2\n        /* \"#utility.yul\":15631:15651   */\n      sub\n        /* \"#utility.yul\":15626:15628   */\n      0x20\n        /* \"#utility.yul\":15615:15624   */\n      dup4\n        /* \"#utility.yul\":15611:15629   */\n      add\n        /* \"#utility.yul\":15604:15652   */\n      mstore\n        /* \"#utility.yul\":15669:15747   */\n      tag_349\n        /* \"#utility.yul\":15742:15746   */\n      dup2\n        /* \"#utility.yul\":15733:15739   */\n      dup10\n        /* \"#utility.yul\":15669:15747   */\n      tag_174\n      jump\t// in\n    tag_349:\n        /* \"#utility.yul\":15661:15747   */\n      swap1\n      pop\n        /* \"#utility.yul\":15794:15803   */\n      dup2\n        /* \"#utility.yul\":15788:15792   */\n      dup2\n        /* \"#utility.yul\":15784:15804   */\n      sub\n        /* \"#utility.yul\":15779:15781   */\n      0x40\n        /* \"#utility.yul\":15768:15777   */\n      dup4\n        /* \"#utility.yul\":15764:15782   */\n      add\n        /* \"#utility.yul\":15757:15805   */\n      mstore\n        /* \"#utility.yul\":15822:15900   */\n      tag_350\n        /* \"#utility.yul\":15895:15899   */\n      dup2\n        /* \"#utility.yul\":15886:15892   */\n      dup9\n        /* \"#utility.yul\":15822:15900   */\n      tag_174\n      jump\t// in\n    tag_350:\n        /* \"#utility.yul\":15814:15900   */\n      swap1\n      pop\n        /* \"#utility.yul\":15910:15982   */\n      tag_351\n        /* \"#utility.yul\":15978:15980   */\n      0x60\n        /* \"#utility.yul\":15967:15976   */\n      dup4\n        /* \"#utility.yul\":15963:15981   */\n      add\n        /* \"#utility.yul\":15954:15960   */\n      dup8\n        /* \"#utility.yul\":15910:15982   */\n      tag_147\n      jump\t// in\n    tag_351:\n        /* \"#utility.yul\":15992:16065   */\n      tag_352\n        /* \"#utility.yul\":16060:16063   */\n      0x80\n        /* \"#utility.yul\":16049:16058   */\n      dup4\n        /* \"#utility.yul\":16045:16064   */\n      add\n        /* \"#utility.yul\":16036:16042   */\n      dup7\n        /* \"#utility.yul\":15992:16065   */\n      tag_147\n      jump\t// in\n    tag_352:\n        /* \"#utility.yul\":16075:16148   */\n      tag_353\n        /* \"#utility.yul\":16143:16146   */\n      0xa0\n        /* \"#utility.yul\":16132:16141   */\n      dup4\n        /* \"#utility.yul\":16128:16147   */\n      add\n        /* \"#utility.yul\":16119:16125   */\n      dup6\n        /* \"#utility.yul\":16075:16148   */\n      tag_147\n      jump\t// in\n    tag_353:\n        /* \"#utility.yul\":16158:16231   */\n      tag_354\n        /* \"#utility.yul\":16226:16229   */\n      0xc0\n        /* \"#utility.yul\":16215:16224   */\n      dup4\n        /* \"#utility.yul\":16211:16230   */\n      add\n        /* \"#utility.yul\":16202:16208   */\n      dup5\n        /* \"#utility.yul\":16158:16231   */\n      tag_175\n      jump\t// in\n    tag_354:\n        /* \"#utility.yul\":15079:16238   */\n      swap9\n      swap8\n      pop\n      pop\n      pop\n      pop\n      pop\n      pop\n      pop\n      pop\n      jump\t// out\n        /* \"#utility.yul\":16244:16428   */\n    tag_176:\n        /* \"#utility.yul\":16343:16354   */\n      0x00\n        /* \"#utility.yul\":16377:16383   */\n      dup3\n        /* \"#utility.yul\":16372:16375   */\n      dup3\n        /* \"#utility.yul\":16365:16384   */\n      mstore\n        /* \"#utility.yul\":16417:16421   */\n      0x20\n        /* \"#utility.yul\":16412:16415   */\n      dup3\n        /* \"#utility.yul\":16408:16422   */\n      add\n        /* \"#utility.yul\":16393:16422   */\n      swap1\n      pop\n        /* \"#utility.yul\":16244:16428   */\n      swap3\n      swap2\n      pop\n      pop\n      jump\t// out\n        /* \"#utility.yul\":16464:17196   */\n    tag_177:\n        /* \"#utility.yul\":16583:16586   */\n      0x00\n        /* \"#utility.yul\":16612:16666   */\n      tag_357\n        /* \"#utility.yul\":16660:16665   */\n      dup3\n        /* \"#utility.yul\":16612:16666   */\n      tag_157\n      jump\t// in\n    tag_357:\n        /* \"#utility.yul\":16682:16768   */\n      tag_358\n        /* \"#utility.yul\":16761:16767   */\n      dup2\n        /* \"#utility.yul\":16756:16759   */\n      dup6\n        /* \"#utility.yul\":16682:16768   */\n      tag_176\n      jump\t// in\n    tag_358:\n        /* \"#utility.yul\":16675:16768   */\n      swap4\n      pop\n        /* \"#utility.yul\":16792:16848   */\n      tag_359\n        /* \"#utility.yul\":16842:16847   */\n      dup4\n        /* \"#utility.yul\":16792:16848   */\n      tag_159\n      jump\t// in\n    tag_359:\n        /* \"#utility.yul\":16871:16878   */\n      dup1\n        /* \"#utility.yul\":16902:16903   */\n      0x00\n        /* \"#utility.yul\":16887:17171   */\n    tag_360:\n        /* \"#utility.yul\":16912:16918   */\n      dup4\n        /* \"#utility.yul\":16909:16910   */\n      dup2\n        /* \"#utility.yul\":16906:16919   */\n      lt\n        /* \"#utility.yul\":16887:17171   */\n      iszero\n      tag_362\n      jumpi\n        /* \"#utility.yul\":16988:16994   */\n      dup2\n        /* \"#utility.yul\":16982:16995   */\n      mload\n        /* \"#utility.yul\":17015:17078   */\n      tag_363\n        /* \"#utility.yul\":17074:17077   */\n      dup9\n        /* \"#utility.yul\":17059:17072   */\n      dup3\n        /* \"#utility.yul\":17015:17078   */\n      tag_160\n      jump\t// in\n    tag_363:\n        /* \"#utility.yul\":17008:17078   */\n      swap8\n      pop\n        /* \"#utility.yul\":17101:17161   */\n      tag_364\n        /* \"#utility.yul\":17154:17160   */\n      dup4\n        /* \"#utility.yul\":17101:17161   */\n      tag_161\n      jump\t// in\n    tag_364:\n        /* \"#utility.yul\":17091:17161   */\n      swap3\n      pop\n        /* \"#utility.yul\":16947:17171   */\n      pop\n        /* \"#utility.yul\":16934:16935   */\n      0x01\n        /* \"#utility.yul\":16931:16932   */\n      dup2\n        /* \"#utility.yul\":16927:16936   */\n      add\n        /* \"#utility.yul\":16922:16936   */\n      swap1\n      pop\n        /* \"#utility.yul\":16887:17171   */\n      jump(tag_360)\n    tag_362:\n        /* \"#utility.yul\":16891:16905   */\n      pop\n        /* \"#utility.yul\":17187:17190   */\n      dup6\n        /* \"#utility.yul\":17180:17190   */\n      swap4\n      pop\n        /* \"#utility.yul\":16588:17196   */\n      pop\n      pop\n      pop\n        /* \"#utility.yul\":16464:17196   */\n      swap3\n      swap2\n      pop\n      pop\n      jump\t// out\n        /* \"#utility.yul\":17202:17386   */\n    tag_178:\n        /* \"#utility.yul\":17301:17312   */\n      0x00\n        /* \"#utility.yul\":17335:17341   */\n      dup3\n        /* \"#utility.yul\":17330:17333   */\n      dup3\n        /* \"#utility.yul\":17323:17342   */\n      mstore\n        /* \"#utility.yul\":17375:17379   */\n      0x20\n        /* \"#utility.yul\":17370:17373   */\n      dup3\n        /* \"#utility.yul\":17366:17380   */\n      add\n        /* \"#utility.yul\":17351:17380   */\n      swap1\n      pop\n        /* \"#utility.yul\":17202:17386   */\n      swap3\n      swap2\n      pop\n      pop\n      jump\t// out\n        /* \"#utility.yul\":17422:18154   */\n    tag_179:\n        /* \"#utility.yul\":17541:17544   */\n      0x00\n        /* \"#utility.yul\":17570:17624   */\n      tag_367\n        /* \"#utility.yul\":17618:17623   */\n      dup3\n        /* \"#utility.yul\":17570:17624   */\n      tag_163\n      jump\t// in\n    tag_367:\n        /* \"#utility.yul\":17640:17726   */\n      tag_368\n        /* \"#utility.yul\":17719:17725   */\n      dup2\n        /* \"#utility.yul\":17714:17717   */\n      dup6\n        /* \"#utility.yul\":17640:17726   */\n      tag_178\n      jump\t// in\n    tag_368:\n        /* \"#utility.yul\":17633:17726   */\n      swap4\n      pop\n        /* \"#utility.yul\":17750:17806   */\n      tag_369\n        /* \"#utility.yul\":17800:17805   */\n      dup4\n        /* \"#utility.yul\":17750:17806   */\n      tag_165\n      jump\t// in\n    tag_369:\n        /* \"#utility.yul\":17829:17836   */\n      dup1\n        /* \"#utility.yul\":17860:17861   */\n      0x00\n        /* \"#utility.yul\":17845:18129   */\n    tag_370:\n        /* \"#utility.yul\":17870:17876   */\n      dup4\n        /* \"#utility.yul\":17867:17868   */\n      dup2\n        /* \"#utility.yul\":17864:17877   */\n      lt\n        /* \"#utility.yul\":17845:18129   */\n      iszero\n      tag_372\n      jumpi\n        /* \"#utility.yul\":17946:17952   */\n      dup2\n        /* \"#utility.yul\":17940:17953   */\n      mload\n        /* \"#utility.yul\":17973:18036   */\n      tag_373\n        /* \"#utility.yul\":18032:18035   */\n      dup9\n        /* \"#utility.yul\":18017:18030   */\n      dup3\n        /* \"#utility.yul\":17973:18036   */\n      tag_166\n      jump\t// in\n    tag_373:\n        /* \"#utility.yul\":17966:18036   */\n      swap8\n      pop\n        /* \"#utility.yul\":18059:18119   */\n      tag_374\n        /* \"#utility.yul\":18112:18118   */\n      dup4\n        /* \"#utility.yul\":18059:18119   */\n      tag_167\n      jump\t// in\n    tag_374:\n        /* \"#utility.yul\":18049:18119   */\n      swap3\n      pop\n        /* \"#utility.yul\":17905:18129   */\n      pop\n        /* \"#utility.yul\":17892:17893   */\n      0x01\n        /* \"#utility.yul\":17889:17890   */\n      dup2\n        /* \"#utility.yul\":17885:17894   */\n      add\n        /* \"#utility.yul\":17880:17894   */\n      swap1\n      pop\n        /* \"#utility.yul\":17845:18129   */\n      jump(tag_370)\n    tag_372:\n        /* \"#utility.yul\":17849:17863   */\n      pop\n        /* \"#utility.yul\":18145:18148   */\n      dup6\n        /* \"#utility.yul\":18138:18148   */\n      swap4\n      pop\n        /* \"#utility.yul\":17546:18154   */\n      pop\n      pop\n      pop\n        /* \"#utility.yul\":17422:18154   */\n      swap3\n      swap2\n      pop\n      pop\n      jump\t// out\n        /* \"#utility.yul\":18160:18794   */\n    tag_45:\n        /* \"#utility.yul\":18381:18385   */\n      0x00\n        /* \"#utility.yul\":18419:18421   */\n      0x40\n        /* \"#utility.yul\":18408:18417   */\n      dup3\n        /* \"#utility.yul\":18404:18422   */\n      add\n        /* \"#utility.yul\":18396:18422   */\n      swap1\n      pop\n        /* \"#utility.yul\":18468:18477   */\n      dup2\n        /* \"#utility.yul\":18462:18466   */\n      dup2\n        /* \"#utility.yul\":18458:18478   */\n      sub\n        /* \"#utility.yul\":18454:18455   */\n      0x00\n        /* \"#utility.yul\":18443:18452   */\n      dup4\n        /* \"#utility.yul\":18439:18456   */\n      add\n        /* \"#utility.yul\":18432:18479   */\n      mstore\n        /* \"#utility.yul\":18496:18604   */\n      tag_376\n        /* \"#utility.yul\":18599:18603   */\n      dup2\n        /* \"#utility.yul\":18590:18596   */\n      dup6\n        /* \"#utility.yul\":18496:18604   */\n      tag_177\n      jump\t// in\n    tag_376:\n        /* \"#utility.yul\":18488:18604   */\n      swap1\n      pop\n        /* \"#utility.yul\":18651:18660   */\n      dup2\n        /* \"#utility.yul\":18645:18649   */\n      dup2\n        /* \"#utility.yul\":18641:18661   */\n      sub\n        /* \"#utility.yul\":18636:18638   */\n      0x20\n        /* \"#utility.yul\":18625:18634   */\n      dup4\n        /* \"#utility.yul\":18621:18639   */\n      add\n        /* \"#utility.yul\":18614:18662   */\n      mstore\n        /* \"#utility.yul\":18679:18787   */\n      tag_377\n        /* \"#utility.yul\":18782:18786   */\n      dup2\n        /* \"#utility.yul\":18773:18779   */\n      dup5\n        /* \"#utility.yul\":18679:18787   */\n      tag_179\n      jump\t// in\n    tag_377:\n        /* \"#utility.yul\":18671:18787   */\n      swap1\n      pop\n        /* \"#utility.yul\":18160:18794   */\n      swap4\n      swap3\n      pop\n      pop\n      pop\n      jump\t// out\n        /* \"#utility.yul\":18800:18979   */\n    tag_180:\n        /* \"#utility.yul\":18940:18971   */\n      0x4f6e6c79206f776e65722063616e207769746864726177206d6f6e6579000000\n        /* \"#utility.yul\":18936:18937   */\n      0x00\n        /* \"#utility.yul\":18928:18934   */\n      dup3\n        /* \"#utility.yul\":18924:18938   */\n      add\n        /* \"#utility.yul\":18917:18972   */\n      mstore\n        /* \"#utility.yul\":18800:18979   */\n      pop\n      jump\t// out\n        /* \"#utility.yul\":18985:19351   */\n    tag_181:\n        /* \"#utility.yul\":19127:19130   */\n      0x00\n        /* \"#utility.yul\":19148:19215   */\n      tag_380\n        /* \"#utility.yul\":19212:19214   */\n      0x1d\n        /* \"#utility.yul\":19207:19210   */\n      dup4\n        /* \"#utility.yul\":19148:19215   */\n      tag_173\n      jump\t// in\n    tag_380:\n        /* \"#utility.yul\":19141:19215   */\n      swap2\n      pop\n        /* \"#utility.yul\":19224:19317   */\n      tag_381\n        /* \"#utility.yul\":19313:19316   */\n      dup3\n        /* \"#utility.yul\":19224:19317   */\n      tag_180\n      jump\t// in\n    tag_381:\n        /* \"#utility.yul\":19342:19344   */\n      0x20\n        /* \"#utility.yul\":19337:19340   */\n      dup3\n        /* \"#utility.yul\":19333:19345   */\n      add\n        /* \"#utility.yul\":19326:19345   */\n      swap1\n      pop\n        /* \"#utility.yul\":18985:19351   */\n      swap2\n      swap1\n      pop\n      jump\t// out\n        /* \"#utility.yul\":19357:19776   */\n    tag_49:\n        /* \"#utility.yul\":19523:19527   */\n      0x00\n        /* \"#utility.yul\":19561:19563   */\n      0x20\n        /* \"#utility.yul\":19550:19559   */\n      dup3\n        /* \"#utility.yul\":19546:19564   */\n      add\n        /* \"#utility.yul\":19538:19564   */\n      swap1\n      pop\n        /* \"#utility.yul\":19610:19619   */\n      dup2\n        /* \"#utility.yul\":19604:19608   */\n      dup2\n        /* \"#utility.yul\":19600:19620   */\n      sub\n        /* \"#utility.yul\":19596:19597   */\n      0x00\n        /* \"#utility.yul\":19585:19594   */\n      dup4\n        /* \"#utility.yul\":19581:19598   */\n      add\n        /* \"#utility.yul\":19574:19621   */\n      mstore\n        /* \"#utility.yul\":19638:19769   */\n      tag_383\n        /* \"#utility.yul\":19764:19768   */\n      dup2\n        /* \"#utility.yul\":19638:19769   */\n      tag_181\n      jump\t// in\n    tag_383:\n        /* \"#utility.yul\":19630:19769   */\n      swap1\n      pop\n        /* \"#utility.yul\":19357:19776   */\n      swap2\n      swap1\n      pop\n      jump\t// out\n        /* \"#utility.yul\":19782:19929   */\n    tag_182:\n        /* \"#utility.yul\":19883:19894   */\n      0x00\n        /* \"#utility.yul\":19920:19923   */\n      dup2\n        /* \"#utility.yul\":19905:19923   */\n      swap1\n      pop\n        /* \"#utility.yul\":19782:19929   */\n      swap3\n      swap2\n      pop\n      pop\n      jump\t// out\n        /* \"#utility.yul\":19935:20049   */\n    tag_183:\n      pop\n      jump\t// out\n        /* \"#utility.yul\":20055:20453   */\n    tag_184:\n        /* \"#utility.yul\":20214:20217   */\n      0x00\n        /* \"#utility.yul\":20235:20318   */\n      tag_387\n        /* \"#utility.yul\":20316:20317   */\n      0x00\n        /* \"#utility.yul\":20311:20314   */\n      dup4\n        /* \"#utility.yul\":20235:20318   */\n      tag_182\n      jump\t// in\n    tag_387:\n        /* \"#utility.yul\":20228:20318   */\n      swap2\n      pop\n        /* \"#utility.yul\":20327:20420   */\n      tag_388\n        /* \"#utility.yul\":20416:20419   */\n      dup3\n        /* \"#utility.yul\":20327:20420   */\n      tag_183\n      jump\t// in\n    tag_388:\n        /* \"#utility.yul\":20445:20446   */\n      0x00\n        /* \"#utility.yul\":20440:20443   */\n      dup3\n        /* \"#utility.yul\":20436:20447   */\n      add\n        /* \"#utility.yul\":20429:20447   */\n      swap1\n      pop\n        /* \"#utility.yul\":20055:20453   */\n      swap2\n      swap1\n      pop\n      jump\t// out\n        /* \"#utility.yul\":20459:20838   */\n    tag_52:\n        /* \"#utility.yul\":20643:20646   */\n      0x00\n        /* \"#utility.yul\":20665:20812   */\n      tag_390\n        /* \"#utility.yul\":20808:20811   */\n      dup3\n        /* \"#utility.yul\":20665:20812   */\n      tag_184\n      jump\t// in\n    tag_390:\n        /* \"#utility.yul\":20658:20812   */\n      swap2\n      pop\n        /* \"#utility.yul\":20829:20832   */\n      dup2\n        /* \"#utility.yul\":20822:20832   */\n      swap1\n      pop\n        /* \"#utility.yul\":20459:20838   */\n      swap2\n      swap1\n      pop\n      jump\t// out\n        /* \"#utility.yul\":20844:21014   */\n    tag_185:\n        /* \"#utility.yul\":20984:21006   */\n      0x536f6d657468696e672077656e742077726f6e67000000000000000000000000\n        /* \"#utility.yul\":20980:20981   */\n      0x00\n        /* \"#utility.yul\":20972:20978   */\n      dup3\n        /* \"#utility.yul\":20968:20982   */\n      add\n        /* \"#utility.yul\":20961:21007   */\n      mstore\n        /* \"#utility.yul\":20844:21014   */\n      pop\n      jump\t// out\n        /* \"#utility.yul\":21020:21386   */\n    tag_186:\n        /* \"#utility.yul\":21162:21165   */\n      0x00\n        /* \"#utility.yul\":21183:21250   */\n      tag_393\n        /* \"#utility.yul\":21247:21249   */\n      0x14\n        /* \"#utility.yul\":21242:21245   */\n      dup4\n        /* \"#utility.yul\":21183:21250   */\n      tag_173\n      jump\t// in\n    tag_393:\n        /* \"#utility.yul\":21176:21250   */\n      swap2\n      pop\n        /* \"#utility.yul\":21259:21352   */\n      tag_394\n        /* \"#utility.yul\":21348:21351   */\n      dup3\n        /* \"#utility.yul\":21259:21352   */\n      tag_185\n      jump\t// in\n    tag_394:\n        /* \"#utility.yul\":21377:21379   */\n      0x20\n        /* \"#utility.yul\":21372:21375   */\n      dup3\n        /* \"#utility.yul\":21368:21380   */\n      add\n        /* \"#utility.yul\":21361:21380   */\n      swap1\n      pop\n        /* \"#utility.yul\":21020:21386   */\n      swap2\n      swap1\n      pop\n      jump\t// out\n        /* \"#utility.yul\":21392:21811   */\n    tag_58:\n        /* \"#utility.yul\":21558:21562   */\n      0x00\n        /* \"#utility.yul\":21596:21598   */\n      0x20\n        /* \"#utility.yul\":21585:21594   */\n      dup3\n        /* \"#utility.yul\":21581:21599   */\n      add\n        /* \"#utility.yul\":21573:21599   */\n      swap1\n      pop\n        /* \"#utility.yul\":21645:21654   */\n      dup2\n        /* \"#utility.yul\":21639:21643   */\n      dup2\n        /* \"#utility.yul\":21635:21655   */\n      sub\n        /* \"#utility.yul\":21631:21632   */\n      0x00\n        /* \"#utility.yul\":21620:21629   */\n      dup4\n        /* \"#utility.yul\":21616:21633   */\n      add\n        /* \"#utility.yul\":21609:21656   */\n      mstore\n        /* \"#utility.yul\":21673:21804   */\n      tag_396\n        /* \"#utility.yul\":21799:21803   */\n      dup2\n        /* \"#utility.yul\":21673:21804   */\n      tag_186\n      jump\t// in\n    tag_396:\n        /* \"#utility.yul\":21665:21804   */\n      swap1\n      pop\n        /* \"#utility.yul\":21392:21811   */\n      swap2\n      swap1\n      pop\n      jump\t// out\n        /* \"#utility.yul\":21817:21997   */\n    tag_187:\n        /* \"#utility.yul\":21865:21942   */\n      0x4e487b7100000000000000000000000000000000000000000000000000000000\n        /* \"#utility.yul\":21862:21863   */\n      0x00\n        /* \"#utility.yul\":21855:21943   */\n      mstore\n        /* \"#utility.yul\":21962:21966   */\n      0x22\n        /* \"#utility.yul\":21959:21960   */\n      0x04\n        /* \"#utility.yul\":21952:21967   */\n      mstore\n        /* \"#utility.yul\":21986:21990   */\n      0x24\n        /* \"#utility.yul\":21983:21984   */\n      0x00\n        /* \"#utility.yul\":21976:21991   */\n      revert\n        /* \"#utility.yul\":22003:22323   */\n    tag_80:\n        /* \"#utility.yul\":22047:22053   */\n      0x00\n        /* \"#utility.yul\":22084:22085   */\n      0x02\n        /* \"#utility.yul\":22078:22082   */\n      dup3\n        /* \"#utility.yul\":22074:22086   */\n      div\n        /* \"#utility.yul\":22064:22086   */\n      swap1\n      pop\n        /* \"#utility.yul\":22131:22132   */\n      0x01\n        /* \"#utility.yul\":22125:22129   */\n      dup3\n        /* \"#utility.yul\":22121:22133   */\n      and\n        /* \"#utility.yul\":22152:22170   */\n      dup1\n        /* \"#utility.yul\":22142:22223   */\n      tag_399\n      jumpi\n        /* \"#utility.yul\":22208:22212   */\n      0x7f\n        /* \"#utility.yul\":22200:22206   */\n      dup3\n        /* \"#utility.yul\":22196:22213   */\n      and\n        /* \"#utility.yul\":22186:22213   */\n      swap2\n      pop\n        /* \"#utility.yul\":22142:22223   */\n    tag_399:\n        /* \"#utility.yul\":22270:22272   */\n      0x20\n        /* \"#utility.yul\":22262:22268   */\n      dup3\n        /* \"#utility.yul\":22259:22273   */\n      lt\n        /* \"#utility.yul\":22239:22257   */\n      dup2\n        /* \"#utility.yul\":22236:22274   */\n      sub\n        /* \"#utility.yul\":22233:22317   */\n      tag_400\n      jumpi\n        /* \"#utility.yul\":22289:22307   */\n      tag_401\n      tag_187\n      jump\t// in\n    tag_401:\n        /* \"#utility.yul\":22233:22317   */\n    tag_400:\n        /* \"#utility.yul\":22054:22323   */\n      pop\n        /* \"#utility.yul\":22003:22323   */\n      swap2\n      swap1\n      pop\n      jump\t// out\n        /* \"#utility.yul\":22329:22470   */\n    tag_188:\n        /* \"#utility.yul\":22378:22382   */\n      0x00\n        /* \"#utility.yul\":22401:22404   */\n      dup2\n        /* \"#utility.yul\":22393:22404   */\n      swap1\n      pop\n        /* \"#utility.yul\":22424:22427   */\n      dup2\n        /* \"#utility.yul\":22421:22422   */\n      0x00\n        /* \"#utility.yul\":22414:22428   */\n      mstore\n        /* \"#utility.yul\":22458:22462   */\n      0x20\n        /* \"#utility.yul\":22455:22456   */\n      0x00\n        /* \"#utility.yul\":22445:22463   */\n      keccak256\n        /* \"#utility.yul\":22437:22463   */\n      swap1\n      pop\n        /* \"#utility.yul\":22329:22470   */\n      swap2\n      swap1\n      pop\n      jump\t// out\n        /* \"#utility.yul\":22476:22569   */\n    tag_189:\n        /* \"#utility.yul\":22513:22519   */\n      0x00\n        /* \"#utility.yul\":22560:22562   */\n      0x20\n        /* \"#utility.yul\":22555:22557   */\n      0x1f\n        /* \"#utility.yul\":22548:22553   */\n      dup4\n        /* \"#utility.yul\":22544:22558   */\n      add\n        /* \"#utility.yul\":22540:22563   */\n      div\n        /* \"#utility.yul\":22530:22563   */\n      swap1\n      pop\n        /* \"#utility.yul\":22476:22569   */\n      swap2\n      swap1\n      pop\n      jump\t// out\n        /* \"#utility.yul\":22575:22682   */\n    tag_190:\n        /* \"#utility.yul\":22619:22627   */\n      0x00\n        /* \"#utility.yul\":22669:22674   */\n      dup3\n        /* \"#utility.yul\":22663:22667   */\n      dup3\n        /* \"#utility.yul\":22659:22675   */\n      shl\n        /* \"#utility.yul\":22638:22675   */\n      swap1\n      pop\n        /* \"#utility.yul\":22575:22682   */\n      swap3\n      swap2\n      pop\n      pop\n      jump\t// out\n        /* \"#utility.yul\":22688:23081   */\n    tag_191:\n        /* \"#utility.yul\":22757:22763   */\n      0x00\n        /* \"#utility.yul\":22807:22808   */\n      0x08\n        /* \"#utility.yul\":22795:22805   */\n      dup4\n        /* \"#utility.yul\":22791:22809   */\n      mul\n        /* \"#utility.yul\":22830:22927   */\n      tag_406\n        /* \"#utility.yul\":22860:22926   */\n      0xffffffffffffffffffffffffffffffffffffffffffffffffffffffffffffffff\n        /* \"#utility.yul\":22849:22858   */\n      dup3\n        /* \"#utility.yul\":22830:22927   */\n      tag_190\n      jump\t// in\n    tag_406:\n        /* \"#utility.yul\":22948:22987   */\n      tag_407\n        /* \"#utility.yul\":22978:22986   */\n      dup7\n        /* \"#utility.yul\":22967:22976   */\n      dup4\n        /* \"#utility.yul\":22948:22987   */\n      tag_190\n      jump\t// in\n    tag_407:\n        /* \"#utility.yul\":22936:22987   */\n      swap6\n      pop\n        /* \"#utility.yul\":23020:23024   */\n      dup1\n        /* \"#utility.yul\":23016:23025   */\n      not\n        /* \"#utility.yul\":23009:23014   */\n      dup5\n        /* \"#utility.yul\":23005:23026   */\n      and\n        /* \"#utility.yul\":22996:23026   */\n      swap4\n      pop\n        /* \"#utility.yul\":23069:23073   */\n      dup1\n        /* \"#utility.yul\":23059:23067   */\n      dup7\n        /* \"#utility.yul\":23055:23074   */\n      and\n        /* \"#utility.yul\":23048:23053   */\n      dup5\n        /* \"#utility.yul\":23045:23075   */\n      or\n        /* \"#utility.yul\":23035:23075   */\n      swap3\n      pop\n        /* \"#utility.yul\":22764:23081   */\n      pop\n      pop\n        /* \"#utility.yul\":22688:23081   */\n      swap4\n      swap3\n      pop\n      pop\n      pop\n      jump\t// out\n        /* \"#utility.yul\":23087:23147   */\n    tag_192:\n        /* \"#utility.yul\":23115:23118   */\n      0x00\n        /* \"#utility.yul\":23136:23141   */\n      dup2\n        /* \"#utility.yul\":23129:23141   */\n      swap1\n      pop\n        /* \"#utility.yul\":23087:23147   */\n      swap2\n      swap1\n      pop\n      jump\t// out\n        /* \"#utility.yul\":23153:23295   */\n    tag_193:\n        /* \"#utility.yul\":23203:23212   */\n      0x00\n        /* \"#utility.yul\":23236:23289   */\n      tag_410\n        /* \"#utility.yul\":23254:23288   */\n      tag_411\n        /* \"#utility.yul\":23263:23287   */\n      tag_412\n        /* \"#utility.yul\":23281:23286   */\n      dup5\n        /* \"#utility.yul\":23263:23287   */\n      tag_131\n      jump\t// in\n    tag_412:\n        /* \"#utility.yul\":23254:23288   */\n      tag_192\n      jump\t// in\n    tag_411:\n        /* \"#utility.yul\":23236:23289   */\n      tag_131\n      jump\t// in\n    tag_410:\n        /* \"#utility.yul\":23223:23289   */\n      swap1\n      pop\n        /* \"#utility.yul\":23153:23295   */\n      swap2\n      swap1\n      pop\n      jump\t// out\n        /* \"#utility.yul\":23301:23376   */\n    tag_194:\n        /* \"#utility.yul\":23344:23347   */\n      0x00\n        /* \"#utility.yul\":23365:23370   */\n      dup2\n        /* \"#utility.yul\":23358:23370   */\n      swap1\n      pop\n        /* \"#utility.yul\":23301:23376   */\n      swap2\n      swap1\n      pop\n      jump\t// out\n        /* \"#utility.yul\":23382:23651   */\n    tag_195:\n        /* \"#utility.yul\":23492:23531   */\n      tag_415\n        /* \"#utility.yul\":23523:23530   */\n      dup4\n        /* \"#utility.yul\":23492:23531   */\n      tag_193\n      jump\t// in\n    tag_415:\n        /* \"#utility.yul\":23553:23644   */\n      tag_416\n        /* \"#utility.yul\":23602:23643   */\n      tag_417\n        /* \"#utility.yul\":23626:23642   */\n      dup3\n        /* \"#utility.yul\":23602:23643   */\n      tag_194\n      jump\t// in\n    tag_417:\n        /* \"#utility.yul\":23594:23600   */\n      dup5\n        /* \"#utility.yul\":23587:23591   */\n      dup5\n        /* \"#utility.yul\":23581:23592   */\n      sload\n        /* \"#utility.yul\":23553:23644   */\n      tag_191\n      jump\t// in\n    tag_416:\n        /* \"#utility.yul\":23547:23551   */\n      dup3\n        /* \"#utility.yul\":23540:23645   */\n      sstore\n        /* \"#utility.yul\":23458:23651   */\n      pop\n        /* \"#utility.yul\":23382:23651   */\n      pop\n      pop\n      pop\n      jump\t// out\n        /* \"#utility.yul\":23657:23730   */\n    tag_196:\n        /* \"#utility.yul\":23702:23705   */\n      0x00\n        /* \"#utility.yul\":23657:23730   */\n      swap1\n      jump\t// out\n        /* \"#utility.yul\":23736:23925   */\n    tag_197:\n        /* \"#utility.yul\":23813:23845   */\n      tag_420\n      tag_196\n      jump\t// in\n    tag_420:\n        /* \"#utility.yul\":23854:23919   */\n      tag_421\n        /* \"#utility.yul\":23912:23918   */\n      dup2\n        /* \"#utility.yul\":23904:23910   */\n      dup5\n        /* \"#utility.yul\":23898:23902   */\n      dup5\n        /* \"#utility.yul\":23854:23919   */\n      tag_195\n      jump\t// in\n    tag_421:\n        /* \"#utility.yul\":23789:23925   */\n      pop\n        /* \"#utility.yul\":23736:23925   */\n      pop\n      pop\n      jump\t// out\n        /* \"#utility.yul\":23931:24117   */\n    tag_198:\n        /* \"#utility.yul\":23991:24111   */\n    tag_423:\n        /* \"#utility.yul\":24008:24011   */\n      dup2\n        /* \"#utility.yul\":24001:24006   */\n      dup2\n        /* \"#utility.yul\":23998:24012   */\n      lt\n        /* \"#utility.yul\":23991:24111   */\n      iszero\n      tag_425\n      jumpi\n        /* \"#utility.yul\":24062:24101   */\n      tag_426\n        /* \"#utility.yul\":24099:24100   */\n      0x00\n        /* \"#utility.yul\":24092:24097   */\n      dup3\n        /* \"#utility.yul\":24062:24101   */\n      tag_197\n      jump\t// in\n    tag_426:\n        /* \"#utility.yul\":24035:24036   */\n      0x01\n        /* \"#utility.yul\":24028:24033   */\n      dup2\n        /* \"#utility.yul\":24024:24037   */\n      add\n        /* \"#utility.yul\":24015:24037   */\n      swap1\n      pop\n        /* \"#utility.yul\":23991:24111   */\n      jump(tag_423)\n    tag_425:\n        /* \"#utility.yul\":23931:24117   */\n      pop\n      pop\n      jump\t// out\n        /* \"#utility.yul\":24123:24666   */\n    tag_199:\n        /* \"#utility.yul\":24224:24226   */\n      0x1f\n        /* \"#utility.yul\":24219:24222   */\n      dup3\n        /* \"#utility.yul\":24216:24227   */\n      gt\n        /* \"#utility.yul\":24213:24659   */\n      iszero\n      tag_428\n      jumpi\n        /* \"#utility.yul\":24258:24296   */\n      tag_429\n        /* \"#utility.yul\":24290:24295   */\n      dup2\n        /* \"#utility.yul\":24258:24296   */\n      tag_188\n      jump\t// in\n    tag_429:\n        /* \"#utility.yul\":24342:24371   */\n      tag_430\n        /* \"#utility.yul\":24360:24370   */\n      dup5\n        /* \"#utility.yul\":24342:24371   */\n      tag_189\n      jump\t// in\n    tag_430:\n        /* \"#utility.yul\":24332:24340   */\n      dup2\n        /* \"#utility.yul\":24328:24372   */\n      add\n        /* \"#utility.yul\":24525:24527   */\n      0x20\n        /* \"#utility.yul\":24513:24523   */\n      dup6\n        /* \"#utility.yul\":24510:24528   */\n      lt\n        /* \"#utility.yul\":24507:24556   */\n      iszero\n      tag_431\n      jumpi\n        /* \"#utility.yul\":24546:24554   */\n      dup2\n        /* \"#utility.yul\":24531:24554   */\n      swap1\n      pop\n        /* \"#utility.yul\":24507:24556   */\n    tag_431:\n        /* \"#utility.yul\":24569:24649   */\n      tag_432\n        /* \"#utility.yul\":24625:24647   */\n      tag_433\n        /* \"#utility.yul\":24643:24646   */\n      dup6\n        /* \"#utility.yul\":24625:24647   */\n      tag_189\n      jump\t// in\n    tag_433:\n        /* \"#utility.yul\":24615:24623   */\n      dup4\n        /* \"#utility.yul\":24611:24648   */\n      add\n        /* \"#utility.yul\":24598:24609   */\n      dup3\n        /* \"#utility.yul\":24569:24649   */\n      tag_198\n      jump\t// in\n    tag_432:\n        /* \"#utility.yul\":24228:24659   */\n      pop\n      pop\n        /* \"#utility.yul\":24213:24659   */\n    tag_428:\n        /* \"#utility.yul\":24123:24666   */\n      pop\n      pop\n      pop\n      jump\t// out\n        /* \"#utility.yul\":24672:24789   */\n    tag_200:\n        /* \"#utility.yul\":24726:24734   */\n      0x00\n        /* \"#utility.yul\":24776:24781   */\n      dup3\n        /* \"#utility.yul\":24770:24774   */\n      dup3\n        /* \"#utility.yul\":24766:24782   */\n      shr\n        /* \"#utility.yul\":24745:24782   */\n      swap1\n      pop\n        /* \"#utility.yul\":24672:24789   */\n      swap3\n      swap2\n      pop\n      pop\n      jump\t// out\n        /* \"#utility.yul\":24795:24964   */\n    tag_201:\n        /* \"#utility.yul\":24839:24845   */\n      0x00\n        /* \"#utility.yul\":24872:24923   */\n      tag_436\n        /* \"#utility.yul\":24920:24921   */\n      0x00\n        /* \"#utility.yul\":24916:24922   */\n      not\n        /* \"#utility.yul\":24908:24913   */\n      dup5\n        /* \"#utility.yul\":24905:24906   */\n      0x08\n        /* \"#utility.yul\":24901:24914   */\n      mul\n        /* \"#utility.yul\":24872:24923   */\n      tag_200\n      jump\t// in\n    tag_436:\n        /* \"#utility.yul\":24868:24924   */\n      not\n        /* \"#utility.yul\":24953:24957   */\n      dup1\n        /* \"#utility.yul\":24947:24951   */\n      dup4\n        /* \"#utility.yul\":24943:24958   */\n      and\n        /* \"#utility.yul\":24933:24958   */\n      swap2\n      pop\n        /* \"#utility.yul\":24846:24964   */\n      pop\n        /* \"#utility.yul\":24795:24964   */\n      swap3\n      swap2\n      pop\n      pop\n      jump\t// out\n        /* \"#utility.yul\":24969:25264   */\n    tag_202:\n        /* \"#utility.yul\":25045:25049   */\n      0x00\n        /* \"#utility.yul\":25191:25220   */\n      tag_438\n        /* \"#utility.yul\":25216:25219   */\n      dup4\n        /* \"#utility.yul\":25210:25214   */\n      dup4\n        /* \"#utility.yul\":25191:25220   */\n      tag_201\n      jump\t// in\n    tag_438:\n        /* \"#utility.yul\":25183:25220   */\n      swap2\n      pop\n        /* \"#utility.yul\":25253:25256   */\n      dup3\n        /* \"#utility.yul\":25250:25251   */\n      0x02\n        /* \"#utility.yul\":25246:25257   */\n      mul\n        /* \"#utility.yul\":25240:25244   */\n      dup3\n        /* \"#utility.yul\":25237:25258   */\n      or\n        /* \"#utility.yul\":25229:25258   */\n      swap1\n      pop\n        /* \"#utility.yul\":24969:25264   */\n      swap3\n      swap2\n      pop\n      pop\n      jump\t// out\n        /* \"#utility.yul\":25269:26664   */\n    tag_61:\n        /* \"#utility.yul\":25386:25423   */\n      tag_440\n        /* \"#utility.yul\":25419:25422   */\n      dup3\n        /* \"#utility.yul\":25386:25423   */\n      tag_151\n      jump\t// in\n    tag_440:\n        /* \"#utility.yul\":25488:25506   */\n      0xffffffffffffffff\n        /* \"#utility.yul\":25480:25486   */\n      dup2\n        /* \"#utility.yul\":25477:25507   */\n      gt\n        /* \"#utility.yul\":25474:25530   */\n      iszero\n      tag_441\n      jumpi\n        /* \"#utility.yul\":25510:25528   */\n      tag_442\n      tag_71\n      jump\t// in\n    tag_442:\n        /* \"#utility.yul\":25474:25530   */\n    tag_441:\n        /* \"#utility.yul\":25554:25592   */\n      tag_443\n        /* \"#utility.yul\":25586:25590   */\n      dup3\n        /* \"#utility.yul\":25580:25591   */\n      sload\n        /* \"#utility.yul\":25554:25592   */\n      tag_80\n      jump\t// in\n    tag_443:\n        /* \"#utility.yul\":25639:25706   */\n      tag_444\n        /* \"#utility.yul\":25699:25705   */\n      dup3\n        /* \"#utility.yul\":25691:25697   */\n      dup3\n        /* \"#utility.yul\":25685:25689   */\n      dup6\n        /* \"#utility.yul\":25639:25706   */\n      tag_199\n      jump\t// in\n    tag_444:\n        /* \"#utility.yul\":25733:25734   */\n      0x00\n        /* \"#utility.yul\":25757:25761   */\n      0x20\n        /* \"#utility.yul\":25744:25761   */\n      swap1\n      pop\n        /* \"#utility.yul\":25789:25791   */\n      0x1f\n        /* \"#utility.yul\":25781:25787   */\n      dup4\n        /* \"#utility.yul\":25778:25792   */\n      gt\n        /* \"#utility.yul\":25806:25807   */\n      0x01\n        /* \"#utility.yul\":25801:26419   */\n      dup2\n      eq\n      tag_446\n      jumpi\n        /* \"#utility.yul\":26463:26464   */\n      0x00\n        /* \"#utility.yul\":26480:26486   */\n      dup5\n        /* \"#utility.yul\":26477:26554   */\n      iszero\n      tag_447\n      jumpi\n        /* \"#utility.yul\":26529:26538   */\n      dup3\n        /* \"#utility.yul\":26524:26527   */\n      dup8\n        /* \"#utility.yul\":26520:26539   */\n      add\n        /* \"#utility.yul\":26514:26540   */\n      mload\n        /* \"#utility.yul\":26505:26540   */\n      swap1\n      pop\n        /* \"#utility.yul\":26477:26554   */\n    tag_447:\n        /* \"#utility.yul\":26580:26647   */\n      tag_448\n        /* \"#utility.yul\":26640:26646   */\n      dup6\n        /* \"#utility.yul\":26633:26638   */\n      dup3\n        /* \"#utility.yul\":26580:26647   */\n      tag_202\n      jump\t// in\n    tag_448:\n        /* \"#utility.yul\":26574:26578   */\n      dup7\n        /* \"#utility.yul\":26567:26648   */\n      sstore\n        /* \"#utility.yul\":26436:26658   */\n      pop\n        /* \"#utility.yul\":25771:26658   */\n      jump(tag_445)\n        /* \"#utility.yul\":25801:26419   */\n    tag_446:\n        /* \"#utility.yul\":25853:25857   */\n      0x1f\n        /* \"#utility.yul\":25849:25858   */\n      not\n        /* \"#utility.yul\":25841:25847   */\n      dup5\n        /* \"#utility.yul\":25837:25859   */\n      and\n        /* \"#utility.yul\":25887:25924   */\n      tag_449\n        /* \"#utility.yul\":25919:25923   */\n      dup7\n        /* \"#utility.yul\":25887:25924   */\n      tag_188\n      jump\t// in\n    tag_449:\n        /* \"#utility.yul\":25946:25947   */\n      0x00\n        /* \"#utility.yul\":25960:26168   */\n    tag_450:\n        /* \"#utility.yul\":25974:25981   */\n      dup3\n        /* \"#utility.yul\":25971:25972   */\n      dup2\n        /* \"#utility.yul\":25968:25982   */\n      lt\n        /* \"#utility.yul\":25960:26168   */\n      iszero\n      tag_452\n      jumpi\n        /* \"#utility.yul\":26053:26062   */\n      dup5\n        /* \"#utility.yul\":26048:26051   */\n      dup10\n        /* \"#utility.yul\":26044:26063   */\n      add\n        /* \"#utility.yul\":26038:26064   */\n      mload\n        /* \"#utility.yul\":26030:26036   */\n      dup3\n        /* \"#utility.yul\":26023:26065   */\n      sstore\n        /* \"#utility.yul\":26104:26105   */\n      0x01\n        /* \"#utility.yul\":26096:26102   */\n      dup3\n        /* \"#utility.yul\":26092:26106   */\n      add\n        /* \"#utility.yul\":26082:26106   */\n      swap2\n      pop\n        /* \"#utility.yul\":26151:26153   */\n      0x20\n        /* \"#utility.yul\":26140:26149   */\n      dup6\n        /* \"#utility.yul\":26136:26154   */\n      add\n        /* \"#utility.yul\":26123:26154   */\n      swap5\n      pop\n        /* \"#utility.yul\":25997:26001   */\n      0x20\n        /* \"#utility.yul\":25994:25995   */\n      dup2\n        /* \"#utility.yul\":25990:26002   */\n      add\n        /* \"#utility.yul\":25985:26002   */\n      swap1\n      pop\n        /* \"#utility.yul\":25960:26168   */\n      jump(tag_450)\n    tag_452:\n        /* \"#utility.yul\":26196:26202   */\n      dup7\n        /* \"#utility.yul\":26187:26194   */\n      dup4\n        /* \"#utility.yul\":26184:26203   */\n      lt\n        /* \"#utility.yul\":26181:26360   */\n      iszero\n      tag_453\n      jumpi\n        /* \"#utility.yul\":26254:26263   */\n      dup5\n        /* \"#utility.yul\":26249:26252   */\n      dup10\n        /* \"#utility.yul\":26245:26264   */\n      add\n        /* \"#utility.yul\":26239:26265   */\n      mload\n        /* \"#utility.yul\":26297:26345   */\n      tag_454\n        /* \"#utility.yul\":26339:26343   */\n      0x1f\n        /* \"#utility.yul\":26331:26337   */\n      dup10\n        /* \"#utility.yul\":26327:26344   */\n      and\n        /* \"#utility.yul\":26316:26325   */\n      dup3\n        /* \"#utility.yul\":26297:26345   */\n      tag_201\n      jump\t// in\n    tag_454:\n        /* \"#utility.yul\":26289:26295   */\n      dup4\n        /* \"#utility.yul\":26282:26346   */\n      sstore\n        /* \"#utility.yul\":26204:26360   */\n      pop\n        /* \"#utility.yul\":26181:26360   */\n    tag_453:\n        /* \"#utility.yul\":26406:26407   */\n      0x01\n        /* \"#utility.yul\":26402:26403   */\n      0x02\n        /* \"#utility.yul\":26394:26400   */\n      dup9\n        /* \"#utility.yul\":26390:26404   */\n      mul\n        /* \"#utility.yul\":26386:26408   */\n      add\n        /* \"#utility.yul\":26380:26384   */\n      dup9\n        /* \"#utility.yul\":26373:26409   */\n      sstore\n        /* \"#utility.yul\":25808:26419   */\n      pop\n      pop\n      pop\n        /* \"#utility.yul\":25771:26658   */\n    tag_445:\n      pop\n        /* \"#utility.yul\":25361:26664   */\n      pop\n      pop\n      pop\n        /* \"#utility.yul\":25269:26664   */\n      pop\n      pop\n      jump\t// out\n        /* \"#utility.yul\":26670:26850   */\n    tag_203:\n        /* \"#utility.yul\":26718:26795   */\n      0x4e487b7100000000000000000000000000000000000000000000000000000000\n        /* \"#utility.yul\":26715:26716   */\n      0x00\n        /* \"#utility.yul\":26708:26796   */\n      mstore\n        /* \"#utility.yul\":26815:26819   */\n      0x11\n        /* \"#utility.yul\":26812:26813   */\n      0x04\n        /* \"#utility.yul\":26805:26820   */\n      mstore\n        /* \"#utility.yul\":26839:26843   */\n      0x24\n        /* \"#utility.yul\":26836:26837   */\n      0x00\n        /* \"#utility.yul\":26829:26844   */\n      revert\n        /* \"#utility.yul\":26856:27089   */\n    tag_65:\n        /* \"#utility.yul\":26895:26898   */\n      0x00\n        /* \"#utility.yul\":26918:26942   */\n      tag_457\n        /* \"#utility.yul\":26936:26941   */\n      dup3\n        /* \"#utility.yul\":26918:26942   */\n      tag_131\n      jump\t// in\n    tag_457:\n        /* \"#utility.yul\":26909:26942   */\n      swap2\n      pop\n        /* \"#utility.yul\":26964:27030   */\n      0xffffffffffffffffffffffffffffffffffffffffffffffffffffffffffffffff\n        /* \"#utility.yul\":26957:26962   */\n      dup3\n        /* \"#utility.yul\":26954:27031   */\n      sub\n        /* \"#utility.yul\":26951:27054   */\n      tag_458\n      jumpi\n        /* \"#utility.yul\":27034:27052   */\n      tag_459\n      tag_203\n      jump\t// in\n    tag_459:\n        /* \"#utility.yul\":26951:27054   */\n    tag_458:\n        /* \"#utility.yul\":27081:27082   */\n      0x01\n        /* \"#utility.yul\":27074:27079   */\n      dup3\n        /* \"#utility.yul\":27070:27083   */\n      add\n        /* \"#utility.yul\":27063:27083   */\n      swap1\n      pop\n        /* \"#utility.yul\":26856:27089   */\n      swap2\n      swap1\n      pop\n      jump\t// out\n        /* \"#utility.yul\":27095:27289   */\n    tag_67:\n        /* \"#utility.yul\":27135:27139   */\n      0x00\n        /* \"#utility.yul\":27155:27175   */\n      tag_461\n        /* \"#utility.yul\":27173:27174   */\n      dup3\n        /* \"#utility.yul\":27155:27175   */\n      tag_131\n      jump\t// in\n    tag_461:\n        /* \"#utility.yul\":27150:27175   */\n      swap2\n      pop\n        /* \"#utility.yul\":27189:27209   */\n      tag_462\n        /* \"#utility.yul\":27207:27208   */\n      dup4\n        /* \"#utility.yul\":27189:27209   */\n      tag_131\n      jump\t// in\n    tag_462:\n        /* \"#utility.yul\":27184:27209   */\n      swap3\n      pop\n        /* \"#utility.yul\":27233:27234   */\n      dup3\n        /* \"#utility.yul\":27230:27231   */\n      dup3\n        /* \"#utility.yul\":27226:27235   */\n      sub\n        /* \"#utility.yul\":27218:27235   */\n      swap1\n      pop\n        /* \"#utility.yul\":27257:27258   */\n      dup2\n        /* \"#utility.yul\":27251:27255   */\n      dup2\n        /* \"#utility.yul\":27248:27259   */\n      gt\n        /* \"#utility.yul\":27245:27282   */\n      iszero\n      tag_463\n      jumpi\n        /* \"#utility.yul\":27262:27280   */\n      tag_464\n      tag_203\n      jump\t// in\n    tag_464:\n        /* \"#utility.yul\":27245:27282   */\n    tag_463:\n        /* \"#utility.yul\":27095:27289   */\n      swap3\n      swap2\n      pop\n      pop\n      jump\t// out\n        /* \"#utility.yul\":27295:27475   */\n    tag_101:\n        /* \"#utility.yul\":27343:27420   */\n      0x4e487b7100000000000000000000000000000000000000000000000000000000\n        /* \"#utility.yul\":27340:27341   */\n      0x00\n        /* \"#utility.yul\":27333:27421   */\n      mstore\n        /* \"#utility.yul\":27440:27444   */\n      0x32\n        /* \"#utility.yul\":27437:27438   */\n      0x04\n        /* \"#utility.yul\":27430:27445   */\n      mstore\n        /* \"#utility.yul\":27464:27468   */\n      0x24\n        /* \"#utility.yul\":27461:27462   */\n      0x00\n        /* \"#utility.yul\":27454:27469   */\n      revert\n        /* \"#utility.yul\":27481:27672   */\n    tag_106:\n        /* \"#utility.yul\":27521:27524   */\n      0x00\n        /* \"#utility.yul\":27540:27560   */\n      tag_467\n        /* \"#utility.yul\":27558:27559   */\n      dup3\n        /* \"#utility.yul\":27540:27560   */\n      tag_131\n      jump\t// in\n    tag_467:\n        /* \"#utility.yul\":27535:27560   */\n      swap2\n      pop\n        /* \"#utility.yul\":27574:27594   */\n      tag_468\n        /* \"#utility.yul\":27592:27593   */\n      dup4\n        /* \"#utility.yul\":27574:27594   */\n      tag_131\n      jump\t// in\n    tag_468:\n        /* \"#utility.yul\":27569:27594   */\n      swap3\n      pop\n        /* \"#utility.yul\":27617:27618   */\n      dup3\n        /* \"#utility.yul\":27614:27615   */\n      dup3\n        /* \"#utility.yul\":27610:27619   */\n      add\n        /* \"#utility.yul\":27603:27619   */\n      swap1\n      pop\n        /* \"#utility.yul\":27638:27641   */\n      dup1\n        /* \"#utility.yul\":27635:27636   */\n      dup3\n        /* \"#utility.yul\":27632:27642   */\n      gt\n        /* \"#utility.yul\":27629:27665   */\n      iszero\n      tag_469\n      jumpi\n        /* \"#utility.yul\":27645:27663   */\n      tag_470\n      tag_203\n      jump\t// in\n    tag_470:\n        /* \"#utility.yul\":27629:27665   */\n    tag_469:\n        /* \"#utility.yul\":27481:27672   */\n      swap3\n      swap2\n      pop\n      pop\n      jump\t// out\n\n    auxdata: 0xa2646970667358221220e6da9b8282a8cf227f1e2b73f010bde67a13bef20c2a37bef9389dccb8d6c71a64736f6c634300081a0033\n}\n",
				"bytecode": {
					"linkReferences": {},
					"object": "60806040525f80553480156011575f80fd5b506119598061001f5f395ff3fe60806040526004361061006f575f3560e01c8063ab4a0b321161004d578063ab4a0b3214610101578063ca1d209d1461012b578063d844312414610147578063e27883fb146101895761006f565b80632e1a7d4d14610073578063356404101461009b5780634ca079f2146100d7575b5f80fd5b34801561007e575f80fd5b5061009960048036038101906100949190610c21565b6101c6565b005b3480156100a6575f80fd5b506100c160048036038101906100bc9190610de2565b61032e565b6040516100ce9190610ebc565b60405180910390f35b3480156100e2575f80fd5b506100eb6103f4565b6040516100f8919061123c565b60405180910390f35b34801561010c575f80fd5b506101156107ac565b6040516101229190610ebc565b60405180910390f35b61014560048036038101906101409190610c21565b6107b1565b005b348015610152575f80fd5b5061016d60048036038101906101689190610c21565b610887565b60405161018097969594939291906112b3565b60405180910390f35b348015610194575f80fd5b506101af60048036038101906101aa9190610c21565b610a76565b6040516101bd92919061140d565b60405180910390f35b8060015f8281526020019081526020015f206006015f9054906101000a900473ffffffffffffffffffffffffffffffffffffffff1673ffffffffffffffffffffffffffffffffffffffff163373ffffffffffffffffffffffffffffffffffffffff1614610268576040517f08c379a000000000000000000000000000000000000000000000000000000000815260040161025f9061148c565b60405180910390fd5b5f3373ffffffffffffffffffffffffffffffffffffffff164760405161028d906114d7565b5f6040518083038185875af1925050503d805f81146102c7576040519150601f19603f3d011682016040523d82523d5f602084013e6102cc565b606091505b5050905080610310576040517f08c379a000000000000000000000000000000000000000000000000000000000815260040161030790611535565b60405180910390fd5b5f60015f8581526020019081526020015f2060050181905550505050565b5f8060015f805481526020019081526020015f20905082816006015f6101000a81548173ffffffffffffffffffffffffffffffffffffffff021916908373ffffffffffffffffffffffffffffffffffffffff16021790555086815f019081610396919061174d565b50858160010190816103a8919061174d565b50848160020190816103ba919061174d565b508381600301819055505f808154809291906103d590611849565b919050555060015f546103e89190611890565b91505095945050505050565b60605f805467ffffffffffffffff81111561041257610411610c64565b5b60405190808252806020026020018201604052801561044b57816020015b610438610b7f565b8152602001906001900390816104305790505b5090505f5b5f548110156107a45760015f8281526020019081526020015f20604051806101200160405290815f8201805461048590611580565b80601f01602080910402602001604051908101604052809291908181526020018280546104b190611580565b80156104fc5780601f106104d3576101008083540402835291602001916104fc565b820191905f5260205f20905b8154815290600101906020018083116104df57829003601f168201915b5050505050815260200160018201805461051590611580565b80601f016020809104026020016040519081016040528092919081815260200182805461054190611580565b801561058c5780601f106105635761010080835404028352916020019161058c565b820191905f5260205f20905b81548152906001019060200180831161056f57829003601f168201915b505050505081526020016002820180546105a590611580565b80601f01602080910402602001604051908101604052809291908181526020018280546105d190611580565b801561061c5780601f106105f35761010080835404028352916020019161061c565b820191905f5260205f20905b8154815290600101906020018083116105ff57829003601f168201915b50505050508152602001600382015481526020016004820154815260200160058201548152602001600682015f9054906101000a900473ffffffffffffffffffffffffffffffffffffffff1673ffffffffffffffffffffffffffffffffffffffff1673ffffffffffffffffffffffffffffffffffffffff1681526020016007820180548060200260200160405190810160405280929190818152602001828054801561071a57602002820191905f5260205f20905b815f9054906101000a900473ffffffffffffffffffffffffffffffffffffffff1673ffffffffffffffffffffffffffffffffffffffff16815260200190600101908083116106d1575b505050505081526020016008820180548060200260200160405190810160405280929190818152602001828054801561077057602002820191905f5260205f20905b81548152602001906001019080831161075c575b50505050508152505082828151811061078c5761078b6118c3565b5b60200260200101819052508080600101915050610450565b508091505090565b5f5481565b5f60015f8381526020019081526020015f2090508060070133908060018154018082558091505060019003905f5260205f20015f9091909190916101000a81548173ffffffffffffffffffffffffffffffffffffffff021916908373ffffffffffffffffffffffffffffffffffffffff1602179055508060080134908060018154018082558091505060019003905f5260205f20015f909190919091505534816004015f82825461086291906118f0565b9250508190555034816005015f82825461087c91906118f0565b925050819055505050565b6001602052805f5260405f205f91509050805f0180546108a690611580565b80601f01602080910402602001604051908101604052809291908181526020018280546108d290611580565b801561091d5780601f106108f45761010080835404028352916020019161091d565b820191905f5260205f20905b81548152906001019060200180831161090057829003601f168201915b50505050509080600101805461093290611580565b80601f016020809104026020016040519081016040528092919081815260200182805461095e90611580565b80156109a95780601f10610980576101008083540402835291602001916109a9565b820191905f5260205f20905b81548152906001019060200180831161098c57829003601f168201915b5050505050908060020180546109be90611580565b80601f01602080910402602001604051908101604052809291908181526020018280546109ea90611580565b8015610a355780601f10610a0c57610100808354040283529160200191610a35565b820191905f5260205f20905b815481529060010190602001808311610a1857829003601f168201915b505050505090806003015490806004015490806005015490806006015f9054906101000a900473ffffffffffffffffffffffffffffffffffffffff16905087565b60608060015f8481526020019081526020015f2060070160015f8581526020019081526020015f2060080181805480602002602001604051908101604052809291908181526020018280548015610b1f57602002820191905f5260205f20905b815f9054906101000a900473ffffffffffffffffffffffffffffffffffffffff1673ffffffffffffffffffffffffffffffffffffffff1681526020019060010190808311610ad6575b5050505050915080805480602002602001604051908101604052809291908181526020018280548015610b6f57602002820191905f5260205f20905b815481526020019060010190808311610b5b575b5050505050905091509150915091565b6040518061012001604052806060815260200160608152602001606081526020015f81526020015f81526020015f81526020015f73ffffffffffffffffffffffffffffffffffffffff16815260200160608152602001606081525090565b5f604051905090565b5f80fd5b5f80fd5b5f819050919050565b610c0081610bee565b8114610c0a575f80fd5b50565b5f81359050610c1b81610bf7565b92915050565b5f60208284031215610c3657610c35610be6565b5b5f610c4384828501610c0d565b91505092915050565b5f80fd5b5f80fd5b5f601f19601f8301169050919050565b7f4e487b71000000000000000000000000000000000000000000000000000000005f52604160045260245ffd5b610c9a82610c54565b810181811067ffffffffffffffff82111715610cb957610cb8610c64565b5b80604052505050565b5f610ccb610bdd565b9050610cd78282610c91565b919050565b5f67ffffffffffffffff821115610cf657610cf5610c64565b5b610cff82610c54565b9050602081019050919050565b828183375f83830152505050565b5f610d2c610d2784610cdc565b610cc2565b905082815260208101848484011115610d4857610d47610c50565b5b610d53848285610d0c565b509392505050565b5f82601f830112610d6f57610d6e610c4c565b5b8135610d7f848260208601610d1a565b91505092915050565b5f73ffffffffffffffffffffffffffffffffffffffff82169050919050565b5f610db182610d88565b9050919050565b610dc181610da7565b8114610dcb575f80fd5b50565b5f81359050610ddc81610db8565b92915050565b5f805f805f60a08688031215610dfb57610dfa610be6565b5b5f86013567ffffffffffffffff811115610e1857610e17610bea565b5b610e2488828901610d5b565b955050602086013567ffffffffffffffff811115610e4557610e44610bea565b5b610e5188828901610d5b565b945050604086013567ffffffffffffffff811115610e7257610e71610bea565b5b610e7e88828901610d5b565b9350506060610e8f88828901610c0d565b9250506080610ea088828901610dce565b9150509295509295909350565b610eb681610bee565b82525050565b5f602082019050610ecf5f830184610ead565b92915050565b5f81519050919050565b5f82825260208201905092915050565b5f819050602082019050919050565b5f81519050919050565b5f82825260208201905092915050565b8281835e5f83830152505050565b5f610f3082610efe565b610f3a8185610f08565b9350610f4a818560208601610f18565b610f5381610c54565b840191505092915050565b610f6781610bee565b82525050565b610f7681610da7565b82525050565b5f81519050919050565b5f82825260208201905092915050565b5f819050602082019050919050565b5f610fb08383610f6d565b60208301905092915050565b5f602082019050919050565b5f610fd282610f7c565b610fdc8185610f86565b9350610fe783610f96565b805f5b83811015611017578151610ffe8882610fa5565b975061100983610fbc565b925050600181019050610fea565b5085935050505092915050565b5f81519050919050565b5f82825260208201905092915050565b5f819050602082019050919050565b5f6110588383610f5e565b60208301905092915050565b5f602082019050919050565b5f61107a82611024565b611084818561102e565b935061108f8361103e565b805f5b838110156110bf5781516110a6888261104d565b97506110b183611064565b925050600181019050611092565b5085935050505092915050565b5f61012083015f8301518482035f8601526110e78282610f26565b915050602083015184820360208601526111018282610f26565b9150506040830151848203604086015261111b8282610f26565b91505060608301516111306060860182610f5e565b5060808301516111436080860182610f5e565b5060a083015161115660a0860182610f5e565b5060c083015161116960c0860182610f6d565b5060e083015184820360e08601526111818282610fc8565b91505061010083015184820361010086015261119d8282611070565b9150508091505092915050565b5f6111b583836110cc565b905092915050565b5f602082019050919050565b5f6111d382610ed5565b6111dd8185610edf565b9350836020820285016111ef85610eef565b805f5b8581101561122a578484038952815161120b85826111aa565b9450611216836111bd565b925060208a019950506001810190506111f2565b50829750879550505050505092915050565b5f6020820190508181035f83015261125481846111c9565b905092915050565b5f82825260208201905092915050565b5f61127682610efe565b611280818561125c565b9350611290818560208601610f18565b61129981610c54565b840191505092915050565b6112ad81610da7565b82525050565b5f60e0820190508181035f8301526112cb818a61126c565b905081810360208301526112df818961126c565b905081810360408301526112f3818861126c565b90506113026060830187610ead565b61130f6080830186610ead565b61131c60a0830185610ead565b61132960c08301846112a4565b98975050505050505050565b5f82825260208201905092915050565b5f61134f82610f7c565b6113598185611335565b935061136483610f96565b805f5b8381101561139457815161137b8882610fa5565b975061138683610fbc565b925050600181019050611367565b5085935050505092915050565b5f82825260208201905092915050565b5f6113bb82611024565b6113c581856113a1565b93506113d08361103e565b805f5b838110156114005781516113e7888261104d565b97506113f283611064565b9250506001810190506113d3565b5085935050505092915050565b5f6040820190508181035f8301526114258185611345565b9050818103602083015261143981846113b1565b90509392505050565b7f4f6e6c79206f776e65722063616e207769746864726177206d6f6e65790000005f82015250565b5f611476601d8361125c565b915061148182611442565b602082019050919050565b5f6020820190508181035f8301526114a38161146a565b9050919050565b5f81905092915050565b50565b5f6114c25f836114aa565b91506114cd826114b4565b5f82019050919050565b5f6114e1826114b7565b9150819050919050565b7f536f6d657468696e672077656e742077726f6e670000000000000000000000005f82015250565b5f61151f60148361125c565b915061152a826114eb565b602082019050919050565b5f6020820190508181035f83015261154c81611513565b9050919050565b7f4e487b71000000000000000000000000000000000000000000000000000000005f52602260045260245ffd5b5f600282049050600182168061159757607f821691505b6020821081036115aa576115a9611553565b5b50919050565b5f819050815f5260205f209050919050565b5f6020601f8301049050919050565b5f82821b905092915050565b5f6008830261160c7fffffffffffffffffffffffffffffffffffffffffffffffffffffffffffffffff826115d1565b61161686836115d1565b95508019841693508086168417925050509392505050565b5f819050919050565b5f61165161164c61164784610bee565b61162e565b610bee565b9050919050565b5f819050919050565b61166a83611637565b61167e61167682611658565b8484546115dd565b825550505050565b5f90565b611692611686565b61169d818484611661565b505050565b5b818110156116c0576116b55f8261168a565b6001810190506116a3565b5050565b601f821115611705576116d6816115b0565b6116df846115c2565b810160208510156116ee578190505b6117026116fa856115c2565b8301826116a2565b50505b505050565b5f82821c905092915050565b5f6117255f198460080261170a565b1980831691505092915050565b5f61173d8383611716565b9150826002028217905092915050565b61175682610efe565b67ffffffffffffffff81111561176f5761176e610c64565b5b6117798254611580565b6117848282856116c4565b5f60209050601f8311600181146117b5575f84156117a3578287015190505b6117ad8582611732565b865550611814565b601f1984166117c3866115b0565b5f5b828110156117ea578489015182556001820191506020850194506020810190506117c5565b868310156118075784890151611803601f891682611716565b8355505b6001600288020188555050505b505050505050565b7f4e487b71000000000000000000000000000000000000000000000000000000005f52601160045260245ffd5b5f61185382610bee565b91507fffffffffffffffffffffffffffffffffffffffffffffffffffffffffffffffff82036118855761188461181c565b5b600182019050919050565b5f61189a82610bee565b91506118a583610bee565b92508282039050818111156118bd576118bc61181c565b5b92915050565b7f4e487b71000000000000000000000000000000000000000000000000000000005f52603260045260245ffd5b5f6118fa82610bee565b915061190583610bee565b925082820190508082111561191d5761191c61181c565b5b9291505056fea2646970667358221220e6da9b8282a8cf227f1e2b73f010bde67a13bef20c2a37bef9389dccb8d6c71a64736f6c634300081a0033",
					"opcodes": "PUSH1 0x80 PUSH1 0x40 MSTORE PUSH0 DUP1 SSTORE CALLVALUE DUP1 ISZERO PUSH1 0x11 JUMPI PUSH0 DUP1 REVERT JUMPDEST POP PUSH2 0x1959 DUP1 PUSH2 0x1F PUSH0 CODECOPY PUSH0 RETURN INVALID PUSH1 0x80 PUSH1 0x40 MSTORE PUSH1 0x4 CALLDATASIZE LT PUSH2 0x6F JUMPI PUSH0 CALLDATALOAD PUSH1 0xE0 SHR DUP1 PUSH4 0xAB4A0B32 GT PUSH2 0x4D JUMPI DUP1 PUSH4 0xAB4A0B32 EQ PUSH2 0x101 JUMPI DUP1 PUSH4 0xCA1D209D EQ PUSH2 0x12B JUMPI DUP1 PUSH4 0xD8443124 EQ PUSH2 0x147 JUMPI DUP1 PUSH4 0xE27883FB EQ PUSH2 0x189 JUMPI PUSH2 0x6F JUMP JUMPDEST DUP1 PUSH4 0x2E1A7D4D EQ PUSH2 0x73 JUMPI DUP1 PUSH4 0x35640410 EQ PUSH2 0x9B JUMPI DUP1 PUSH4 0x4CA079F2 EQ PUSH2 0xD7 JUMPI JUMPDEST PUSH0 DUP1 REVERT JUMPDEST CALLVALUE DUP1 ISZERO PUSH2 0x7E JUMPI PUSH0 DUP1 REVERT JUMPDEST POP PUSH2 0x99 PUSH1 0x4 DUP1 CALLDATASIZE SUB DUP2 ADD SWAP1 PUSH2 0x94 SWAP2 SWAP1 PUSH2 0xC21 JUMP JUMPDEST PUSH2 0x1C6 JUMP JUMPDEST STOP JUMPDEST CALLVALUE DUP1 ISZERO PUSH2 0xA6 JUMPI PUSH0 DUP1 REVERT JUMPDEST POP PUSH2 0xC1 PUSH1 0x4 DUP1 CALLDATASIZE SUB DUP2 ADD SWAP1 PUSH2 0xBC SWAP2 SWAP1 PUSH2 0xDE2 JUMP JUMPDEST PUSH2 0x32E JUMP JUMPDEST PUSH1 0x40 MLOAD PUSH2 0xCE SWAP2 SWAP1 PUSH2 0xEBC JUMP JUMPDEST PUSH1 0x40 MLOAD DUP1 SWAP2 SUB SWAP1 RETURN JUMPDEST CALLVALUE DUP1 ISZERO PUSH2 0xE2 JUMPI PUSH0 DUP1 REVERT JUMPDEST POP PUSH2 0xEB PUSH2 0x3F4 JUMP JUMPDEST PUSH1 0x40 MLOAD PUSH2 0xF8 SWAP2 SWAP1 PUSH2 0x123C JUMP JUMPDEST PUSH1 0x40 MLOAD DUP1 SWAP2 SUB SWAP1 RETURN JUMPDEST CALLVALUE DUP1 ISZERO PUSH2 0x10C JUMPI PUSH0 DUP1 REVERT JUMPDEST POP PUSH2 0x115 PUSH2 0x7AC JUMP JUMPDEST PUSH1 0x40 MLOAD PUSH2 0x122 SWAP2 SWAP1 PUSH2 0xEBC JUMP JUMPDEST PUSH1 0x40 MLOAD DUP1 SWAP2 SUB SWAP1 RETURN JUMPDEST PUSH2 0x145 PUSH1 0x4 DUP1 CALLDATASIZE SUB DUP2 ADD SWAP1 PUSH2 0x140 SWAP2 SWAP1 PUSH2 0xC21 JUMP JUMPDEST PUSH2 0x7B1 JUMP JUMPDEST STOP JUMPDEST CALLVALUE DUP1 ISZERO PUSH2 0x152 JUMPI PUSH0 DUP1 REVERT JUMPDEST POP PUSH2 0x16D PUSH1 0x4 DUP1 CALLDATASIZE SUB DUP2 ADD SWAP1 PUSH2 0x168 SWAP2 SWAP1 PUSH2 0xC21 JUMP JUMPDEST PUSH2 0x887 JUMP JUMPDEST PUSH1 0x40 MLOAD PUSH2 0x180 SWAP8 SWAP7 SWAP6 SWAP5 SWAP4 SWAP3 SWAP2 SWAP1 PUSH2 0x12B3 JUMP JUMPDEST PUSH1 0x40 MLOAD DUP1 SWAP2 SUB SWAP1 RETURN JUMPDEST CALLVALUE DUP1 ISZERO PUSH2 0x194 JUMPI PUSH0 DUP1 REVERT JUMPDEST POP PUSH2 0x1AF PUSH1 0x4 DUP1 CALLDATASIZE SUB DUP2 ADD SWAP1 PUSH2 0x1AA SWAP2 SWAP1 PUSH2 0xC21 JUMP JUMPDEST PUSH2 0xA76 JUMP JUMPDEST PUSH1 0x40 MLOAD PUSH2 0x1BD SWAP3 SWAP2 SWAP1 PUSH2 0x140D JUMP JUMPDEST PUSH1 0x40 MLOAD DUP1 SWAP2 SUB SWAP1 RETURN JUMPDEST DUP1 PUSH1 0x1 PUSH0 DUP3 DUP2 MSTORE PUSH1 0x20 ADD SWAP1 DUP2 MSTORE PUSH1 0x20 ADD PUSH0 KECCAK256 PUSH1 0x6 ADD PUSH0 SWAP1 SLOAD SWAP1 PUSH2 0x100 EXP SWAP1 DIV PUSH20 0xFFFFFFFFFFFFFFFFFFFFFFFFFFFFFFFFFFFFFFFF AND PUSH20 0xFFFFFFFFFFFFFFFFFFFFFFFFFFFFFFFFFFFFFFFF AND CALLER PUSH20 0xFFFFFFFFFFFFFFFFFFFFFFFFFFFFFFFFFFFFFFFF AND EQ PUSH2 0x268 JUMPI PUSH1 0x40 MLOAD PUSH32 0x8C379A000000000000000000000000000000000000000000000000000000000 DUP2 MSTORE PUSH1 0x4 ADD PUSH2 0x25F SWAP1 PUSH2 0x148C JUMP JUMPDEST PUSH1 0x40 MLOAD DUP1 SWAP2 SUB SWAP1 REVERT JUMPDEST PUSH0 CALLER PUSH20 0xFFFFFFFFFFFFFFFFFFFFFFFFFFFFFFFFFFFFFFFF AND SELFBALANCE PUSH1 0x40 MLOAD PUSH2 0x28D SWAP1 PUSH2 0x14D7 JUMP JUMPDEST PUSH0 PUSH1 0x40 MLOAD DUP1 DUP4 SUB DUP2 DUP6 DUP8 GAS CALL SWAP3 POP POP POP RETURNDATASIZE DUP1 PUSH0 DUP2 EQ PUSH2 0x2C7 JUMPI PUSH1 0x40 MLOAD SWAP2 POP PUSH1 0x1F NOT PUSH1 0x3F RETURNDATASIZE ADD AND DUP3 ADD PUSH1 0x40 MSTORE RETURNDATASIZE DUP3 MSTORE RETURNDATASIZE PUSH0 PUSH1 0x20 DUP5 ADD RETURNDATACOPY PUSH2 0x2CC JUMP JUMPDEST PUSH1 0x60 SWAP2 POP JUMPDEST POP POP SWAP1 POP DUP1 PUSH2 0x310 JUMPI PUSH1 0x40 MLOAD PUSH32 0x8C379A000000000000000000000000000000000000000000000000000000000 DUP2 MSTORE PUSH1 0x4 ADD PUSH2 0x307 SWAP1 PUSH2 0x1535 JUMP JUMPDEST PUSH1 0x40 MLOAD DUP1 SWAP2 SUB SWAP1 REVERT JUMPDEST PUSH0 PUSH1 0x1 PUSH0 DUP6 DUP2 MSTORE PUSH1 0x20 ADD SWAP1 DUP2 MSTORE PUSH1 0x20 ADD PUSH0 KECCAK256 PUSH1 0x5 ADD DUP2 SWAP1 SSTORE POP POP POP POP JUMP JUMPDEST PUSH0 DUP1 PUSH1 0x1 PUSH0 DUP1 SLOAD DUP2 MSTORE PUSH1 0x20 ADD SWAP1 DUP2 MSTORE PUSH1 0x20 ADD PUSH0 KECCAK256 SWAP1 POP DUP3 DUP2 PUSH1 0x6 ADD PUSH0 PUSH2 0x100 EXP DUP2 SLOAD DUP2 PUSH20 0xFFFFFFFFFFFFFFFFFFFFFFFFFFFFFFFFFFFFFFFF MUL NOT AND SWAP1 DUP4 PUSH20 0xFFFFFFFFFFFFFFFFFFFFFFFFFFFFFFFFFFFFFFFF AND MUL OR SWAP1 SSTORE POP DUP7 DUP2 PUSH0 ADD SWAP1 DUP2 PUSH2 0x396 SWAP2 SWAP1 PUSH2 0x174D JUMP JUMPDEST POP DUP6 DUP2 PUSH1 0x1 ADD SWAP1 DUP2 PUSH2 0x3A8 SWAP2 SWAP1 PUSH2 0x174D JUMP JUMPDEST POP DUP5 DUP2 PUSH1 0x2 ADD SWAP1 DUP2 PUSH2 0x3BA SWAP2 SWAP1 PUSH2 0x174D JUMP JUMPDEST POP DUP4 DUP2 PUSH1 0x3 ADD DUP2 SWAP1 SSTORE POP PUSH0 DUP1 DUP2 SLOAD DUP1 SWAP3 SWAP2 SWAP1 PUSH2 0x3D5 SWAP1 PUSH2 0x1849 JUMP JUMPDEST SWAP2 SWAP1 POP SSTORE POP PUSH1 0x1 PUSH0 SLOAD PUSH2 0x3E8 SWAP2 SWAP1 PUSH2 0x1890 JUMP JUMPDEST SWAP2 POP POP SWAP6 SWAP5 POP POP POP POP POP JUMP JUMPDEST PUSH1 0x60 PUSH0 DUP1 SLOAD PUSH8 0xFFFFFFFFFFFFFFFF DUP2 GT ISZERO PUSH2 0x412 JUMPI PUSH2 0x411 PUSH2 0xC64 JUMP JUMPDEST JUMPDEST PUSH1 0x40 MLOAD SWAP1 DUP1 DUP3 MSTORE DUP1 PUSH1 0x20 MUL PUSH1 0x20 ADD DUP3 ADD PUSH1 0x40 MSTORE DUP1 ISZERO PUSH2 0x44B JUMPI DUP2 PUSH1 0x20 ADD JUMPDEST PUSH2 0x438 PUSH2 0xB7F JUMP JUMPDEST DUP2 MSTORE PUSH1 0x20 ADD SWAP1 PUSH1 0x1 SWAP1 SUB SWAP1 DUP2 PUSH2 0x430 JUMPI SWAP1 POP JUMPDEST POP SWAP1 POP PUSH0 JUMPDEST PUSH0 SLOAD DUP2 LT ISZERO PUSH2 0x7A4 JUMPI PUSH1 0x1 PUSH0 DUP3 DUP2 MSTORE PUSH1 0x20 ADD SWAP1 DUP2 MSTORE PUSH1 0x20 ADD PUSH0 KECCAK256 PUSH1 0x40 MLOAD DUP1 PUSH2 0x120 ADD PUSH1 0x40 MSTORE SWAP1 DUP2 PUSH0 DUP3 ADD DUP1 SLOAD PUSH2 0x485 SWAP1 PUSH2 0x1580 JUMP JUMPDEST DUP1 PUSH1 0x1F ADD PUSH1 0x20 DUP1 SWAP2 DIV MUL PUSH1 0x20 ADD PUSH1 0x40 MLOAD SWAP1 DUP2 ADD PUSH1 0x40 MSTORE DUP1 SWAP3 SWAP2 SWAP1 DUP2 DUP2 MSTORE PUSH1 0x20 ADD DUP3 DUP1 SLOAD PUSH2 0x4B1 SWAP1 PUSH2 0x1580 JUMP JUMPDEST DUP1 ISZERO PUSH2 0x4FC JUMPI DUP1 PUSH1 0x1F LT PUSH2 0x4D3 JUMPI PUSH2 0x100 DUP1 DUP4 SLOAD DIV MUL DUP4 MSTORE SWAP2 PUSH1 0x20 ADD SWAP2 PUSH2 0x4FC JUMP JUMPDEST DUP3 ADD SWAP2 SWAP1 PUSH0 MSTORE PUSH1 0x20 PUSH0 KECCAK256 SWAP1 JUMPDEST DUP2 SLOAD DUP2 MSTORE SWAP1 PUSH1 0x1 ADD SWAP1 PUSH1 0x20 ADD DUP1 DUP4 GT PUSH2 0x4DF JUMPI DUP3 SWAP1 SUB PUSH1 0x1F AND DUP3 ADD SWAP2 JUMPDEST POP POP POP POP POP DUP2 MSTORE PUSH1 0x20 ADD PUSH1 0x1 DUP3 ADD DUP1 SLOAD PUSH2 0x515 SWAP1 PUSH2 0x1580 JUMP JUMPDEST DUP1 PUSH1 0x1F ADD PUSH1 0x20 DUP1 SWAP2 DIV MUL PUSH1 0x20 ADD PUSH1 0x40 MLOAD SWAP1 DUP2 ADD PUSH1 0x40 MSTORE DUP1 SWAP3 SWAP2 SWAP1 DUP2 DUP2 MSTORE PUSH1 0x20 ADD DUP3 DUP1 SLOAD PUSH2 0x541 SWAP1 PUSH2 0x1580 JUMP JUMPDEST DUP1 ISZERO PUSH2 0x58C JUMPI DUP1 PUSH1 0x1F LT PUSH2 0x563 JUMPI PUSH2 0x100 DUP1 DUP4 SLOAD DIV MUL DUP4 MSTORE SWAP2 PUSH1 0x20 ADD SWAP2 PUSH2 0x58C JUMP JUMPDEST DUP3 ADD SWAP2 SWAP1 PUSH0 MSTORE PUSH1 0x20 PUSH0 KECCAK256 SWAP1 JUMPDEST DUP2 SLOAD DUP2 MSTORE SWAP1 PUSH1 0x1 ADD SWAP1 PUSH1 0x20 ADD DUP1 DUP4 GT PUSH2 0x56F JUMPI DUP3 SWAP1 SUB PUSH1 0x1F AND DUP3 ADD SWAP2 JUMPDEST POP POP POP POP POP DUP2 MSTORE PUSH1 0x20 ADD PUSH1 0x2 DUP3 ADD DUP1 SLOAD PUSH2 0x5A5 SWAP1 PUSH2 0x1580 JUMP JUMPDEST DUP1 PUSH1 0x1F ADD PUSH1 0x20 DUP1 SWAP2 DIV MUL PUSH1 0x20 ADD PUSH1 0x40 MLOAD SWAP1 DUP2 ADD PUSH1 0x40 MSTORE DUP1 SWAP3 SWAP2 SWAP1 DUP2 DUP2 MSTORE PUSH1 0x20 ADD DUP3 DUP1 SLOAD PUSH2 0x5D1 SWAP1 PUSH2 0x1580 JUMP JUMPDEST DUP1 ISZERO PUSH2 0x61C JUMPI DUP1 PUSH1 0x1F LT PUSH2 0x5F3 JUMPI PUSH2 0x100 DUP1 DUP4 SLOAD DIV MUL DUP4 MSTORE SWAP2 PUSH1 0x20 ADD SWAP2 PUSH2 0x61C JUMP JUMPDEST DUP3 ADD SWAP2 SWAP1 PUSH0 MSTORE PUSH1 0x20 PUSH0 KECCAK256 SWAP1 JUMPDEST DUP2 SLOAD DUP2 MSTORE SWAP1 PUSH1 0x1 ADD SWAP1 PUSH1 0x20 ADD DUP1 DUP4 GT PUSH2 0x5FF JUMPI DUP3 SWAP1 SUB PUSH1 0x1F AND DUP3 ADD SWAP2 JUMPDEST POP POP POP POP POP DUP2 MSTORE PUSH1 0x20 ADD PUSH1 0x3 DUP3 ADD SLOAD DUP2 MSTORE PUSH1 0x20 ADD PUSH1 0x4 DUP3 ADD SLOAD DUP2 MSTORE PUSH1 0x20 ADD PUSH1 0x5 DUP3 ADD SLOAD DUP2 MSTORE PUSH1 0x20 ADD PUSH1 0x6 DUP3 ADD PUSH0 SWAP1 SLOAD SWAP1 PUSH2 0x100 EXP SWAP1 DIV PUSH20 0xFFFFFFFFFFFFFFFFFFFFFFFFFFFFFFFFFFFFFFFF AND PUSH20 0xFFFFFFFFFFFFFFFFFFFFFFFFFFFFFFFFFFFFFFFF AND PUSH20 0xFFFFFFFFFFFFFFFFFFFFFFFFFFFFFFFFFFFFFFFF AND DUP2 MSTORE PUSH1 0x20 ADD PUSH1 0x7 DUP3 ADD DUP1 SLOAD DUP1 PUSH1 0x20 MUL PUSH1 0x20 ADD PUSH1 0x40 MLOAD SWAP1 DUP2 ADD PUSH1 0x40 MSTORE DUP1 SWAP3 SWAP2 SWAP1 DUP2 DUP2 MSTORE PUSH1 0x20 ADD DUP3 DUP1 SLOAD DUP1 ISZERO PUSH2 0x71A JUMPI PUSH1 0x20 MUL DUP3 ADD SWAP2 SWAP1 PUSH0 MSTORE PUSH1 0x20 PUSH0 KECCAK256 SWAP1 JUMPDEST DUP2 PUSH0 SWAP1 SLOAD SWAP1 PUSH2 0x100 EXP SWAP1 DIV PUSH20 0xFFFFFFFFFFFFFFFFFFFFFFFFFFFFFFFFFFFFFFFF AND PUSH20 0xFFFFFFFFFFFFFFFFFFFFFFFFFFFFFFFFFFFFFFFF AND DUP2 MSTORE PUSH1 0x20 ADD SWAP1 PUSH1 0x1 ADD SWAP1 DUP1 DUP4 GT PUSH2 0x6D1 JUMPI JUMPDEST POP POP POP POP POP DUP2 MSTORE PUSH1 0x20 ADD PUSH1 0x8 DUP3 ADD DUP1 SLOAD DUP1 PUSH1 0x20 MUL PUSH1 0x20 ADD PUSH1 0x40 MLOAD SWAP1 DUP2 ADD PUSH1 0x40 MSTORE DUP1 SWAP3 SWAP2 SWAP1 DUP2 DUP2 MSTORE PUSH1 0x20 ADD DUP3 DUP1 SLOAD DUP1 ISZERO PUSH2 0x770 JUMPI PUSH1 0x20 MUL DUP3 ADD SWAP2 SWAP1 PUSH0 MSTORE PUSH1 0x20 PUSH0 KECCAK256 SWAP1 JUMPDEST DUP2 SLOAD DUP2 MSTORE PUSH1 0x20 ADD SWAP1 PUSH1 0x1 ADD SWAP1 DUP1 DUP4 GT PUSH2 0x75C JUMPI JUMPDEST POP POP POP POP POP DUP2 MSTORE POP POP DUP3 DUP3 DUP2 MLOAD DUP2 LT PUSH2 0x78C JUMPI PUSH2 0x78B PUSH2 0x18C3 JUMP JUMPDEST JUMPDEST PUSH1 0x20 MUL PUSH1 0x20 ADD ADD DUP2 SWAP1 MSTORE POP DUP1 DUP1 PUSH1 0x1 ADD SWAP2 POP POP PUSH2 0x450 JUMP JUMPDEST POP DUP1 SWAP2 POP POP SWAP1 JUMP JUMPDEST PUSH0 SLOAD DUP2 JUMP JUMPDEST PUSH0 PUSH1 0x1 PUSH0 DUP4 DUP2 MSTORE PUSH1 0x20 ADD SWAP1 DUP2 MSTORE PUSH1 0x20 ADD PUSH0 KECCAK256 SWAP1 POP DUP1 PUSH1 0x7 ADD CALLER SWAP1 DUP1 PUSH1 0x1 DUP2 SLOAD ADD DUP1 DUP3 SSTORE DUP1 SWAP2 POP POP PUSH1 0x1 SWAP1 SUB SWAP1 PUSH0 MSTORE PUSH1 0x20 PUSH0 KECCAK256 ADD PUSH0 SWAP1 SWAP2 SWAP1 SWAP2 SWAP1 SWAP2 PUSH2 0x100 EXP DUP2 SLOAD DUP2 PUSH20 0xFFFFFFFFFFFFFFFFFFFFFFFFFFFFFFFFFFFFFFFF MUL NOT AND SWAP1 DUP4 PUSH20 0xFFFFFFFFFFFFFFFFFFFFFFFFFFFFFFFFFFFFFFFF AND MUL OR SWAP1 SSTORE POP DUP1 PUSH1 0x8 ADD CALLVALUE SWAP1 DUP1 PUSH1 0x1 DUP2 SLOAD ADD DUP1 DUP3 SSTORE DUP1 SWAP2 POP POP PUSH1 0x1 SWAP1 SUB SWAP1 PUSH0 MSTORE PUSH1 0x20 PUSH0 KECCAK256 ADD PUSH0 SWAP1 SWAP2 SWAP1 SWAP2 SWAP1 SWAP2 POP SSTORE CALLVALUE DUP2 PUSH1 0x4 ADD PUSH0 DUP3 DUP3 SLOAD PUSH2 0x862 SWAP2 SWAP1 PUSH2 0x18F0 JUMP JUMPDEST SWAP3 POP POP DUP2 SWAP1 SSTORE POP CALLVALUE DUP2 PUSH1 0x5 ADD PUSH0 DUP3 DUP3 SLOAD PUSH2 0x87C SWAP2 SWAP1 PUSH2 0x18F0 JUMP JUMPDEST SWAP3 POP POP DUP2 SWAP1 SSTORE POP POP POP JUMP JUMPDEST PUSH1 0x1 PUSH1 0x20 MSTORE DUP1 PUSH0 MSTORE PUSH1 0x40 PUSH0 KECCAK256 PUSH0 SWAP2 POP SWAP1 POP DUP1 PUSH0 ADD DUP1 SLOAD PUSH2 0x8A6 SWAP1 PUSH2 0x1580 JUMP JUMPDEST DUP1 PUSH1 0x1F ADD PUSH1 0x20 DUP1 SWAP2 DIV MUL PUSH1 0x20 ADD PUSH1 0x40 MLOAD SWAP1 DUP2 ADD PUSH1 0x40 MSTORE DUP1 SWAP3 SWAP2 SWAP1 DUP2 DUP2 MSTORE PUSH1 0x20 ADD DUP3 DUP1 SLOAD PUSH2 0x8D2 SWAP1 PUSH2 0x1580 JUMP JUMPDEST DUP1 ISZERO PUSH2 0x91D JUMPI DUP1 PUSH1 0x1F LT PUSH2 0x8F4 JUMPI PUSH2 0x100 DUP1 DUP4 SLOAD DIV MUL DUP4 MSTORE SWAP2 PUSH1 0x20 ADD SWAP2 PUSH2 0x91D JUMP JUMPDEST DUP3 ADD SWAP2 SWAP1 PUSH0 MSTORE PUSH1 0x20 PUSH0 KECCAK256 SWAP1 JUMPDEST DUP2 SLOAD DUP2 MSTORE SWAP1 PUSH1 0x1 ADD SWAP1 PUSH1 0x20 ADD DUP1 DUP4 GT PUSH2 0x900 JUMPI DUP3 SWAP1 SUB PUSH1 0x1F AND DUP3 ADD SWAP2 JUMPDEST POP POP POP POP POP SWAP1 DUP1 PUSH1 0x1 ADD DUP1 SLOAD PUSH2 0x932 SWAP1 PUSH2 0x1580 JUMP JUMPDEST DUP1 PUSH1 0x1F ADD PUSH1 0x20 DUP1 SWAP2 DIV MUL PUSH1 0x20 ADD PUSH1 0x40 MLOAD SWAP1 DUP2 ADD PUSH1 0x40 MSTORE DUP1 SWAP3 SWAP2 SWAP1 DUP2 DUP2 MSTORE PUSH1 0x20 ADD DUP3 DUP1 SLOAD PUSH2 0x95E SWAP1 PUSH2 0x1580 JUMP JUMPDEST DUP1 ISZERO PUSH2 0x9A9 JUMPI DUP1 PUSH1 0x1F LT PUSH2 0x980 JUMPI PUSH2 0x100 DUP1 DUP4 SLOAD DIV MUL DUP4 MSTORE SWAP2 PUSH1 0x20 ADD SWAP2 PUSH2 0x9A9 JUMP JUMPDEST DUP3 ADD SWAP2 SWAP1 PUSH0 MSTORE PUSH1 0x20 PUSH0 KECCAK256 SWAP1 JUMPDEST DUP2 SLOAD DUP2 MSTORE SWAP1 PUSH1 0x1 ADD SWAP1 PUSH1 0x20 ADD DUP1 DUP4 GT PUSH2 0x98C JUMPI DUP3 SWAP1 SUB PUSH1 0x1F AND DUP3 ADD SWAP2 JUMPDEST POP POP POP POP POP SWAP1 DUP1 PUSH1 0x2 ADD DUP1 SLOAD PUSH2 0x9BE SWAP1 PUSH2 0x1580 JUMP JUMPDEST DUP1 PUSH1 0x1F ADD PUSH1 0x20 DUP1 SWAP2 DIV MUL PUSH1 0x20 ADD PUSH1 0x40 MLOAD SWAP1 DUP2 ADD PUSH1 0x40 MSTORE DUP1 SWAP3 SWAP2 SWAP1 DUP2 DUP2 MSTORE PUSH1 0x20 ADD DUP3 DUP1 SLOAD PUSH2 0x9EA SWAP1 PUSH2 0x1580 JUMP JUMPDEST DUP1 ISZERO PUSH2 0xA35 JUMPI DUP1 PUSH1 0x1F LT PUSH2 0xA0C JUMPI PUSH2 0x100 DUP1 DUP4 SLOAD DIV MUL DUP4 MSTORE SWAP2 PUSH1 0x20 ADD SWAP2 PUSH2 0xA35 JUMP JUMPDEST DUP3 ADD SWAP2 SWAP1 PUSH0 MSTORE PUSH1 0x20 PUSH0 KECCAK256 SWAP1 JUMPDEST DUP2 SLOAD DUP2 MSTORE SWAP1 PUSH1 0x1 ADD SWAP1 PUSH1 0x20 ADD DUP1 DUP4 GT PUSH2 0xA18 JUMPI DUP3 SWAP1 SUB PUSH1 0x1F AND DUP3 ADD SWAP2 JUMPDEST POP POP POP POP POP SWAP1 DUP1 PUSH1 0x3 ADD SLOAD SWAP1 DUP1 PUSH1 0x4 ADD SLOAD SWAP1 DUP1 PUSH1 0x5 ADD SLOAD SWAP1 DUP1 PUSH1 0x6 ADD PUSH0 SWAP1 SLOAD SWAP1 PUSH2 0x100 EXP SWAP1 DIV PUSH20 0xFFFFFFFFFFFFFFFFFFFFFFFFFFFFFFFFFFFFFFFF AND SWAP1 POP DUP8 JUMP JUMPDEST PUSH1 0x60 DUP1 PUSH1 0x1 PUSH0 DUP5 DUP2 MSTORE PUSH1 0x20 ADD SWAP1 DUP2 MSTORE PUSH1 0x20 ADD PUSH0 KECCAK256 PUSH1 0x7 ADD PUSH1 0x1 PUSH0 DUP6 DUP2 MSTORE PUSH1 0x20 ADD SWAP1 DUP2 MSTORE PUSH1 0x20 ADD PUSH0 KECCAK256 PUSH1 0x8 ADD DUP2 DUP1 SLOAD DUP1 PUSH1 0x20 MUL PUSH1 0x20 ADD PUSH1 0x40 MLOAD SWAP1 DUP2 ADD PUSH1 0x40 MSTORE DUP1 SWAP3 SWAP2 SWAP1 DUP2 DUP2 MSTORE PUSH1 0x20 ADD DUP3 DUP1 SLOAD DUP1 ISZERO PUSH2 0xB1F JUMPI PUSH1 0x20 MUL DUP3 ADD SWAP2 SWAP1 PUSH0 MSTORE PUSH1 0x20 PUSH0 KECCAK256 SWAP1 JUMPDEST DUP2 PUSH0 SWAP1 SLOAD SWAP1 PUSH2 0x100 EXP SWAP1 DIV PUSH20 0xFFFFFFFFFFFFFFFFFFFFFFFFFFFFFFFFFFFFFFFF AND PUSH20 0xFFFFFFFFFFFFFFFFFFFFFFFFFFFFFFFFFFFFFFFF AND DUP2 MSTORE PUSH1 0x20 ADD SWAP1 PUSH1 0x1 ADD SWAP1 DUP1 DUP4 GT PUSH2 0xAD6 JUMPI JUMPDEST POP POP POP POP POP SWAP2 POP DUP1 DUP1 SLOAD DUP1 PUSH1 0x20 MUL PUSH1 0x20 ADD PUSH1 0x40 MLOAD SWAP1 DUP2 ADD PUSH1 0x40 MSTORE DUP1 SWAP3 SWAP2 SWAP1 DUP2 DUP2 MSTORE PUSH1 0x20 ADD DUP3 DUP1 SLOAD DUP1 ISZERO PUSH2 0xB6F JUMPI PUSH1 0x20 MUL DUP3 ADD SWAP2 SWAP1 PUSH0 MSTORE PUSH1 0x20 PUSH0 KECCAK256 SWAP1 JUMPDEST DUP2 SLOAD DUP2 MSTORE PUSH1 0x20 ADD SWAP1 PUSH1 0x1 ADD SWAP1 DUP1 DUP4 GT PUSH2 0xB5B JUMPI JUMPDEST POP POP POP POP POP SWAP1 POP SWAP2 POP SWAP2 POP SWAP2 POP SWAP2 JUMP JUMPDEST PUSH1 0x40 MLOAD DUP1 PUSH2 0x120 ADD PUSH1 0x40 MSTORE DUP1 PUSH1 0x60 DUP2 MSTORE PUSH1 0x20 ADD PUSH1 0x60 DUP2 MSTORE PUSH1 0x20 ADD PUSH1 0x60 DUP2 MSTORE PUSH1 0x20 ADD PUSH0 DUP2 MSTORE PUSH1 0x20 ADD PUSH0 DUP2 MSTORE PUSH1 0x20 ADD PUSH0 DUP2 MSTORE PUSH1 0x20 ADD PUSH0 PUSH20 0xFFFFFFFFFFFFFFFFFFFFFFFFFFFFFFFFFFFFFFFF AND DUP2 MSTORE PUSH1 0x20 ADD PUSH1 0x60 DUP2 MSTORE PUSH1 0x20 ADD PUSH1 0x60 DUP2 MSTORE POP SWAP1 JUMP JUMPDEST PUSH0 PUSH1 0x40 MLOAD SWAP1 POP SWAP1 JUMP JUMPDEST PUSH0 DUP1 REVERT JUMPDEST PUSH0 DUP1 REVERT JUMPDEST PUSH0 DUP2 SWAP1 POP SWAP2 SWAP1 POP JUMP JUMPDEST PUSH2 0xC00 DUP2 PUSH2 0xBEE JUMP JUMPDEST DUP2 EQ PUSH2 0xC0A JUMPI PUSH0 DUP1 REVERT JUMPDEST POP JUMP JUMPDEST PUSH0 DUP2 CALLDATALOAD SWAP1 POP PUSH2 0xC1B DUP2 PUSH2 0xBF7 JUMP JUMPDEST SWAP3 SWAP2 POP POP JUMP JUMPDEST PUSH0 PUSH1 0x20 DUP3 DUP5 SUB SLT ISZERO PUSH2 0xC36 JUMPI PUSH2 0xC35 PUSH2 0xBE6 JUMP JUMPDEST JUMPDEST PUSH0 PUSH2 0xC43 DUP5 DUP3 DUP6 ADD PUSH2 0xC0D JUMP JUMPDEST SWAP2 POP POP SWAP3 SWAP2 POP POP JUMP JUMPDEST PUSH0 DUP1 REVERT JUMPDEST PUSH0 DUP1 REVERT JUMPDEST PUSH0 PUSH1 0x1F NOT PUSH1 0x1F DUP4 ADD AND SWAP1 POP SWAP2 SWAP1 POP JUMP JUMPDEST PUSH32 0x4E487B7100000000000000000000000000000000000000000000000000000000 PUSH0 MSTORE PUSH1 0x41 PUSH1 0x4 MSTORE PUSH1 0x24 PUSH0 REVERT JUMPDEST PUSH2 0xC9A DUP3 PUSH2 0xC54 JUMP JUMPDEST DUP2 ADD DUP2 DUP2 LT PUSH8 0xFFFFFFFFFFFFFFFF DUP3 GT OR ISZERO PUSH2 0xCB9 JUMPI PUSH2 0xCB8 PUSH2 0xC64 JUMP JUMPDEST JUMPDEST DUP1 PUSH1 0x40 MSTORE POP POP POP JUMP JUMPDEST PUSH0 PUSH2 0xCCB PUSH2 0xBDD JUMP JUMPDEST SWAP1 POP PUSH2 0xCD7 DUP3 DUP3 PUSH2 0xC91 JUMP JUMPDEST SWAP2 SWAP1 POP JUMP JUMPDEST PUSH0 PUSH8 0xFFFFFFFFFFFFFFFF DUP3 GT ISZERO PUSH2 0xCF6 JUMPI PUSH2 0xCF5 PUSH2 0xC64 JUMP JUMPDEST JUMPDEST PUSH2 0xCFF DUP3 PUSH2 0xC54 JUMP JUMPDEST SWAP1 POP PUSH1 0x20 DUP2 ADD SWAP1 POP SWAP2 SWAP1 POP JUMP JUMPDEST DUP3 DUP2 DUP4 CALLDATACOPY PUSH0 DUP4 DUP4 ADD MSTORE POP POP POP JUMP JUMPDEST PUSH0 PUSH2 0xD2C PUSH2 0xD27 DUP5 PUSH2 0xCDC JUMP JUMPDEST PUSH2 0xCC2 JUMP JUMPDEST SWAP1 POP DUP3 DUP2 MSTORE PUSH1 0x20 DUP2 ADD DUP5 DUP5 DUP5 ADD GT ISZERO PUSH2 0xD48 JUMPI PUSH2 0xD47 PUSH2 0xC50 JUMP JUMPDEST JUMPDEST PUSH2 0xD53 DUP5 DUP3 DUP6 PUSH2 0xD0C JUMP JUMPDEST POP SWAP4 SWAP3 POP POP POP JUMP JUMPDEST PUSH0 DUP3 PUSH1 0x1F DUP4 ADD SLT PUSH2 0xD6F JUMPI PUSH2 0xD6E PUSH2 0xC4C JUMP JUMPDEST JUMPDEST DUP2 CALLDATALOAD PUSH2 0xD7F DUP5 DUP3 PUSH1 0x20 DUP7 ADD PUSH2 0xD1A JUMP JUMPDEST SWAP2 POP POP SWAP3 SWAP2 POP POP JUMP JUMPDEST PUSH0 PUSH20 0xFFFFFFFFFFFFFFFFFFFFFFFFFFFFFFFFFFFFFFFF DUP3 AND SWAP1 POP SWAP2 SWAP1 POP JUMP JUMPDEST PUSH0 PUSH2 0xDB1 DUP3 PUSH2 0xD88 JUMP JUMPDEST SWAP1 POP SWAP2 SWAP1 POP JUMP JUMPDEST PUSH2 0xDC1 DUP2 PUSH2 0xDA7 JUMP JUMPDEST DUP2 EQ PUSH2 0xDCB JUMPI PUSH0 DUP1 REVERT JUMPDEST POP JUMP JUMPDEST PUSH0 DUP2 CALLDATALOAD SWAP1 POP PUSH2 0xDDC DUP2 PUSH2 0xDB8 JUMP JUMPDEST SWAP3 SWAP2 POP POP JUMP JUMPDEST PUSH0 DUP1 PUSH0 DUP1 PUSH0 PUSH1 0xA0 DUP7 DUP9 SUB SLT ISZERO PUSH2 0xDFB JUMPI PUSH2 0xDFA PUSH2 0xBE6 JUMP JUMPDEST JUMPDEST PUSH0 DUP7 ADD CALLDATALOAD PUSH8 0xFFFFFFFFFFFFFFFF DUP2 GT ISZERO PUSH2 0xE18 JUMPI PUSH2 0xE17 PUSH2 0xBEA JUMP JUMPDEST JUMPDEST PUSH2 0xE24 DUP9 DUP3 DUP10 ADD PUSH2 0xD5B JUMP JUMPDEST SWAP6 POP POP PUSH1 0x20 DUP7 ADD CALLDATALOAD PUSH8 0xFFFFFFFFFFFFFFFF DUP2 GT ISZERO PUSH2 0xE45 JUMPI PUSH2 0xE44 PUSH2 0xBEA JUMP JUMPDEST JUMPDEST PUSH2 0xE51 DUP9 DUP3 DUP10 ADD PUSH2 0xD5B JUMP JUMPDEST SWAP5 POP POP PUSH1 0x40 DUP7 ADD CALLDATALOAD PUSH8 0xFFFFFFFFFFFFFFFF DUP2 GT ISZERO PUSH2 0xE72 JUMPI PUSH2 0xE71 PUSH2 0xBEA JUMP JUMPDEST JUMPDEST PUSH2 0xE7E DUP9 DUP3 DUP10 ADD PUSH2 0xD5B JUMP JUMPDEST SWAP4 POP POP PUSH1 0x60 PUSH2 0xE8F DUP9 DUP3 DUP10 ADD PUSH2 0xC0D JUMP JUMPDEST SWAP3 POP POP PUSH1 0x80 PUSH2 0xEA0 DUP9 DUP3 DUP10 ADD PUSH2 0xDCE JUMP JUMPDEST SWAP2 POP POP SWAP3 SWAP6 POP SWAP3 SWAP6 SWAP1 SWAP4 POP JUMP JUMPDEST PUSH2 0xEB6 DUP2 PUSH2 0xBEE JUMP JUMPDEST DUP3 MSTORE POP POP JUMP JUMPDEST PUSH0 PUSH1 0x20 DUP3 ADD SWAP1 POP PUSH2 0xECF PUSH0 DUP4 ADD DUP5 PUSH2 0xEAD JUMP JUMPDEST SWAP3 SWAP2 POP POP JUMP JUMPDEST PUSH0 DUP2 MLOAD SWAP1 POP SWAP2 SWAP1 POP JUMP JUMPDEST PUSH0 DUP3 DUP3 MSTORE PUSH1 0x20 DUP3 ADD SWAP1 POP SWAP3 SWAP2 POP POP JUMP JUMPDEST PUSH0 DUP2 SWAP1 POP PUSH1 0x20 DUP3 ADD SWAP1 POP SWAP2 SWAP1 POP JUMP JUMPDEST PUSH0 DUP2 MLOAD SWAP1 POP SWAP2 SWAP1 POP JUMP JUMPDEST PUSH0 DUP3 DUP3 MSTORE PUSH1 0x20 DUP3 ADD SWAP1 POP SWAP3 SWAP2 POP POP JUMP JUMPDEST DUP3 DUP2 DUP4 MCOPY PUSH0 DUP4 DUP4 ADD MSTORE POP POP POP JUMP JUMPDEST PUSH0 PUSH2 0xF30 DUP3 PUSH2 0xEFE JUMP JUMPDEST PUSH2 0xF3A DUP2 DUP6 PUSH2 0xF08 JUMP JUMPDEST SWAP4 POP PUSH2 0xF4A DUP2 DUP6 PUSH1 0x20 DUP7 ADD PUSH2 0xF18 JUMP JUMPDEST PUSH2 0xF53 DUP2 PUSH2 0xC54 JUMP JUMPDEST DUP5 ADD SWAP2 POP POP SWAP3 SWAP2 POP POP JUMP JUMPDEST PUSH2 0xF67 DUP2 PUSH2 0xBEE JUMP JUMPDEST DUP3 MSTORE POP POP JUMP JUMPDEST PUSH2 0xF76 DUP2 PUSH2 0xDA7 JUMP JUMPDEST DUP3 MSTORE POP POP JUMP JUMPDEST PUSH0 DUP2 MLOAD SWAP1 POP SWAP2 SWAP1 POP JUMP JUMPDEST PUSH0 DUP3 DUP3 MSTORE PUSH1 0x20 DUP3 ADD SWAP1 POP SWAP3 SWAP2 POP POP JUMP JUMPDEST PUSH0 DUP2 SWAP1 POP PUSH1 0x20 DUP3 ADD SWAP1 POP SWAP2 SWAP1 POP JUMP JUMPDEST PUSH0 PUSH2 0xFB0 DUP4 DUP4 PUSH2 0xF6D JUMP JUMPDEST PUSH1 0x20 DUP4 ADD SWAP1 POP SWAP3 SWAP2 POP POP JUMP JUMPDEST PUSH0 PUSH1 0x20 DUP3 ADD SWAP1 POP SWAP2 SWAP1 POP JUMP JUMPDEST PUSH0 PUSH2 0xFD2 DUP3 PUSH2 0xF7C JUMP JUMPDEST PUSH2 0xFDC DUP2 DUP6 PUSH2 0xF86 JUMP JUMPDEST SWAP4 POP PUSH2 0xFE7 DUP4 PUSH2 0xF96 JUMP JUMPDEST DUP1 PUSH0 JUMPDEST DUP4 DUP2 LT ISZERO PUSH2 0x1017 JUMPI DUP2 MLOAD PUSH2 0xFFE DUP9 DUP3 PUSH2 0xFA5 JUMP JUMPDEST SWAP8 POP PUSH2 0x1009 DUP4 PUSH2 0xFBC JUMP JUMPDEST SWAP3 POP POP PUSH1 0x1 DUP2 ADD SWAP1 POP PUSH2 0xFEA JUMP JUMPDEST POP DUP6 SWAP4 POP POP POP POP SWAP3 SWAP2 POP POP JUMP JUMPDEST PUSH0 DUP2 MLOAD SWAP1 POP SWAP2 SWAP1 POP JUMP JUMPDEST PUSH0 DUP3 DUP3 MSTORE PUSH1 0x20 DUP3 ADD SWAP1 POP SWAP3 SWAP2 POP POP JUMP JUMPDEST PUSH0 DUP2 SWAP1 POP PUSH1 0x20 DUP3 ADD SWAP1 POP SWAP2 SWAP1 POP JUMP JUMPDEST PUSH0 PUSH2 0x1058 DUP4 DUP4 PUSH2 0xF5E JUMP JUMPDEST PUSH1 0x20 DUP4 ADD SWAP1 POP SWAP3 SWAP2 POP POP JUMP JUMPDEST PUSH0 PUSH1 0x20 DUP3 ADD SWAP1 POP SWAP2 SWAP1 POP JUMP JUMPDEST PUSH0 PUSH2 0x107A DUP3 PUSH2 0x1024 JUMP JUMPDEST PUSH2 0x1084 DUP2 DUP6 PUSH2 0x102E JUMP JUMPDEST SWAP4 POP PUSH2 0x108F DUP4 PUSH2 0x103E JUMP JUMPDEST DUP1 PUSH0 JUMPDEST DUP4 DUP2 LT ISZERO PUSH2 0x10BF JUMPI DUP2 MLOAD PUSH2 0x10A6 DUP9 DUP3 PUSH2 0x104D JUMP JUMPDEST SWAP8 POP PUSH2 0x10B1 DUP4 PUSH2 0x1064 JUMP JUMPDEST SWAP3 POP POP PUSH1 0x1 DUP2 ADD SWAP1 POP PUSH2 0x1092 JUMP JUMPDEST POP DUP6 SWAP4 POP POP POP POP SWAP3 SWAP2 POP POP JUMP JUMPDEST PUSH0 PUSH2 0x120 DUP4 ADD PUSH0 DUP4 ADD MLOAD DUP5 DUP3 SUB PUSH0 DUP7 ADD MSTORE PUSH2 0x10E7 DUP3 DUP3 PUSH2 0xF26 JUMP JUMPDEST SWAP2 POP POP PUSH1 0x20 DUP4 ADD MLOAD DUP5 DUP3 SUB PUSH1 0x20 DUP7 ADD MSTORE PUSH2 0x1101 DUP3 DUP3 PUSH2 0xF26 JUMP JUMPDEST SWAP2 POP POP PUSH1 0x40 DUP4 ADD MLOAD DUP5 DUP3 SUB PUSH1 0x40 DUP7 ADD MSTORE PUSH2 0x111B DUP3 DUP3 PUSH2 0xF26 JUMP JUMPDEST SWAP2 POP POP PUSH1 0x60 DUP4 ADD MLOAD PUSH2 0x1130 PUSH1 0x60 DUP7 ADD DUP3 PUSH2 0xF5E JUMP JUMPDEST POP PUSH1 0x80 DUP4 ADD MLOAD PUSH2 0x1143 PUSH1 0x80 DUP7 ADD DUP3 PUSH2 0xF5E JUMP JUMPDEST POP PUSH1 0xA0 DUP4 ADD MLOAD PUSH2 0x1156 PUSH1 0xA0 DUP7 ADD DUP3 PUSH2 0xF5E JUMP JUMPDEST POP PUSH1 0xC0 DUP4 ADD MLOAD PUSH2 0x1169 PUSH1 0xC0 DUP7 ADD DUP3 PUSH2 0xF6D JUMP JUMPDEST POP PUSH1 0xE0 DUP4 ADD MLOAD DUP5 DUP3 SUB PUSH1 0xE0 DUP7 ADD MSTORE PUSH2 0x1181 DUP3 DUP3 PUSH2 0xFC8 JUMP JUMPDEST SWAP2 POP POP PUSH2 0x100 DUP4 ADD MLOAD DUP5 DUP3 SUB PUSH2 0x100 DUP7 ADD MSTORE PUSH2 0x119D DUP3 DUP3 PUSH2 0x1070 JUMP JUMPDEST SWAP2 POP POP DUP1 SWAP2 POP POP SWAP3 SWAP2 POP POP JUMP JUMPDEST PUSH0 PUSH2 0x11B5 DUP4 DUP4 PUSH2 0x10CC JUMP JUMPDEST SWAP1 POP SWAP3 SWAP2 POP POP JUMP JUMPDEST PUSH0 PUSH1 0x20 DUP3 ADD SWAP1 POP SWAP2 SWAP1 POP JUMP JUMPDEST PUSH0 PUSH2 0x11D3 DUP3 PUSH2 0xED5 JUMP JUMPDEST PUSH2 0x11DD DUP2 DUP6 PUSH2 0xEDF JUMP JUMPDEST SWAP4 POP DUP4 PUSH1 0x20 DUP3 MUL DUP6 ADD PUSH2 0x11EF DUP6 PUSH2 0xEEF JUMP JUMPDEST DUP1 PUSH0 JUMPDEST DUP6 DUP2 LT ISZERO PUSH2 0x122A JUMPI DUP5 DUP5 SUB DUP10 MSTORE DUP2 MLOAD PUSH2 0x120B DUP6 DUP3 PUSH2 0x11AA JUMP JUMPDEST SWAP5 POP PUSH2 0x1216 DUP4 PUSH2 0x11BD JUMP JUMPDEST SWAP3 POP PUSH1 0x20 DUP11 ADD SWAP10 POP POP PUSH1 0x1 DUP2 ADD SWAP1 POP PUSH2 0x11F2 JUMP JUMPDEST POP DUP3 SWAP8 POP DUP8 SWAP6 POP POP POP POP POP POP SWAP3 SWAP2 POP POP JUMP JUMPDEST PUSH0 PUSH1 0x20 DUP3 ADD SWAP1 POP DUP2 DUP2 SUB PUSH0 DUP4 ADD MSTORE PUSH2 0x1254 DUP2 DUP5 PUSH2 0x11C9 JUMP JUMPDEST SWAP1 POP SWAP3 SWAP2 POP POP JUMP JUMPDEST PUSH0 DUP3 DUP3 MSTORE PUSH1 0x20 DUP3 ADD SWAP1 POP SWAP3 SWAP2 POP POP JUMP JUMPDEST PUSH0 PUSH2 0x1276 DUP3 PUSH2 0xEFE JUMP JUMPDEST PUSH2 0x1280 DUP2 DUP6 PUSH2 0x125C JUMP JUMPDEST SWAP4 POP PUSH2 0x1290 DUP2 DUP6 PUSH1 0x20 DUP7 ADD PUSH2 0xF18 JUMP JUMPDEST PUSH2 0x1299 DUP2 PUSH2 0xC54 JUMP JUMPDEST DUP5 ADD SWAP2 POP POP SWAP3 SWAP2 POP POP JUMP JUMPDEST PUSH2 0x12AD DUP2 PUSH2 0xDA7 JUMP JUMPDEST DUP3 MSTORE POP POP JUMP JUMPDEST PUSH0 PUSH1 0xE0 DUP3 ADD SWAP1 POP DUP2 DUP2 SUB PUSH0 DUP4 ADD MSTORE PUSH2 0x12CB DUP2 DUP11 PUSH2 0x126C JUMP JUMPDEST SWAP1 POP DUP2 DUP2 SUB PUSH1 0x20 DUP4 ADD MSTORE PUSH2 0x12DF DUP2 DUP10 PUSH2 0x126C JUMP JUMPDEST SWAP1 POP DUP2 DUP2 SUB PUSH1 0x40 DUP4 ADD MSTORE PUSH2 0x12F3 DUP2 DUP9 PUSH2 0x126C JUMP JUMPDEST SWAP1 POP PUSH2 0x1302 PUSH1 0x60 DUP4 ADD DUP8 PUSH2 0xEAD JUMP JUMPDEST PUSH2 0x130F PUSH1 0x80 DUP4 ADD DUP7 PUSH2 0xEAD JUMP JUMPDEST PUSH2 0x131C PUSH1 0xA0 DUP4 ADD DUP6 PUSH2 0xEAD JUMP JUMPDEST PUSH2 0x1329 PUSH1 0xC0 DUP4 ADD DUP5 PUSH2 0x12A4 JUMP JUMPDEST SWAP9 SWAP8 POP POP POP POP POP POP POP POP JUMP JUMPDEST PUSH0 DUP3 DUP3 MSTORE PUSH1 0x20 DUP3 ADD SWAP1 POP SWAP3 SWAP2 POP POP JUMP JUMPDEST PUSH0 PUSH2 0x134F DUP3 PUSH2 0xF7C JUMP JUMPDEST PUSH2 0x1359 DUP2 DUP6 PUSH2 0x1335 JUMP JUMPDEST SWAP4 POP PUSH2 0x1364 DUP4 PUSH2 0xF96 JUMP JUMPDEST DUP1 PUSH0 JUMPDEST DUP4 DUP2 LT ISZERO PUSH2 0x1394 JUMPI DUP2 MLOAD PUSH2 0x137B DUP9 DUP3 PUSH2 0xFA5 JUMP JUMPDEST SWAP8 POP PUSH2 0x1386 DUP4 PUSH2 0xFBC JUMP JUMPDEST SWAP3 POP POP PUSH1 0x1 DUP2 ADD SWAP1 POP PUSH2 0x1367 JUMP JUMPDEST POP DUP6 SWAP4 POP POP POP POP SWAP3 SWAP2 POP POP JUMP JUMPDEST PUSH0 DUP3 DUP3 MSTORE PUSH1 0x20 DUP3 ADD SWAP1 POP SWAP3 SWAP2 POP POP JUMP JUMPDEST PUSH0 PUSH2 0x13BB DUP3 PUSH2 0x1024 JUMP JUMPDEST PUSH2 0x13C5 DUP2 DUP6 PUSH2 0x13A1 JUMP JUMPDEST SWAP4 POP PUSH2 0x13D0 DUP4 PUSH2 0x103E JUMP JUMPDEST DUP1 PUSH0 JUMPDEST DUP4 DUP2 LT ISZERO PUSH2 0x1400 JUMPI DUP2 MLOAD PUSH2 0x13E7 DUP9 DUP3 PUSH2 0x104D JUMP JUMPDEST SWAP8 POP PUSH2 0x13F2 DUP4 PUSH2 0x1064 JUMP JUMPDEST SWAP3 POP POP PUSH1 0x1 DUP2 ADD SWAP1 POP PUSH2 0x13D3 JUMP JUMPDEST POP DUP6 SWAP4 POP POP POP POP SWAP3 SWAP2 POP POP JUMP JUMPDEST PUSH0 PUSH1 0x40 DUP3 ADD SWAP1 POP DUP2 DUP2 SUB PUSH0 DUP4 ADD MSTORE PUSH2 0x1425 DUP2 DUP6 PUSH2 0x1345 JUMP JUMPDEST SWAP1 POP DUP2 DUP2 SUB PUSH1 0x20 DUP4 ADD MSTORE PUSH2 0x1439 DUP2 DUP5 PUSH2 0x13B1 JUMP JUMPDEST SWAP1 POP SWAP4 SWAP3 POP POP POP JUMP JUMPDEST PUSH32 0x4F6E6C79206F776E65722063616E207769746864726177206D6F6E6579000000 PUSH0 DUP3 ADD MSTORE POP JUMP JUMPDEST PUSH0 PUSH2 0x1476 PUSH1 0x1D DUP4 PUSH2 0x125C JUMP JUMPDEST SWAP2 POP PUSH2 0x1481 DUP3 PUSH2 0x1442 JUMP JUMPDEST PUSH1 0x20 DUP3 ADD SWAP1 POP SWAP2 SWAP1 POP JUMP JUMPDEST PUSH0 PUSH1 0x20 DUP3 ADD SWAP1 POP DUP2 DUP2 SUB PUSH0 DUP4 ADD MSTORE PUSH2 0x14A3 DUP2 PUSH2 0x146A JUMP JUMPDEST SWAP1 POP SWAP2 SWAP1 POP JUMP JUMPDEST PUSH0 DUP2 SWAP1 POP SWAP3 SWAP2 POP POP JUMP JUMPDEST POP JUMP JUMPDEST PUSH0 PUSH2 0x14C2 PUSH0 DUP4 PUSH2 0x14AA JUMP JUMPDEST SWAP2 POP PUSH2 0x14CD DUP3 PUSH2 0x14B4 JUMP JUMPDEST PUSH0 DUP3 ADD SWAP1 POP SWAP2 SWAP1 POP JUMP JUMPDEST PUSH0 PUSH2 0x14E1 DUP3 PUSH2 0x14B7 JUMP JUMPDEST SWAP2 POP DUP2 SWAP1 POP SWAP2 SWAP1 POP JUMP JUMPDEST PUSH32 0x536F6D657468696E672077656E742077726F6E67000000000000000000000000 PUSH0 DUP3 ADD MSTORE POP JUMP JUMPDEST PUSH0 PUSH2 0x151F PUSH1 0x14 DUP4 PUSH2 0x125C JUMP JUMPDEST SWAP2 POP PUSH2 0x152A DUP3 PUSH2 0x14EB JUMP JUMPDEST PUSH1 0x20 DUP3 ADD SWAP1 POP SWAP2 SWAP1 POP JUMP JUMPDEST PUSH0 PUSH1 0x20 DUP3 ADD SWAP1 POP DUP2 DUP2 SUB PUSH0 DUP4 ADD MSTORE PUSH2 0x154C DUP2 PUSH2 0x1513 JUMP JUMPDEST SWAP1 POP SWAP2 SWAP1 POP JUMP JUMPDEST PUSH32 0x4E487B7100000000000000000000000000000000000000000000000000000000 PUSH0 MSTORE PUSH1 0x22 PUSH1 0x4 MSTORE PUSH1 0x24 PUSH0 REVERT JUMPDEST PUSH0 PUSH1 0x2 DUP3 DIV SWAP1 POP PUSH1 0x1 DUP3 AND DUP1 PUSH2 0x1597 JUMPI PUSH1 0x7F DUP3 AND SWAP2 POP JUMPDEST PUSH1 0x20 DUP3 LT DUP2 SUB PUSH2 0x15AA JUMPI PUSH2 0x15A9 PUSH2 0x1553 JUMP JUMPDEST JUMPDEST POP SWAP2 SWAP1 POP JUMP JUMPDEST PUSH0 DUP2 SWAP1 POP DUP2 PUSH0 MSTORE PUSH1 0x20 PUSH0 KECCAK256 SWAP1 POP SWAP2 SWAP1 POP JUMP JUMPDEST PUSH0 PUSH1 0x20 PUSH1 0x1F DUP4 ADD DIV SWAP1 POP SWAP2 SWAP1 POP JUMP JUMPDEST PUSH0 DUP3 DUP3 SHL SWAP1 POP SWAP3 SWAP2 POP POP JUMP JUMPDEST PUSH0 PUSH1 0x8 DUP4 MUL PUSH2 0x160C PUSH32 0xFFFFFFFFFFFFFFFFFFFFFFFFFFFFFFFFFFFFFFFFFFFFFFFFFFFFFFFFFFFFFFFF DUP3 PUSH2 0x15D1 JUMP JUMPDEST PUSH2 0x1616 DUP7 DUP4 PUSH2 0x15D1 JUMP JUMPDEST SWAP6 POP DUP1 NOT DUP5 AND SWAP4 POP DUP1 DUP7 AND DUP5 OR SWAP3 POP POP POP SWAP4 SWAP3 POP POP POP JUMP JUMPDEST PUSH0 DUP2 SWAP1 POP SWAP2 SWAP1 POP JUMP JUMPDEST PUSH0 PUSH2 0x1651 PUSH2 0x164C PUSH2 0x1647 DUP5 PUSH2 0xBEE JUMP JUMPDEST PUSH2 0x162E JUMP JUMPDEST PUSH2 0xBEE JUMP JUMPDEST SWAP1 POP SWAP2 SWAP1 POP JUMP JUMPDEST PUSH0 DUP2 SWAP1 POP SWAP2 SWAP1 POP JUMP JUMPDEST PUSH2 0x166A DUP4 PUSH2 0x1637 JUMP JUMPDEST PUSH2 0x167E PUSH2 0x1676 DUP3 PUSH2 0x1658 JUMP JUMPDEST DUP5 DUP5 SLOAD PUSH2 0x15DD JUMP JUMPDEST DUP3 SSTORE POP POP POP POP JUMP JUMPDEST PUSH0 SWAP1 JUMP JUMPDEST PUSH2 0x1692 PUSH2 0x1686 JUMP JUMPDEST PUSH2 0x169D DUP2 DUP5 DUP5 PUSH2 0x1661 JUMP JUMPDEST POP POP POP JUMP JUMPDEST JUMPDEST DUP2 DUP2 LT ISZERO PUSH2 0x16C0 JUMPI PUSH2 0x16B5 PUSH0 DUP3 PUSH2 0x168A JUMP JUMPDEST PUSH1 0x1 DUP2 ADD SWAP1 POP PUSH2 0x16A3 JUMP JUMPDEST POP POP JUMP JUMPDEST PUSH1 0x1F DUP3 GT ISZERO PUSH2 0x1705 JUMPI PUSH2 0x16D6 DUP2 PUSH2 0x15B0 JUMP JUMPDEST PUSH2 0x16DF DUP5 PUSH2 0x15C2 JUMP JUMPDEST DUP2 ADD PUSH1 0x20 DUP6 LT ISZERO PUSH2 0x16EE JUMPI DUP2 SWAP1 POP JUMPDEST PUSH2 0x1702 PUSH2 0x16FA DUP6 PUSH2 0x15C2 JUMP JUMPDEST DUP4 ADD DUP3 PUSH2 0x16A2 JUMP JUMPDEST POP POP JUMPDEST POP POP POP JUMP JUMPDEST PUSH0 DUP3 DUP3 SHR SWAP1 POP SWAP3 SWAP2 POP POP JUMP JUMPDEST PUSH0 PUSH2 0x1725 PUSH0 NOT DUP5 PUSH1 0x8 MUL PUSH2 0x170A JUMP JUMPDEST NOT DUP1 DUP4 AND SWAP2 POP POP SWAP3 SWAP2 POP POP JUMP JUMPDEST PUSH0 PUSH2 0x173D DUP4 DUP4 PUSH2 0x1716 JUMP JUMPDEST SWAP2 POP DUP3 PUSH1 0x2 MUL DUP3 OR SWAP1 POP SWAP3 SWAP2 POP POP JUMP JUMPDEST PUSH2 0x1756 DUP3 PUSH2 0xEFE JUMP JUMPDEST PUSH8 0xFFFFFFFFFFFFFFFF DUP2 GT ISZERO PUSH2 0x176F JUMPI PUSH2 0x176E PUSH2 0xC64 JUMP JUMPDEST JUMPDEST PUSH2 0x1779 DUP3 SLOAD PUSH2 0x1580 JUMP JUMPDEST PUSH2 0x1784 DUP3 DUP3 DUP6 PUSH2 0x16C4 JUMP JUMPDEST PUSH0 PUSH1 0x20 SWAP1 POP PUSH1 0x1F DUP4 GT PUSH1 0x1 DUP2 EQ PUSH2 0x17B5 JUMPI PUSH0 DUP5 ISZERO PUSH2 0x17A3 JUMPI DUP3 DUP8 ADD MLOAD SWAP1 POP JUMPDEST PUSH2 0x17AD DUP6 DUP3 PUSH2 0x1732 JUMP JUMPDEST DUP7 SSTORE POP PUSH2 0x1814 JUMP JUMPDEST PUSH1 0x1F NOT DUP5 AND PUSH2 0x17C3 DUP7 PUSH2 0x15B0 JUMP JUMPDEST PUSH0 JUMPDEST DUP3 DUP2 LT ISZERO PUSH2 0x17EA JUMPI DUP5 DUP10 ADD MLOAD DUP3 SSTORE PUSH1 0x1 DUP3 ADD SWAP2 POP PUSH1 0x20 DUP6 ADD SWAP5 POP PUSH1 0x20 DUP2 ADD SWAP1 POP PUSH2 0x17C5 JUMP JUMPDEST DUP7 DUP4 LT ISZERO PUSH2 0x1807 JUMPI DUP5 DUP10 ADD MLOAD PUSH2 0x1803 PUSH1 0x1F DUP10 AND DUP3 PUSH2 0x1716 JUMP JUMPDEST DUP4 SSTORE POP JUMPDEST PUSH1 0x1 PUSH1 0x2 DUP9 MUL ADD DUP9 SSTORE POP POP POP JUMPDEST POP POP POP POP POP POP JUMP JUMPDEST PUSH32 0x4E487B7100000000000000000000000000000000000000000000000000000000 PUSH0 MSTORE PUSH1 0x11 PUSH1 0x4 MSTORE PUSH1 0x24 PUSH0 REVERT JUMPDEST PUSH0 PUSH2 0x1853 DUP3 PUSH2 0xBEE JUMP JUMPDEST SWAP2 POP PUSH32 0xFFFFFFFFFFFFFFFFFFFFFFFFFFFFFFFFFFFFFFFFFFFFFFFFFFFFFFFFFFFFFFFF DUP3 SUB PUSH2 0x1885 JUMPI PUSH2 0x1884 PUSH2 0x181C JUMP JUMPDEST JUMPDEST PUSH1 0x1 DUP3 ADD SWAP1 POP SWAP2 SWAP1 POP JUMP JUMPDEST PUSH0 PUSH2 0x189A DUP3 PUSH2 0xBEE JUMP JUMPDEST SWAP2 POP PUSH2 0x18A5 DUP4 PUSH2 0xBEE JUMP JUMPDEST SWAP3 POP DUP3 DUP3 SUB SWAP1 POP DUP2 DUP2 GT ISZERO PUSH2 0x18BD JUMPI PUSH2 0x18BC PUSH2 0x181C JUMP JUMPDEST JUMPDEST SWAP3 SWAP2 POP POP JUMP JUMPDEST PUSH32 0x4E487B7100000000000000000000000000000000000000000000000000000000 PUSH0 MSTORE PUSH1 0x32 PUSH1 0x4 MSTORE PUSH1 0x24 PUSH0 REVERT JUMPDEST PUSH0 PUSH2 0x18FA DUP3 PUSH2 0xBEE JUMP JUMPDEST SWAP2 POP PUSH2 0x1905 DUP4 PUSH2 0xBEE JUMP JUMPDEST SWAP3 POP DUP3 DUP3 ADD SWAP1 POP DUP1 DUP3 GT ISZERO PUSH2 0x191D JUMPI PUSH2 0x191C PUSH2 0x181C JUMP JUMPDEST JUMPDEST SWAP3 SWAP2 POP POP JUMP INVALID LOG2 PUSH5 0x6970667358 0x22 SLT KECCAK256 0xE6 0xDA SWAP12 DUP3 DUP3 0xA8 0xCF 0x22 PUSH32 0x1E2B73F010BDE67A13BEF20C2A37BEF9389DCCB8D6C71A64736F6C634300081A STOP CALLER "
				},
				"gasEstimates": {
					"creation": {
						"codeDepositCost": "1297800",
						"executionCost": "6352",
						"totalCost": "1304152"
					},
					"external": {
						"createCampaign(string,string,string,uint256,address)": "infinite",
						"fund(uint256)": "infinite",
						"getAllCampaign()": "infinite",
						"getAllDonators(uint256)": "infinite",
						"intToCampaign(uint256)": "infinite",
						"numberOfCampaign()": "2424",
						"withdraw(uint256)": "infinite"
					}
				},
				"methodIdentifiers": {
					"createCampaign(string,string,string,uint256,address)": "35640410",
					"fund(uint256)": "ca1d209d",
					"getAllCampaign()": "4ca079f2",
					"getAllDonators(uint256)": "e27883fb",
					"intToCampaign(uint256)": "d8443124",
					"numberOfCampaign()": "ab4a0b32",
					"withdraw(uint256)": "2e1a7d4d"
				}
			},
			"storageLayout": {
				"storage": [
					{
						"astId": 25,
						"contract": "contracts/crowdFunding.sol:CrowdFunding",
						"label": "numberOfCampaign",
						"offset": 0,
						"slot": "0",
						"type": "t_uint256"
					},
					{
						"astId": 30,
						"contract": "contracts/crowdFunding.sol:CrowdFunding",
						"label": "intToCampaign",
						"offset": 0,
						"slot": "1",
						"type": "t_mapping(t_uint256,t_struct(Campaign)22_storage)"
					}
				],
				"types": {
					"t_address": {
						"encoding": "inplace",
						"label": "address",
						"numberOfBytes": "20"
					},
					"t_array(t_address)dyn_storage": {
						"base": "t_address",
						"encoding": "dynamic_array",
						"label": "address[]",
						"numberOfBytes": "32"
					},
					"t_array(t_uint256)dyn_storage": {
						"base": "t_uint256",
						"encoding": "dynamic_array",
						"label": "uint256[]",
						"numberOfBytes": "32"
					},
					"t_mapping(t_uint256,t_struct(Campaign)22_storage)": {
						"encoding": "mapping",
						"key": "t_uint256",
						"label": "mapping(uint256 => struct CrowdFunding.Campaign)",
						"numberOfBytes": "32",
						"value": "t_struct(Campaign)22_storage"
					},
					"t_string_storage": {
						"encoding": "bytes",
						"label": "string",
						"numberOfBytes": "32"
					},
					"t_struct(Campaign)22_storage": {
						"encoding": "inplace",
						"label": "struct CrowdFunding.Campaign",
						"members": [
							{
								"astId": 3,
								"contract": "contracts/crowdFunding.sol:CrowdFunding",
								"label": "name",
								"offset": 0,
								"slot": "0",
								"type": "t_string_storage"
							},
							{
								"astId": 5,
								"contract": "contracts/crowdFunding.sol:CrowdFunding",
								"label": "description",
								"offset": 0,
								"slot": "1",
								"type": "t_string_storage"
							},
							{
								"astId": 7,
								"contract": "contracts/crowdFunding.sol:CrowdFunding",
								"label": "image",
								"offset": 0,
								"slot": "2",
								"type": "t_string_storage"
							},
							{
								"astId": 9,
								"contract": "contracts/crowdFunding.sol:CrowdFunding",
								"label": "target",
								"offset": 0,
								"slot": "3",
								"type": "t_uint256"
							},
							{
								"astId": 11,
								"contract": "contracts/crowdFunding.sol:CrowdFunding",
								"label": "totalRaised",
								"offset": 0,
								"slot": "4",
								"type": "t_uint256"
							},
							{
								"astId": 13,
								"contract": "contracts/crowdFunding.sol:CrowdFunding",
								"label": "currentBalance",
								"offset": 0,
								"slot": "5",
								"type": "t_uint256"
							},
							{
								"astId": 15,
								"contract": "contracts/crowdFunding.sol:CrowdFunding",
								"label": "owner",
								"offset": 0,
								"slot": "6",
								"type": "t_address"
							},
							{
								"astId": 18,
								"contract": "contracts/crowdFunding.sol:CrowdFunding",
								"label": "donators",
								"offset": 0,
								"slot": "7",
								"type": "t_array(t_address)dyn_storage"
							},
							{
								"astId": 21,
								"contract": "contracts/crowdFunding.sol:CrowdFunding",
								"label": "donation",
								"offset": 0,
								"slot": "8",
								"type": "t_array(t_uint256)dyn_storage"
							}
						],
						"numberOfBytes": "288"
					},
					"t_uint256": {
						"encoding": "inplace",
						"label": "uint256",
						"numberOfBytes": "32"
					}
				}
			},
			"userdoc": {
				"kind": "user",
				"methods": {},
				"version": 1
			}
		}
	}
}